{"abi":[{"type":"constructor","inputs":[{"name":"_implementationAddress","type":"address","internalType":"address"}],"stateMutability":"nonpayable"},{"type":"function","name":"createWallet","inputs":[{"name":"allowedSigners","type":"address[]","internalType":"address[]"},{"name":"salt","type":"bytes32","internalType":"bytes32"}],"outputs":[],"stateMutability":"nonpayable"},{"type":"function","name":"implementationAddress","inputs":[],"outputs":[{"name":"","type":"address","internalType":"address"}],"stateMutability":"view"},{"type":"event","name":"WalletCreated","inputs":[{"name":"newWalletAddress","type":"address","indexed":false,"internalType":"address"},{"name":"allowedSigners","type":"address[]","indexed":false,"internalType":"address[]"}],"anonymous":false}],"bytecode":{"object":"0x60a060405234801561001057600080fd5b5060405161041938038061041983398101604081905261002f91610040565b6001600160a01b0316608052610070565b60006020828403121561005257600080fd5b81516001600160a01b038116811461006957600080fd5b9392505050565b608051610389610090600039600081816055015260c901526103896000f3fe608060405234801561001057600080fd5b50600436106100365760003560e01c80637117f3fa1461003b578063b97a231914610050575b600080fd5b61004e6100493660046101e6565b610093565b005b6100777f000000000000000000000000000000000000000000000000000000000000000081565b6040516001600160a01b03909116815260200160405180910390f35b60008383836040516020016100aa9392919061027d565b60405160208183030381529060405280519060200120905060006100ee7f000000000000000000000000000000000000000000000000000000000000000083610192565b90507f0d1013664d1afda1c712a76630e584de8dd1d656331b90608aedc997fdb7839e81868660405161012393929190610309565b60405180910390a1604051636302262360e11b81526001600160a01b0382169063c6044c46906101599088908890600401610337565b600060405180830381600087803b15801561017357600080fd5b505af1158015610187573d6000803e3d6000fd5b505050505050505050565b6000808360601b9050604051733d602d80600a3d3981f3363d3d373d3d3d363d7360601b81528160148201526e5af43d82803e903d91602b57fd5bf360881b6028820152836037826000f595945050505050565b6000806000604084860312156101fb57600080fd5b833567ffffffffffffffff8082111561021357600080fd5b818601915086601f83011261022757600080fd5b81358181111561023657600080fd5b8760208260051b850101111561024b57600080fd5b6020928301989097509590910135949350505050565b80356001600160a01b038116811461027857600080fd5b919050565b60008185825b868110156102b2576001600160a01b0361029c83610261565b1683526020928301929190910190600101610283565b5050928352505060200192915050565b8183526000602080850194508260005b858110156102fe576001600160a01b036102eb83610261565b16875295820195908201906001016102d2565b509495945050505050565b6001600160a01b038416815260406020820181905260009061032e90830184866102c2565b95945050505050565b60208152600061034b6020830184866102c2565b94935050505056fea26469706673582212200a4ab6597aeced1f912f38976d685e919410d75bae1e547e1cb61888b8123e6d64736f6c63430008140033","linkReferences":{}},"methodIdentifiers":{"createWallet(address[],bytes32)":"7117f3fa","implementationAddress()":"b97a2319"},"id":10}