{"abi":[{"type":"fallback","stateMutability":"payable"},{"type":"receive","stateMutability":"payable"},{"type":"function","name":"sendMultiSig","inputs":[{"name":"_walletAddr","type":"address","internalType":"address payable"},{"name":"_toAddress","type":"address","internalType":"address"},{"name":"_value","type":"uint256","internalType":"uint256"},{"name":"_data","type":"bytes","internalType":"bytes"},{"name":"_expireTime","type":"uint256","internalType":"uint256"},{"name":"_sequenceId","type":"uint256","internalType":"uint256"},{"name":"_signature","type":"bytes","internalType":"bytes"},{"name":"_reentry","type":"bool","internalType":"bool"}],"outputs":[],"stateMutability":"nonpayable"},{"type":"function","name":"sendMultiSigBatch","inputs":[{"name":"_walletAddr","type":"address","internalType":"address payable"},{"name":"_recipients","type":"address[]","internalType":"address[]"},{"name":"_values","type":"uint256[]","internalType":"uint256[]"},{"name":"_expireTime","type":"uint256","internalType":"uint256"},{"name":"_sequenceId","type":"uint256","internalType":"uint256"},{"name":"_signature","type":"bytes","internalType":"bytes"},{"name":"_reentry","type":"bool","internalType":"bool"}],"outputs":[],"stateMutability":"nonpayable"},{"type":"function","name":"sendMultiSigToken","inputs":[{"name":"_walletAddr","type":"address","internalType":"address payable"},{"name":"_toAddress","type":"address","internalType":"address"},{"name":"_value","type":"uint256","internalType":"uint256"},{"name":"_tokenContractAddress","type":"address","internalType":"address"},{"name":"_expireTime","type":"uint256","internalType":"uint256"},{"name":"_sequenceId","type":"uint256","internalType":"uint256"},{"name":"_signature","type":"bytes","internalType":"bytes"},{"name":"_reentry","type":"bool","internalType":"bool"}],"outputs":[],"stateMutability":"nonpayable"},{"type":"function","name":"transfer","inputs":[{"name":"to","type":"address","internalType":"address"},{"name":"value","type":"uint256","internalType":"uint256"}],"outputs":[{"name":"success","type":"bool","internalType":"bool"}],"stateMutability":"nonpayable"},{"type":"event","name":"Transfer","inputs":[{"name":"from","type":"address","indexed":false,"internalType":"address"},{"name":"to","type":"address","indexed":false,"internalType":"address"},{"name":"value","type":"uint256","indexed":false,"internalType":"uint256"}],"anonymous":false}],"bytecode":{"object":"0x60806040526008805462ffffff1916905534801561001c57600080fd5b506111ad8061002c6000396000f3fe6080604052600436106100435760003560e01c8063084987e61461034757806328697091146103675780637c5eab5814610387578063a9059cbb146103a7576102ba565b366102ba5760085460ff16801561006557506000546001600160a01b03163115155b156102b857600854606090610100900460ff16151560010361019c57604051806060016040528060398152602001611103603991396000805460015460055460035460045460405196975094956001600160a01b039485169588956100d895169392600792909190600690602401610b18565b60408051601f1981840301815290829052916100f391610b8e565b60408051918290039091206020830180516001600160e01b03166001600160e01b03199092169190911790525161012a9190610b8e565b6000604051808303816000865af19150503d8060008114610167576040519150601f19603f3d011682016040523d82523d6000602084013e61016c565b606091505b50509050806101965760405162461bcd60e51b815260040161018d90610baa565b60405180910390fd5b506102b6565b60085462010000900460ff1615156001036102b6576040518060600160405280603c815260200161113c603c91396000805460035460045460405194955092936001600160a01b039092169285926101ff92600992600a92600690602401610bd1565b60408051601f19818403018152908290529161021a91610b8e565b60408051918290039091206020830180516001600160e01b03166001600160e01b0319909216919091179052516102519190610b8e565b6000604051808303816000865af19150503d806000811461028e576040519150601f19603f3d011682016040523d82523d6000602084013e610293565b606091505b50509050806102b45760405162461bcd60e51b815260040161018d90610baa565b505b505b005b60085460ff16801561006557506000546001600160a01b031631156102b857600854606090610100900460ff16151560010361019c57604051806060016040528060398152602001611103603991396000805460015460055460035460045460405196975094956001600160a01b039485169588956100d895169392600792909190600690602401610b18565b34801561035357600080fd5b506102b8610362366004610d3c565b6103db565b34801561037357600080fd5b506102b8610382366004610e0c565b61055d565b34801561039357600080fd5b506102b86103a2366004610eb5565b6106ed565b3480156103b357600080fd5b506103c76103c2366004610f67565b61087c565b604051901515815260200160405180910390f35b600080546001600160a01b0319166001600160a01b038c1617905561040260098a8a6109ae565b5061040f600a8888610a11565b50600385905560048490556006610427838583610ff8565b506008805482151562ffffff199091161762010000179055600080546003546004546040516001600160a01b039093169261046d92600992600a92600690602401610bd1565b60408051601f198184030181529181526020820180516001600160e01b031663ad3ad70960e01b179052516104a29190610b8e565b6000604051808303816000865af19150503d80600081146104df576040519150601f19603f3d011682016040523d82523d6000602084013e6104e4565b606091505b50509050806105505760405162461bcd60e51b815260206004820152603260248201527f5265656e74727957616c6c657453696d706c653a2073656e644d756c7469536960448201527119d0985d18da0819985a5b19590818d85b1b60721b606482015260840161018d565b5050505050505050505050565b600080546001600160a01b03808c166001600160a01b031992831617909255600180548b8416908316179055600589905560028054928916929091169190911790556003859055600484905560066105b6838583610ff8565b506008805460ff1916821515179055600080546001546005546002546003546004546040516001600160a01b03968716966105fe9681169594169291906006906024016110b9565b60408051601f198184030181529181526020820180516001600160e01b03166303735e9b60e21b179052516106339190610b8e565b6000604051808303816000865af19150503d8060008114610670576040519150601f19603f3d011682016040523d82523d6000602084013e610675565b606091505b50509050806106e15760405162461bcd60e51b815260206004820152603260248201527f5265656e74727957616c6c657453696d706c653a2073656e644d756c7469536960448201527119d51bdad95b8819985a5b19590818d85b1b60721b606482015260840161018d565b50505050505050505050565b600080546001600160a01b03808d166001600160a01b03199283161790925560018054928c16929091169190911790556005889055600761072f878983610ff8565b50600385905560048490556006610747838583610ff8565b506008805461010061ffff1990911683151561ff001916171762ff000019169055600080546001546005546003546004546040516001600160a01b039586169561079e951693926007929091600690602401610b18565b60408051601f198184030181529181526020820180516001600160e01b0316633912521560e01b179052516107d39190610b8e565b6000604051808303816000865af19150503d8060008114610810576040519150601f19603f3d011682016040523d82523d6000602084013e610815565b606091505b50509050806105505760405162461bcd60e51b815260206004820152602d60248201527f5265656e74727957616c6c657453696d706c653a2073656e644d756c7469536960448201526c19c819985a5b19590818d85b1b609a1b606482015260840161018d565b60085460009060ff161561095c57600080546001546002546003546004546040516001600160a01b03958616956108c2958116948a9491169290916006906024016110b9565b60408051601f198184030181529181526020820180516001600160e01b03166303735e9b60e21b179052516108f79190610b8e565b6000604051808303816000865af19150503d8060008114610934576040519150601f19603f3d011682016040523d82523d6000602084013e610939565b606091505b505090508061095a5760405162461bcd60e51b815260040161018d90610baa565b505b604080513381526001600160a01b03851660208201529081018390527fddf252ad1be2c89b69c2b068fc378daa952ba7f163c4a11628f55a4df523b3ef9060600160405180910390a150600192915050565b828054828255906000526020600020908101928215610a01579160200282015b82811115610a015781546001600160a01b0319166001600160a01b038435161782556020909201916001909101906109ce565b50610a0d929150610a4c565b5090565b828054828255906000526020600020908101928215610a01579160200282015b82811115610a01578235825591602001919060010190610a31565b5b80821115610a0d5760008155600101610a4d565b600181811c90821680610a7557607f821691505b602082108103610a9557634e487b7160e01b600052602260045260246000fd5b50919050565b60008154610aa881610a61565b808552602060018381168015610ac55760018114610adf57610b0d565b60ff1985168884015283151560051b880183019550610b0d565b866000528260002060005b85811015610b055781548a8201860152908301908401610aea565b890184019650505b505050505092915050565b60018060a01b038716815285602082015260c060408201526000610b3f60c0830187610a9b565b85606084015284608084015282810360a0840152610b5d8185610a9b565b9998505050505050505050565b60005b83811015610b85578181015183820152602001610b6d565b50506000910152565b60008251610ba0818460208701610b6a565b9190910192915050565b6020808252600d908201526c105d1d1858dac819985a5b1959609a1b604082015260600190565b600060a0820160a0835280885480835260c085019150600092508983526020808420845b83811015610c1a5781546001600160a01b031685529382019360019182019101610bf5565b50508583038187015289548084528a855281852093820192505b80851015610c5357835483526001948501949093019291810191610c34565b50508760408601528660608601528481036080860152610c738187610a9b565b9a9950505050505050505050565b6001600160a01b0381168114610c9657600080fd5b50565b60008083601f840112610cab57600080fd5b50813567ffffffffffffffff811115610cc357600080fd5b6020830191508360208260051b8501011115610cde57600080fd5b9250929050565b60008083601f840112610cf757600080fd5b50813567ffffffffffffffff811115610d0f57600080fd5b602083019150836020828501011115610cde57600080fd5b80358015158114610d3757600080fd5b919050565b60008060008060008060008060008060e08b8d031215610d5b57600080fd5b8a35610d6681610c81565b995060208b013567ffffffffffffffff80821115610d8357600080fd5b610d8f8e838f01610c99565b909b50995060408d0135915080821115610da857600080fd5b610db48e838f01610c99565b909950975060608d0135965060808d0135955060a08d0135915080821115610ddb57600080fd5b50610de88d828e01610ce5565b9094509250610dfb905060c08c01610d27565b90509295989b9194979a5092959850565b60008060008060008060008060006101008a8c031215610e2b57600080fd5b8935610e3681610c81565b985060208a0135610e4681610c81565b975060408a0135965060608a0135610e5d81610c81565b955060808a0135945060a08a0135935060c08a013567ffffffffffffffff811115610e8757600080fd5b610e938c828d01610ce5565b9094509250610ea6905060e08b01610d27565b90509295985092959850929598565b6000806000806000806000806000806101008b8d031215610ed557600080fd5b8a35610ee081610c81565b995060208b0135610ef081610c81565b985060408b0135975060608b013567ffffffffffffffff80821115610f1457600080fd5b610f208e838f01610ce5565b909950975060808d0135965060a08d0135955060c08d0135915080821115610f4757600080fd5b50610f548d828e01610ce5565b9094509250610dfb905060e08c01610d27565b60008060408385031215610f7a57600080fd5b8235610f8581610c81565b946020939093013593505050565b634e487b7160e01b600052604160045260246000fd5b601f821115610ff357600081815260208120601f850160051c81016020861015610fd05750805b601f850160051c820191505b81811015610fef57828155600101610fdc565b5050505b505050565b67ffffffffffffffff83111561101057611010610f93565b6110248361101e8354610a61565b83610fa9565b6000601f84116001811461105857600085156110405750838201355b600019600387901b1c1916600186901b1783556110b2565b600083815260209020601f19861690835b828110156110895786850135825560209485019460019092019101611069565b50868210156110a65760001960f88860031b161c19848701351681555b505060018560011b0183555b5050505050565b600060018060a01b03808916835287602084015280871660408401525084606083015283608083015260c060a08301526110f660c0830184610a9b565b9897505050505050505056fe73656e644d756c746953696728616464726573732c75696e743235362c62797465732c75696e743235362c75696e743235362c62797465732973656e644d756c7469536967426174636828616464726573735b5d2c75696e743235365b5d2c75696e743235362c75696e743235362c627974657329a2646970667358221220488e317a347f1b512f7d3e8f7262e508def0385d50fe1628d16f1ac3e9c80de564736f6c63430008140033","linkReferences":{}},"methodIdentifiers":{"sendMultiSig(address,address,uint256,bytes,uint256,uint256,bytes,bool)":"7c5eab58","sendMultiSigBatch(address,address[],uint256[],uint256,uint256,bytes,bool)":"084987e6","sendMultiSigToken(address,address,uint256,address,uint256,uint256,bytes,bool)":"28697091","transfer(address,uint256)":"a9059cbb"},"id":31}