{"abi":[{"type":"fallback","stateMutability":"payable"},{"type":"receive","stateMutability":"payable"},{"type":"function","name":"activateSafeMode","inputs":[],"outputs":[],"stateMutability":"nonpayable"},{"type":"function","name":"batchFlushERC1155ForwarderTokens","inputs":[{"name":"forwarderAddress","type":"address","internalType":"address payable"},{"name":"tokenContractAddress","type":"address","internalType":"address"},{"name":"tokenIds","type":"uint256[]","internalType":"uint256[]"}],"outputs":[],"stateMutability":"nonpayable"},{"type":"function","name":"flushERC1155ForwarderTokens","inputs":[{"name":"forwarderAddress","type":"address","internalType":"address payable"},{"name":"tokenContractAddress","type":"address","internalType":"address"},{"name":"tokenId","type":"uint256","internalType":"uint256"}],"outputs":[],"stateMutability":"nonpayable"},{"type":"function","name":"flushERC721ForwarderTokens","inputs":[{"name":"forwarderAddress","type":"address","internalType":"address payable"},{"name":"tokenContractAddress","type":"address","internalType":"address"},{"name":"tokenId","type":"uint256","internalType":"uint256"}],"outputs":[],"stateMutability":"nonpayable"},{"type":"function","name":"flushForwarderTokens","inputs":[{"name":"forwarderAddress","type":"address","internalType":"address payable"},{"name":"tokenContractAddress","type":"address","internalType":"address"}],"outputs":[],"stateMutability":"nonpayable"},{"type":"function","name":"getNextSequenceId","inputs":[],"outputs":[{"name":"","type":"uint256","internalType":"uint256"}],"stateMutability":"view"},{"type":"function","name":"init","inputs":[{"name":"allowedSigners","type":"address[]","internalType":"address[]"}],"outputs":[],"stateMutability":"nonpayable"},{"type":"function","name":"initialized","inputs":[],"outputs":[{"name":"","type":"bool","internalType":"bool"}],"stateMutability":"view"},{"type":"function","name":"onERC1155BatchReceived","inputs":[{"name":"_operator","type":"address","internalType":"address"},{"name":"_from","type":"address","internalType":"address"},{"name":"ids","type":"uint256[]","internalType":"uint256[]"},{"name":"values","type":"uint256[]","internalType":"uint256[]"},{"name":"data","type":"bytes","internalType":"bytes"}],"outputs":[{"name":"","type":"bytes4","internalType":"bytes4"}],"stateMutability":"nonpayable"},{"type":"function","name":"onERC1155Received","inputs":[{"name":"_operator","type":"address","internalType":"address"},{"name":"_from","type":"address","internalType":"address"},{"name":"id","type":"uint256","internalType":"uint256"},{"name":"value","type":"uint256","internalType":"uint256"},{"name":"data","type":"bytes","internalType":"bytes"}],"outputs":[{"name":"","type":"bytes4","internalType":"bytes4"}],"stateMutability":"nonpayable"},{"type":"function","name":"onERC721Received","inputs":[{"name":"_operator","type":"address","internalType":"address"},{"name":"_from","type":"address","internalType":"address"},{"name":"_tokenId","type":"uint256","internalType":"uint256"},{"name":"_data","type":"bytes","internalType":"bytes"}],"outputs":[{"name":"","type":"bytes4","internalType":"bytes4"}],"stateMutability":"nonpayable"},{"type":"function","name":"safeMode","inputs":[],"outputs":[{"name":"","type":"bool","internalType":"bool"}],"stateMutability":"view"},{"type":"function","name":"sendMultiSig","inputs":[{"name":"toAddress","type":"address","internalType":"address"},{"name":"value","type":"uint256","internalType":"uint256"},{"name":"data","type":"bytes","internalType":"bytes"},{"name":"expireTime","type":"uint256","internalType":"uint256"},{"name":"sequenceId","type":"uint256","internalType":"uint256"},{"name":"signature","type":"bytes","internalType":"bytes"}],"outputs":[],"stateMutability":"nonpayable"},{"type":"function","name":"sendMultiSigBatch","inputs":[{"name":"recipients","type":"address[]","internalType":"address[]"},{"name":"values","type":"uint256[]","internalType":"uint256[]"},{"name":"expireTime","type":"uint256","internalType":"uint256"},{"name":"sequenceId","type":"uint256","internalType":"uint256"},{"name":"signature","type":"bytes","internalType":"bytes"}],"outputs":[],"stateMutability":"nonpayable"},{"type":"function","name":"sendMultiSigToken","inputs":[{"name":"toAddress","type":"address","internalType":"address"},{"name":"value","type":"uint256","internalType":"uint256"},{"name":"tokenContractAddress","type":"address","internalType":"address"},{"name":"expireTime","type":"uint256","internalType":"uint256"},{"name":"sequenceId","type":"uint256","internalType":"uint256"},{"name":"signature","type":"bytes","internalType":"bytes"}],"outputs":[],"stateMutability":"nonpayable"},{"type":"function","name":"setAutoFlush1155","inputs":[{"name":"forwarderAddress","type":"address","internalType":"address"},{"name":"autoFlush","type":"bool","internalType":"bool"}],"outputs":[],"stateMutability":"nonpayable"},{"type":"function","name":"setAutoFlush721","inputs":[{"name":"forwarderAddress","type":"address","internalType":"address"},{"name":"autoFlush","type":"bool","internalType":"bool"}],"outputs":[],"stateMutability":"nonpayable"},{"type":"function","name":"signers","inputs":[{"name":"","type":"address","internalType":"address"}],"outputs":[{"name":"","type":"bool","internalType":"bool"}],"stateMutability":"view"},{"type":"function","name":"supportsInterface","inputs":[{"name":"interfaceId","type":"bytes4","internalType":"bytes4"}],"outputs":[{"name":"","type":"bool","internalType":"bool"}],"stateMutability":"view"},{"type":"event","name":"BatchTransacted","inputs":[{"name":"msgSender","type":"address","indexed":false,"internalType":"address"},{"name":"otherSigner","type":"address","indexed":false,"internalType":"address"},{"name":"operation","type":"bytes32","indexed":false,"internalType":"bytes32"}],"anonymous":false},{"type":"event","name":"BatchTransfer","inputs":[{"name":"sender","type":"address","indexed":false,"internalType":"address"},{"name":"recipient","type":"address","indexed":false,"internalType":"address"},{"name":"value","type":"uint256","indexed":false,"internalType":"uint256"}],"anonymous":false},{"type":"event","name":"Deposited","inputs":[{"name":"from","type":"address","indexed":false,"internalType":"address"},{"name":"value","type":"uint256","indexed":false,"internalType":"uint256"},{"name":"data","type":"bytes","indexed":false,"internalType":"bytes"}],"anonymous":false},{"type":"event","name":"SafeModeActivated","inputs":[{"name":"msgSender","type":"address","indexed":false,"internalType":"address"}],"anonymous":false},{"type":"event","name":"Transacted","inputs":[{"name":"msgSender","type":"address","indexed":false,"internalType":"address"},{"name":"otherSigner","type":"address","indexed":false,"internalType":"address"},{"name":"operation","type":"bytes32","indexed":false,"internalType":"bytes32"},{"name":"toAddress","type":"address","indexed":false,"internalType":"address"},{"name":"value","type":"uint256","indexed":false,"internalType":"uint256"},{"name":"data","type":"bytes","indexed":false,"internalType":"bytes"}],"anonymous":false}],"bytecode":{"object":"0x60806040526001805461ffff1916905534801561001b57600080fd5b506122c58061002b6000396000f3fe6080604052600436106101185760003560e01c806392467776116100a0578063c137878411610064578063c1378784146103bf578063c6044c46146103df578063e6bd0aa4146103ff578063f23a6e611461041f578063fc0f392d1461044b57610172565b80639246777614610316578063a0b7967b14610336578063abe3219c14610359578063ad3ad70914610373578063bc197c811461039357610172565b80632da03409116100e75780632da034091461026657806334f940471461028657806339125215146102a65780635a953d0a146102c6578063736c0d5b146102e657610172565b806301ffc9a7146101ae5780630dcd7a6c146101e3578063150b7a0214610203578063158ef93e1461024757610172565b36610172573415610170576040805133815234602082015260609181018290526000918101919091527f6e89d517057028190560dd200cf6bf792842861353d1173761dfa362e1c133f0906080015b60405180910390a15b005b3415610170577f6e89d517057028190560dd200cf6bf792842861353d1173761dfa362e1c133f033346000366040516101679493929190611826565b3480156101ba57600080fd5b506101ce6101c9366004611858565b610460565b60405190151581526020015b60405180910390f35b3480156101ef57600080fd5b506101706101fe3660046118e9565b610497565b34801561020f57600080fd5b5061022e61021e366004611a23565b630a85bd0160e11b949350505050565b6040516001600160e01b031990911681526020016101da565b34801561025357600080fd5b506001546101ce90610100900460ff1681565b34801561027257600080fd5b50610170610281366004611a8e565b61052f565b34801561029257600080fd5b506101706102a1366004611b0b565b6105c2565b3480156102b257600080fd5b506101706102c1366004611b6f565b61065c565b3480156102d257600080fd5b506101706102e1366004611c0d565b6107d3565b3480156102f257600080fd5b506101ce610301366004611c4e565b60006020819052908152604090205460ff1681565b34801561032257600080fd5b50610170610331366004611c79565b610864565b34801561034257600080fd5b5061034b6108c3565b6040519081526020016101da565b34801561036557600080fd5b506001546101ce9060ff1681565b34801561037f57600080fd5b5061017061038e366004611ca7565b610929565b34801561039f57600080fd5b5061022e6103ae366004611da6565b63bc197c8160e01b95945050505050565b3480156103cb57600080fd5b506101706103da366004611c79565b610b3f565b3480156103eb57600080fd5b506101706103fa366004611e53565b610b9e565b34801561040b57600080fd5b5061017061041a366004611c0d565b610d44565b34801561042b57600080fd5b5061022e61043a366004611e94565b63f23a6e6160e01b95945050505050565b34801561045757600080fd5b50610170610dab565b60006001600160e01b03198216630271189760e51b148061049157506301ffc9a760e01b6001600160e01b03198316145b92915050565b3360009081526020819052604090205460ff166104cf5760405162461bcd60e51b81526004016104c690611efc565b60405180910390fd5b60006104d9610e1b565b88888888886040516020016104f396959493929190611f57565b604051602081830303815290604052805190602001209050610519888285858989610e4a565b50610525868989611011565b5050505050505050565b3360009081526020819052604090205460ff1661055e5760405162461bcd60e51b81526004016104c690611efc565b604051633ef1336760e01b81526001600160a01b038281166004830152839190821690633ef13367906024015b600060405180830381600087803b1580156105a557600080fd5b505af11580156105b9573d6000803e3d6000fd5b50505050505050565b3360009081526020819052604090205460ff166105f15760405162461bcd60e51b81526004016104c690611efc565b6040516331a8b74960e21b815284906001600160a01b0382169063c6a2dd249061062390879087908790600401611fe1565b600060405180830381600087803b15801561063d57600080fd5b505af1158015610651573d6000803e3d6000fd5b505050505050505050565b3360009081526020819052604090205460ff1661068b5760405162461bcd60e51b81526004016104c690611efc565b6000610695611142565b8989898989896040516020016106b1979695949392919061203b565b60405160208183030381529060405280519060200120905060006106d98a8386868a8a610e4a565b90507f59bed9ab5d78073465dd642a9e3e76dfdb7d53bcae9d09df7d0b8f5234d5a8063382848d8d8d8d604051610716979695949392919061208e565b60405180910390a160008a6001600160a01b03168a8a8a60405161073b9291906120de565b60006040518083038185875af1925050503d8060008114610778576040519150601f19603f3d011682016040523d82523d6000602084013e61077d565b606091505b50509050806107c65760405162461bcd60e51b815260206004820152601560248201527410d85b1b08195e1958dd5d1a5bdb8819985a5b1959605a1b60448201526064016104c6565b5050505050505050505050565b3360009081526020819052604090205460ff166108025760405162461bcd60e51b81526004016104c690611efc565b60405163159e44d760e01b81526001600160a01b0383811660048301526024820183905284919082169063159e44d7906044015b600060405180830381600087803b15801561085057600080fd5b505af1158015610525573d6000803e3d6000fd5b3360009081526020819052604090205460ff166108935760405162461bcd60e51b81526004016104c690611efc565b60405163456600df60e11b8152811515600482015282906001600160a01b03821690638acc01be9060240161058b565b600080805b600a8110156109175781600282600a81106108e5576108e56120ee565b0154111561090557600281600a8110610900576109006120ee565b015491505b8061090f8161211a565b9150506108c8565b50610923816001612133565b91505090565b3360009081526020819052604090205460ff166109585760405162461bcd60e51b81526004016104c690611efc565b60008790036109a15760405162461bcd60e51b81526020600482015260156024820152744e6f7420656e6f75676820726563697069656e747360581b60448201526064016104c6565b8685146109f05760405162461bcd60e51b815260206004820152601d60248201527f556e657175616c20726563697069656e747320616e642076616c75657300000060448201526064016104c6565b6101008710610a415760405162461bcd60e51b815260206004820152601c60248201527f546f6f206d616e7920726563697069656e74732c206d6178203235350000000060448201526064016104c6565b6000610a4b611152565b898989898989604051602001610a679796959493929190612146565b60408051601f19818403018152919052805160209091012060015490915060ff1615610aca5760405162461bcd60e51b8152602060048201526012602482015271426174636820696e2073616665206d6f646560701b60448201526064016104c6565b6000610adb60008386868a8a610e4a565b604080513381526001600160a01b03831660208201529081018490529091507fe4c9047a729726b729cf4fa62c95ef9a434bbaf206a7ea0c7c77515db15840229060600160405180910390a1610b338a8a8a8a61116d565b50505050505050505050565b3360009081526020819052604090205460ff16610b6e5760405162461bcd60e51b81526004016104c690611efc565b60405163c59f9f1960e01b8152811515600482015282906001600160a01b0382169063c59f9f199060240161058b565b600154610100900460ff1615610bf65760405162461bcd60e51b815260206004820152601c60248201527f436f6e747261637420616c726561647920696e697469616c697a65640000000060448201526064016104c6565b60038114610c465760405162461bcd60e51b815260206004820152601960248201527f496e76616c6964206e756d626572206f66207369676e6572730000000000000060448201526064016104c6565b60005b60ff8116821115610d30576000838360ff8416818110610c6b57610c6b6120ee565b9050602002016020810190610c809190611c4e565b6001600160a01b031603610cc75760405162461bcd60e51b815260206004820152600e60248201526d24b73b30b634b21039b4b3b732b960911b60448201526064016104c6565b600160008085858560ff16818110610ce157610ce16120ee565b9050602002016020810190610cf69190611c4e565b6001600160a01b031681526020810191909152604001600020805460ff191691151591909117905580610d28816121ca565b915050610c49565b50506001805461ff00191661010017905550565b3360009081526020819052604090205460ff16610d735760405162461bcd60e51b81526004016104c690611efc565b60405163225cb05f60e21b81526001600160a01b03838116600483015260248201839052849190821690638972c17c90604401610836565b3360009081526020819052604090205460ff16610dda5760405162461bcd60e51b81526004016104c690611efc565b6001805460ff1916811790556040513381527f0909e8f76a4fd3e970f2eaef56c0ee6dfaf8b87c5b8d3f56ffce78e825a911579060200160405180910390a1565b6060610e264661134f565b604051602001610e3691906121e9565b604051602081830303815290604052905090565b600080610e8d8787878080601f0160208091040260200160405190810160405280939291908181526020018383808284376000920191909152506113e192505050565b60015490915060ff161580610eba57506001600160a01b03881660009081526020819052604090205460ff165b610f065760405162461bcd60e51b815260206004820152601e60248201527f45787465726e616c207472616e7366657220696e2073616665206d6f6465000060448201526064016104c6565b42841015610f4c5760405162461bcd60e51b8152602060048201526013602482015272151c985b9cd858dd1a5bdb88195e1c1a5c9959606a1b60448201526064016104c6565b610f5583611540565b6001600160a01b03811660009081526020819052604090205460ff16610fae5760405162461bcd60e51b815260206004820152600e60248201526d24b73b30b634b21039b4b3b732b960911b60448201526064016104c6565b336001600160a01b038216036110065760405162461bcd60e51b815260206004820152601760248201527f5369676e6572732063616e6e6f7420626520657175616c00000000000000000060448201526064016104c6565b979650505050505050565b604080516001600160a01b038481166024830152604480830185905283518084039091018152606490920183526020820180516001600160e01b031663a9059cbb60e01b179052915160009283929087169161106d9190612213565b6000604051808303816000865af19150503d80600081146110aa576040519150601f19603f3d011682016040523d82523d6000602084013e6110af565b606091505b50915091508180156110d95750805115806110d95750808060200190518101906110d9919061222f565b61113b5760405162461bcd60e51b815260206004820152602d60248201527f5472616e7366657248656c7065723a3a736166655472616e736665723a20747260448201526c185b9cd9995c8819985a5b1959609a1b60648201526084016104c6565b5050505050565b606061114d4661134f565b905090565b606061115d4661134f565b604051602001610e36919061224c565b60005b8381101561113b5782828281811061118a5761118a6120ee565b905060200201354710156111d55760405162461bcd60e51b8152602060048201526012602482015271496e73756666696369656e742066756e647360701b60448201526064016104c6565b7fc42fa155158786a1dd6ccc3a785f35845467353c3cc700e0e31a79f90e22227d33868684818110611209576112096120ee565b905060200201602081019061121e9190611c4e565b858585818110611230576112306120ee565b90506020020135604051611265939291906001600160a01b039384168152919092166020820152604081019190915260600190565b60405180910390a16000858583818110611281576112816120ee565b90506020020160208101906112969190611c4e565b6001600160a01b03168484848181106112b1576112b16120ee565b9050602002013560405160006040518083038185875af1925050503d80600081146112f8576040519150601f19603f3d011682016040523d82523d6000602084013e6112fd565b606091505b505090508061133c5760405162461bcd60e51b815260206004820152600b60248201526a10d85b1b0819985a5b195960aa1b60448201526064016104c6565b50806113478161211a565b915050611170565b6060600061135c83611725565b60010190506000816001600160401b0381111561137b5761137b61196e565b6040519080825280601f01601f1916602001820160405280156113a5576020820181803683370190505b5090508181016020015b600019016f181899199a1a9b1b9c1cb0b131b232b360811b600a86061a8153600a85049450846113af57509392505050565b600081516041146114345760405162461bcd60e51b815260206004820181905260248201527f496e76616c6964207369676e6174757265202d2077726f6e67206c656e67746860448201526064016104c6565b60208201516040830151604184015160ff16601b81101561145d5761145a601b82612276565b90505b7f7fffffffffffffffffffffffffffffff5d576e7357a4501ddfe92f46681b20a08211156114d85760405162461bcd60e51b815260206004820152602260248201527f45434453413a20696e76616c6964207369676e6174757265202773272076616c604482015261756560f01b60648201526084016104c6565b60408051600081526020810180835288905260ff831691810191909152606081018490526080810183905260019060a0016020604051602081039080840390855afa15801561152b573d6000803e3d6000fd5b5050604051601f190151979650505050505050565b60408051610140810191829052600091829190600290600a9082845b81548152602001906001019080831161155c575050505050905060005b600a81101561163157838282600a8110611595576115956120ee565b6020020151036115e75760405162461bcd60e51b815260206004820152601860248201527f53657175656e636520494420616c72656164792075736564000000000000000060448201526064016104c6565b8183600a81106115f9576115f96120ee565b60200201518282600a8110611610576116106120ee565b6020020151101561161f578092505b806116298161211a565b915050611579565b508082600a8110611644576116446120ee565b602002015183116116975760405162461bcd60e51b815260206004820152601860248201527f53657175656e63652049442062656c6f772077696e646f77000000000000000060448201526064016104c6565b6127108183600a81106116ac576116ac6120ee565b60200201516116bb9190612133565b83111561170a5760405162461bcd60e51b815260206004820152601960248201527f53657175656e63652049442061626f7665206d6178696d756d0000000000000060448201526064016104c6565b82600283600a811061171e5761171e6120ee565b0155505050565b60008072184f03e93ff9f4daa797ed6e38ed64bf6a1f0160401b83106117645772184f03e93ff9f4daa797ed6e38ed64bf6a1f0160401b830492506040015b6d04ee2d6d415b85acef81000000008310611790576d04ee2d6d415b85acef8100000000830492506020015b662386f26fc1000083106117ae57662386f26fc10000830492506010015b6305f5e10083106117c6576305f5e100830492506008015b61271083106117da57612710830492506004015b606483106117ec576064830492506002015b600a83106104915760010192915050565b81835281816020850137506000828201602090810191909152601f909101601f19169091010190565b60018060a01b038516815283602082015260606040820152600061184e6060830184866117fd565b9695505050505050565b60006020828403121561186a57600080fd5b81356001600160e01b03198116811461188257600080fd5b9392505050565b6001600160a01b038116811461189e57600080fd5b50565b60008083601f8401126118b357600080fd5b5081356001600160401b038111156118ca57600080fd5b6020830191508360208285010111156118e257600080fd5b9250929050565b600080600080600080600060c0888a03121561190457600080fd5b873561190f81611889565b965060208801359550604088013561192681611889565b9450606088013593506080880135925060a08801356001600160401b0381111561194f57600080fd5b61195b8a828b016118a1565b989b979a50959850939692959293505050565b634e487b7160e01b600052604160045260246000fd5b604051601f8201601f191681016001600160401b03811182821017156119ac576119ac61196e565b604052919050565b600082601f8301126119c557600080fd5b81356001600160401b038111156119de576119de61196e565b6119f1601f8201601f1916602001611984565b818152846020838601011115611a0657600080fd5b816020850160208301376000918101602001919091529392505050565b60008060008060808587031215611a3957600080fd5b8435611a4481611889565b93506020850135611a5481611889565b92506040850135915060608501356001600160401b03811115611a7657600080fd5b611a82878288016119b4565b91505092959194509250565b60008060408385031215611aa157600080fd5b8235611aac81611889565b91506020830135611abc81611889565b809150509250929050565b60008083601f840112611ad957600080fd5b5081356001600160401b03811115611af057600080fd5b6020830191508360208260051b85010111156118e257600080fd5b60008060008060608587031215611b2157600080fd5b8435611b2c81611889565b93506020850135611b3c81611889565b925060408501356001600160401b03811115611b5757600080fd5b611b6387828801611ac7565b95989497509550505050565b60008060008060008060008060c0898b031215611b8b57600080fd5b8835611b9681611889565b97506020890135965060408901356001600160401b0380821115611bb957600080fd5b611bc58c838d016118a1565b909850965060608b0135955060808b0135945060a08b0135915080821115611bec57600080fd5b50611bf98b828c016118a1565b999c989b5096995094979396929594505050565b600080600060608486031215611c2257600080fd5b8335611c2d81611889565b92506020840135611c3d81611889565b929592945050506040919091013590565b600060208284031215611c6057600080fd5b813561188281611889565b801515811461189e57600080fd5b60008060408385031215611c8c57600080fd5b8235611c9781611889565b91506020830135611abc81611c6b565b60008060008060008060008060a0898b031215611cc357600080fd5b88356001600160401b0380821115611cda57600080fd5b611ce68c838d01611ac7565b909a50985060208b0135915080821115611cff57600080fd5b611d0b8c838d01611ac7565b909850965060408b0135955060608b0135945060808b0135915080821115611bec57600080fd5b600082601f830112611d4357600080fd5b813560206001600160401b03821115611d5e57611d5e61196e565b8160051b611d6d828201611984565b9283528481018201928281019087851115611d8757600080fd5b83870192505b8483101561100657823582529183019190830190611d8d565b600080600080600060a08688031215611dbe57600080fd5b8535611dc981611889565b94506020860135611dd981611889565b935060408601356001600160401b0380821115611df557600080fd5b611e0189838a01611d32565b94506060880135915080821115611e1757600080fd5b611e2389838a01611d32565b93506080880135915080821115611e3957600080fd5b50611e46888289016119b4565b9150509295509295909350565b60008060208385031215611e6657600080fd5b82356001600160401b03811115611e7c57600080fd5b611e8885828601611ac7565b90969095509350505050565b600080600080600060a08688031215611eac57600080fd5b8535611eb781611889565b94506020860135611ec781611889565b9350604086013592506060860135915060808601356001600160401b03811115611ef057600080fd5b611e46888289016119b4565b6020808252601f908201527f4e6f6e2d7369676e657220696e206f6e6c795369676e6572206d6574686f6400604082015260600190565b60005b83811015611f4e578181015183820152602001611f36565b50506000910152565b60008751611f69818460208c01611f33565b6bffffffffffffffffffffffff19606098891b8116919093019081526014810196909652509290941b909116603483015260488201526068810191909152608801919050565b81835260006001600160fb1b03831115611fc857600080fd5b8260051b80836020870137939093016020019392505050565b6001600160a01b03841681526040602082018190526000906120069083018486611faf565b95945050505050565b60008151808452612027816020860160208601611f33565b601f01601f19169290920160200192915050565b60c08152600061204e60c083018a61200f565b6001600160a01b03891660208401526040830188905282810360608401526120778187896117fd565b6080840195909552505060a0015295945050505050565b6001600160a01b038881168252878116602083015260408201879052851660608201526080810184905260c060a082018190526000906120d190830184866117fd565b9998505050505050505050565b8183823760009101908152919050565b634e487b7160e01b600052603260045260246000fd5b634e487b7160e01b600052601160045260246000fd5b60006001820161212c5761212c612104565b5060010190565b8082018082111561049157610491612104565b60a08152600061215960a083018a61200f565b8281036020848101919091528882528991810160005b8a81101561219d57833561218281611889565b6001600160a01b03168252928201929082019060010161216f565b5084810360408601526121b181898b611faf565b6060860197909752505050506080015295945050505050565b600060ff821660ff81036121e0576121e0612104565b60010192915050565b600082516121fb818460208701611f33565b6502d45524332360d41b920191825250600601919050565b60008251612225818460208701611f33565b9190910192915050565b60006020828403121561224157600080fd5b815161188281611c6b565b6000825161225e818460208701611f33565b6505a84c2e8c6d60d31b920191825250600601919050565b60ff81811683821601908111156104915761049161210456fea264697066735822122083f29cc1c37bd2f90dfe20f0ad0e8984645ddded1e88d9b169e12bbe3c653ade64736f6c63430008140033","linkReferences":{}},"methodIdentifiers":{"activateSafeMode()":"fc0f392d","batchFlushERC1155ForwarderTokens(address,address,uint256[])":"34f94047","flushERC1155ForwarderTokens(address,address,uint256)":"e6bd0aa4","flushERC721ForwarderTokens(address,address,uint256)":"5a953d0a","flushForwarderTokens(address,address)":"2da03409","getNextSequenceId()":"a0b7967b","init(address[])":"c6044c46","initialized()":"158ef93e","onERC1155BatchReceived(address,address,uint256[],uint256[],bytes)":"bc197c81","onERC1155Received(address,address,uint256,uint256,bytes)":"f23a6e61","onERC721Received(address,address,uint256,bytes)":"150b7a02","safeMode()":"abe3219c","sendMultiSig(address,uint256,bytes,uint256,uint256,bytes)":"39125215","sendMultiSigBatch(address[],uint256[],uint256,uint256,bytes)":"ad3ad709","sendMultiSigToken(address,uint256,address,uint256,uint256,bytes)":"0dcd7a6c","setAutoFlush1155(address,bool)":"92467776","setAutoFlush721(address,bool)":"c1378784","signers(address)":"736c0d5b","supportsInterface(bytes4)":"01ffc9a7"},"id":15}