{"abi":[{"type":"fallback","stateMutability":"payable"},{"type":"receive","stateMutability":"payable"},{"type":"function","name":"activateSafeMode","inputs":[],"outputs":[],"stateMutability":"nonpayable"},{"type":"function","name":"batchFlushERC1155ForwarderTokens","inputs":[{"name":"forwarderAddress","type":"address","internalType":"address payable"},{"name":"tokenContractAddress","type":"address","internalType":"address"},{"name":"tokenIds","type":"uint256[]","internalType":"uint256[]"}],"outputs":[],"stateMutability":"nonpayable"},{"type":"function","name":"flushERC1155ForwarderTokens","inputs":[{"name":"forwarderAddress","type":"address","internalType":"address payable"},{"name":"tokenContractAddress","type":"address","internalType":"address"},{"name":"tokenId","type":"uint256","internalType":"uint256"}],"outputs":[],"stateMutability":"nonpayable"},{"type":"function","name":"flushERC721ForwarderTokens","inputs":[{"name":"forwarderAddress","type":"address","internalType":"address payable"},{"name":"tokenContractAddress","type":"address","internalType":"address"},{"name":"tokenId","type":"uint256","internalType":"uint256"}],"outputs":[],"stateMutability":"nonpayable"},{"type":"function","name":"flushForwarderTokens","inputs":[{"name":"forwarderAddress","type":"address","internalType":"address payable"},{"name":"tokenContractAddress","type":"address","internalType":"address"}],"outputs":[],"stateMutability":"nonpayable"},{"type":"function","name":"getNextSequenceId","inputs":[],"outputs":[{"name":"","type":"uint256","internalType":"uint256"}],"stateMutability":"view"},{"type":"function","name":"init","inputs":[{"name":"allowedSigners","type":"address[]","internalType":"address[]"}],"outputs":[],"stateMutability":"nonpayable"},{"type":"function","name":"initialized","inputs":[],"outputs":[{"name":"","type":"bool","internalType":"bool"}],"stateMutability":"view"},{"type":"function","name":"onERC1155BatchReceived","inputs":[{"name":"_operator","type":"address","internalType":"address"},{"name":"_from","type":"address","internalType":"address"},{"name":"ids","type":"uint256[]","internalType":"uint256[]"},{"name":"values","type":"uint256[]","internalType":"uint256[]"},{"name":"data","type":"bytes","internalType":"bytes"}],"outputs":[{"name":"","type":"bytes4","internalType":"bytes4"}],"stateMutability":"nonpayable"},{"type":"function","name":"onERC1155Received","inputs":[{"name":"_operator","type":"address","internalType":"address"},{"name":"_from","type":"address","internalType":"address"},{"name":"id","type":"uint256","internalType":"uint256"},{"name":"value","type":"uint256","internalType":"uint256"},{"name":"data","type":"bytes","internalType":"bytes"}],"outputs":[{"name":"","type":"bytes4","internalType":"bytes4"}],"stateMutability":"nonpayable"},{"type":"function","name":"onERC721Received","inputs":[{"name":"_operator","type":"address","internalType":"address"},{"name":"_from","type":"address","internalType":"address"},{"name":"_tokenId","type":"uint256","internalType":"uint256"},{"name":"_data","type":"bytes","internalType":"bytes"}],"outputs":[{"name":"","type":"bytes4","internalType":"bytes4"}],"stateMutability":"nonpayable"},{"type":"function","name":"safeMode","inputs":[],"outputs":[{"name":"","type":"bool","internalType":"bool"}],"stateMutability":"view"},{"type":"function","name":"sendMultiSig","inputs":[{"name":"toAddress","type":"address","internalType":"address"},{"name":"value","type":"uint256","internalType":"uint256"},{"name":"data","type":"bytes","internalType":"bytes"},{"name":"expireTime","type":"uint256","internalType":"uint256"},{"name":"sequenceId","type":"uint256","internalType":"uint256"},{"name":"signature","type":"bytes","internalType":"bytes"}],"outputs":[],"stateMutability":"nonpayable"},{"type":"function","name":"sendMultiSigBatch","inputs":[{"name":"recipients","type":"address[]","internalType":"address[]"},{"name":"values","type":"uint256[]","internalType":"uint256[]"},{"name":"expireTime","type":"uint256","internalType":"uint256"},{"name":"sequenceId","type":"uint256","internalType":"uint256"},{"name":"signature","type":"bytes","internalType":"bytes"}],"outputs":[],"stateMutability":"nonpayable"},{"type":"function","name":"sendMultiSigToken","inputs":[{"name":"toAddress","type":"address","internalType":"address"},{"name":"value","type":"uint256","internalType":"uint256"},{"name":"tokenContractAddress","type":"address","internalType":"address"},{"name":"expireTime","type":"uint256","internalType":"uint256"},{"name":"sequenceId","type":"uint256","internalType":"uint256"},{"name":"signature","type":"bytes","internalType":"bytes"}],"outputs":[],"stateMutability":"nonpayable"},{"type":"function","name":"setAutoFlush1155","inputs":[{"name":"forwarderAddress","type":"address","internalType":"address"},{"name":"autoFlush","type":"bool","internalType":"bool"}],"outputs":[],"stateMutability":"nonpayable"},{"type":"function","name":"setAutoFlush721","inputs":[{"name":"forwarderAddress","type":"address","internalType":"address"},{"name":"autoFlush","type":"bool","internalType":"bool"}],"outputs":[],"stateMutability":"nonpayable"},{"type":"function","name":"signers","inputs":[{"name":"","type":"address","internalType":"address"}],"outputs":[{"name":"","type":"bool","internalType":"bool"}],"stateMutability":"view"},{"type":"function","name":"supportsInterface","inputs":[{"name":"interfaceId","type":"bytes4","internalType":"bytes4"}],"outputs":[{"name":"","type":"bool","internalType":"bool"}],"stateMutability":"view"},{"type":"event","name":"BatchTransacted","inputs":[{"name":"msgSender","type":"address","indexed":false,"internalType":"address"},{"name":"otherSigner","type":"address","indexed":false,"internalType":"address"},{"name":"operation","type":"bytes32","indexed":false,"internalType":"bytes32"}],"anonymous":false},{"type":"event","name":"BatchTransfer","inputs":[{"name":"sender","type":"address","indexed":false,"internalType":"address"},{"name":"recipient","type":"address","indexed":false,"internalType":"address"},{"name":"value","type":"uint256","indexed":false,"internalType":"uint256"}],"anonymous":false},{"type":"event","name":"Deposited","inputs":[{"name":"from","type":"address","indexed":false,"internalType":"address"},{"name":"value","type":"uint256","indexed":false,"internalType":"uint256"},{"name":"data","type":"bytes","indexed":false,"internalType":"bytes"}],"anonymous":false},{"type":"event","name":"SafeModeActivated","inputs":[{"name":"msgSender","type":"address","indexed":false,"internalType":"address"}],"anonymous":false},{"type":"event","name":"Transacted","inputs":[{"name":"msgSender","type":"address","indexed":false,"internalType":"address"},{"name":"otherSigner","type":"address","indexed":false,"internalType":"address"},{"name":"operation","type":"bytes32","indexed":false,"internalType":"bytes32"},{"name":"toAddress","type":"address","indexed":false,"internalType":"address"},{"name":"value","type":"uint256","indexed":false,"internalType":"uint256"},{"name":"data","type":"bytes","indexed":false,"internalType":"bytes"}],"anonymous":false}],"bytecode":{"object":"0x60806040526001805461ffff1916905534801561001b57600080fd5b5061210d8061002b6000396000f3fe6080604052600436106101185760003560e01c806392467776116100a0578063c137878411610064578063c1378784146103bf578063c6044c46146103df578063e6bd0aa4146103ff578063f23a6e611461041f578063fc0f392d1461044b57610172565b80639246777614610316578063a0b7967b14610336578063abe3219c14610359578063ad3ad70914610373578063bc197c811461039357610172565b80632da03409116100e75780632da034091461026657806334f940471461028657806339125215146102a65780635a953d0a146102c6578063736c0d5b146102e657610172565b806301ffc9a7146101ae5780630dcd7a6c146101e3578063150b7a0214610203578063158ef93e1461024757610172565b36610172573415610170576040805133815234602082015260609181018290526000918101919091527f6e89d517057028190560dd200cf6bf792842861353d1173761dfa362e1c133f0906080015b60405180910390a15b005b3415610170577f6e89d517057028190560dd200cf6bf792842861353d1173761dfa362e1c133f0333460003660405161016794939291906116c2565b3480156101ba57600080fd5b506101ce6101c93660046116f4565b610460565b60405190151581526020015b60405180910390f35b3480156101ef57600080fd5b506101706101fe366004611785565b610497565b34801561020f57600080fd5b5061022e61021e3660046118bf565b630a85bd0160e11b949350505050565b6040516001600160e01b031990911681526020016101da565b34801561025357600080fd5b506001546101ce90610100900460ff1681565b34801561027257600080fd5b5061017061028136600461192a565b610551565b34801561029257600080fd5b506101706102a13660046119a7565b6105e4565b3480156102b257600080fd5b506101706102c1366004611a0b565b61067e565b3480156102d257600080fd5b506101706102e1366004611aa9565b610811565b3480156102f257600080fd5b506101ce610301366004611aea565b60006020819052908152604090205460ff1681565b34801561032257600080fd5b50610170610331366004611b15565b6108a2565b34801561034257600080fd5b5061034b610901565b6040519081526020016101da565b34801561036557600080fd5b506001546101ce9060ff1681565b34801561037f57600080fd5b5061017061038e366004611b43565b610967565b34801561039f57600080fd5b5061022e6103ae366004611c42565b63bc197c8160e01b95945050505050565b3480156103cb57600080fd5b506101706103da366004611b15565b610b9f565b3480156103eb57600080fd5b506101706103fa366004611cef565b610bfe565b34801561040b57600080fd5b5061017061041a366004611aa9565b610da4565b34801561042b57600080fd5b5061022e61043a366004611d30565b63f23a6e6160e01b95945050505050565b34801561045757600080fd5b50610170610e0b565b60006001600160e01b03198216630271189760e51b148061049157506301ffc9a760e01b6001600160e01b03198316145b92915050565b3360009081526020819052604090205460ff166104cf5760405162461bcd60e51b81526004016104c690611d98565b60405180910390fd5b60006104fb60408051808201909152600d81526c0504f4c59474f4e2d455243323609c1b602082015290565b888888888860405160200161051596959493929190611df3565b60405160208183030381529060405280519060200120905061053b888285858989610e7b565b50610547868989611042565b5050505050505050565b3360009081526020819052604090205460ff166105805760405162461bcd60e51b81526004016104c690611d98565b604051633ef1336760e01b81526001600160a01b038281166004830152839190821690633ef13367906024015b600060405180830381600087803b1580156105c757600080fd5b505af11580156105db573d6000803e3d6000fd5b50505050505050565b3360009081526020819052604090205460ff166106135760405162461bcd60e51b81526004016104c690611d98565b6040516331a8b74960e21b815284906001600160a01b0382169063c6a2dd249061064590879087908790600401611e7d565b600060405180830381600087803b15801561065f57600080fd5b505af1158015610673573d6000803e3d6000fd5b505050505050505050565b3360009081526020819052604090205460ff166106ad5760405162461bcd60e51b81526004016104c690611d98565b60006106d36040805180820190915260078152662827a62ca3a7a760c91b602082015290565b8989898989896040516020016106ef9796959493929190611ed7565b60405160208183030381529060405280519060200120905060006107178a8386868a8a610e7b565b90507f59bed9ab5d78073465dd642a9e3e76dfdb7d53bcae9d09df7d0b8f5234d5a8063382848d8d8d8d6040516107549796959493929190611f2a565b60405180910390a160008a6001600160a01b03168a8a8a604051610779929190611f7a565b60006040518083038185875af1925050503d80600081146107b6576040519150601f19603f3d011682016040523d82523d6000602084013e6107bb565b606091505b50509050806108045760405162461bcd60e51b815260206004820152601560248201527410d85b1b08195e1958dd5d1a5bdb8819985a5b1959605a1b60448201526064016104c6565b5050505050505050505050565b3360009081526020819052604090205460ff166108405760405162461bcd60e51b81526004016104c690611d98565b60405163159e44d760e01b81526001600160a01b0383811660048301526024820183905284919082169063159e44d7906044015b600060405180830381600087803b15801561088e57600080fd5b505af1158015610547573d6000803e3d6000fd5b3360009081526020819052604090205460ff166108d15760405162461bcd60e51b81526004016104c690611d98565b60405163456600df60e11b8152811515600482015282906001600160a01b03821690638acc01be906024016105ad565b600080805b600a8110156109555781600282600a811061092357610923611f8a565b0154111561094357600281600a811061093e5761093e611f8a565b015491505b8061094d81611fb6565b915050610906565b50610961816001611fcf565b91505090565b3360009081526020819052604090205460ff166109965760405162461bcd60e51b81526004016104c690611d98565b60008790036109df5760405162461bcd60e51b81526020600482015260156024820152744e6f7420656e6f75676820726563697069656e747360581b60448201526064016104c6565b868514610a2e5760405162461bcd60e51b815260206004820152601d60248201527f556e657175616c20726563697069656e747320616e642076616c75657300000060448201526064016104c6565b6101008710610a7f5760405162461bcd60e51b815260206004820152601c60248201527f546f6f206d616e7920726563697069656e74732c206d6178203235350000000060448201526064016104c6565b6000610aab60408051808201909152600d81526c0a09e98b28e9e9c5a84c2e8c6d609b1b602082015290565b898989898989604051602001610ac79796959493929190611fe2565b60408051601f19818403018152919052805160209091012060015490915060ff1615610b2a5760405162461bcd60e51b8152602060048201526012602482015271426174636820696e2073616665206d6f646560701b60448201526064016104c6565b6000610b3b60008386868a8a610e7b565b604080513381526001600160a01b03831660208201529081018490529091507fe4c9047a729726b729cf4fa62c95ef9a434bbaf206a7ea0c7c77515db15840229060600160405180910390a1610b938a8a8a8a611173565b50505050505050505050565b3360009081526020819052604090205460ff16610bce5760405162461bcd60e51b81526004016104c690611d98565b60405163c59f9f1960e01b8152811515600482015282906001600160a01b0382169063c59f9f19906024016105ad565b600154610100900460ff1615610c565760405162461bcd60e51b815260206004820152601c60248201527f436f6e747261637420616c726561647920696e697469616c697a65640000000060448201526064016104c6565b60038114610ca65760405162461bcd60e51b815260206004820152601960248201527f496e76616c6964206e756d626572206f66207369676e6572730000000000000060448201526064016104c6565b60005b60ff8116821115610d90576000838360ff8416818110610ccb57610ccb611f8a565b9050602002016020810190610ce09190611aea565b6001600160a01b031603610d275760405162461bcd60e51b815260206004820152600e60248201526d24b73b30b634b21039b4b3b732b960911b60448201526064016104c6565b600160008085858560ff16818110610d4157610d41611f8a565b9050602002016020810190610d569190611aea565b6001600160a01b031681526020810191909152604001600020805460ff191691151591909117905580610d8881612066565b915050610ca9565b50506001805461ff00191661010017905550565b3360009081526020819052604090205460ff16610dd35760405162461bcd60e51b81526004016104c690611d98565b60405163225cb05f60e21b81526001600160a01b03838116600483015260248201839052849190821690638972c17c90604401610874565b3360009081526020819052604090205460ff16610e3a5760405162461bcd60e51b81526004016104c690611d98565b6001805460ff1916811790556040513381527f0909e8f76a4fd3e970f2eaef56c0ee6dfaf8b87c5b8d3f56ffce78e825a911579060200160405180910390a1565b600080610ebe8787878080601f01602080910402602001604051908101604052809392919081815260200183838082843760009201919091525061135592505050565b60015490915060ff161580610eeb57506001600160a01b03881660009081526020819052604090205460ff165b610f375760405162461bcd60e51b815260206004820152601e60248201527f45787465726e616c207472616e7366657220696e2073616665206d6f6465000060448201526064016104c6565b42841015610f7d5760405162461bcd60e51b8152602060048201526013602482015272151c985b9cd858dd1a5bdb88195e1c1a5c9959606a1b60448201526064016104c6565b610f86836114b4565b6001600160a01b03811660009081526020819052604090205460ff16610fdf5760405162461bcd60e51b815260206004820152600e60248201526d24b73b30b634b21039b4b3b732b960911b60448201526064016104c6565b336001600160a01b038216036110375760405162461bcd60e51b815260206004820152601760248201527f5369676e6572732063616e6e6f7420626520657175616c00000000000000000060448201526064016104c6565b979650505050505050565b604080516001600160a01b038481166024830152604480830185905283518084039091018152606490920183526020820180516001600160e01b031663a9059cbb60e01b179052915160009283929087169161109e9190612085565b6000604051808303816000865af19150503d80600081146110db576040519150601f19603f3d011682016040523d82523d6000602084013e6110e0565b606091505b509150915081801561110a57508051158061110a57508080602001905181019061110a91906120a1565b61116c5760405162461bcd60e51b815260206004820152602d60248201527f5472616e7366657248656c7065723a3a736166655472616e736665723a20747260448201526c185b9cd9995c8819985a5b1959609a1b60648201526084016104c6565b5050505050565b60005b8381101561116c5782828281811061119057611190611f8a565b905060200201354710156111db5760405162461bcd60e51b8152602060048201526012602482015271496e73756666696369656e742066756e647360701b60448201526064016104c6565b7fc42fa155158786a1dd6ccc3a785f35845467353c3cc700e0e31a79f90e22227d3386868481811061120f5761120f611f8a565b90506020020160208101906112249190611aea565b85858581811061123657611236611f8a565b9050602002013560405161126b939291906001600160a01b039384168152919092166020820152604081019190915260600190565b60405180910390a1600085858381811061128757611287611f8a565b905060200201602081019061129c9190611aea565b6001600160a01b03168484848181106112b7576112b7611f8a565b9050602002013560405160006040518083038185875af1925050503d80600081146112fe576040519150601f19603f3d011682016040523d82523d6000602084013e611303565b606091505b50509050806113425760405162461bcd60e51b815260206004820152600b60248201526a10d85b1b0819985a5b195960aa1b60448201526064016104c6565b508061134d81611fb6565b915050611176565b600081516041146113a85760405162461bcd60e51b815260206004820181905260248201527f496e76616c6964207369676e6174757265202d2077726f6e67206c656e67746860448201526064016104c6565b60208201516040830151604184015160ff16601b8110156113d1576113ce601b826120be565b90505b7f7fffffffffffffffffffffffffffffff5d576e7357a4501ddfe92f46681b20a082111561144c5760405162461bcd60e51b815260206004820152602260248201527f45434453413a20696e76616c6964207369676e6174757265202773272076616c604482015261756560f01b60648201526084016104c6565b60408051600081526020810180835288905260ff831691810191909152606081018490526080810183905260019060a0016020604051602081039080840390855afa15801561149f573d6000803e3d6000fd5b5050604051601f190151979650505050505050565b60408051610140810191829052600091829190600290600a9082845b8154815260200190600101908083116114d0575050505050905060005b600a8110156115a557838282600a811061150957611509611f8a565b60200201510361155b5760405162461bcd60e51b815260206004820152601860248201527f53657175656e636520494420616c72656164792075736564000000000000000060448201526064016104c6565b8183600a811061156d5761156d611f8a565b60200201518282600a811061158457611584611f8a565b60200201511015611593578092505b8061159d81611fb6565b9150506114ed565b508082600a81106115b8576115b8611f8a565b6020020151831161160b5760405162461bcd60e51b815260206004820152601860248201527f53657175656e63652049442062656c6f772077696e646f77000000000000000060448201526064016104c6565b6127108183600a811061162057611620611f8a565b602002015161162f9190611fcf565b83111561167e5760405162461bcd60e51b815260206004820152601960248201527f53657175656e63652049442061626f7665206d6178696d756d0000000000000060448201526064016104c6565b82600283600a811061169257611692611f8a565b0155505050565b81835281816020850137506000828201602090810191909152601f909101601f19169091010190565b60018060a01b03851681528360208201526060604082015260006116ea606083018486611699565b9695505050505050565b60006020828403121561170657600080fd5b81356001600160e01b03198116811461171e57600080fd5b9392505050565b6001600160a01b038116811461173a57600080fd5b50565b60008083601f84011261174f57600080fd5b5081356001600160401b0381111561176657600080fd5b60208301915083602082850101111561177e57600080fd5b9250929050565b600080600080600080600060c0888a0312156117a057600080fd5b87356117ab81611725565b96506020880135955060408801356117c281611725565b9450606088013593506080880135925060a08801356001600160401b038111156117eb57600080fd5b6117f78a828b0161173d565b989b979a50959850939692959293505050565b634e487b7160e01b600052604160045260246000fd5b604051601f8201601f191681016001600160401b03811182821017156118485761184861180a565b604052919050565b600082601f83011261186157600080fd5b81356001600160401b0381111561187a5761187a61180a565b61188d601f8201601f1916602001611820565b8181528460208386010111156118a257600080fd5b816020850160208301376000918101602001919091529392505050565b600080600080608085870312156118d557600080fd5b84356118e081611725565b935060208501356118f081611725565b92506040850135915060608501356001600160401b0381111561191257600080fd5b61191e87828801611850565b91505092959194509250565b6000806040838503121561193d57600080fd5b823561194881611725565b9150602083013561195881611725565b809150509250929050565b60008083601f84011261197557600080fd5b5081356001600160401b0381111561198c57600080fd5b6020830191508360208260051b850101111561177e57600080fd5b600080600080606085870312156119bd57600080fd5b84356119c881611725565b935060208501356119d881611725565b925060408501356001600160401b038111156119f357600080fd5b6119ff87828801611963565b95989497509550505050565b60008060008060008060008060c0898b031215611a2757600080fd5b8835611a3281611725565b97506020890135965060408901356001600160401b0380821115611a5557600080fd5b611a618c838d0161173d565b909850965060608b0135955060808b0135945060a08b0135915080821115611a8857600080fd5b50611a958b828c0161173d565b999c989b5096995094979396929594505050565b600080600060608486031215611abe57600080fd5b8335611ac981611725565b92506020840135611ad981611725565b929592945050506040919091013590565b600060208284031215611afc57600080fd5b813561171e81611725565b801515811461173a57600080fd5b60008060408385031215611b2857600080fd5b8235611b3381611725565b9150602083013561195881611b07565b60008060008060008060008060a0898b031215611b5f57600080fd5b88356001600160401b0380821115611b7657600080fd5b611b828c838d01611963565b909a50985060208b0135915080821115611b9b57600080fd5b611ba78c838d01611963565b909850965060408b0135955060608b0135945060808b0135915080821115611a8857600080fd5b600082601f830112611bdf57600080fd5b813560206001600160401b03821115611bfa57611bfa61180a565b8160051b611c09828201611820565b9283528481018201928281019087851115611c2357600080fd5b83870192505b8483101561103757823582529183019190830190611c29565b600080600080600060a08688031215611c5a57600080fd5b8535611c6581611725565b94506020860135611c7581611725565b935060408601356001600160401b0380821115611c9157600080fd5b611c9d89838a01611bce565b94506060880135915080821115611cb357600080fd5b611cbf89838a01611bce565b93506080880135915080821115611cd557600080fd5b50611ce288828901611850565b9150509295509295909350565b60008060208385031215611d0257600080fd5b82356001600160401b03811115611d1857600080fd5b611d2485828601611963565b90969095509350505050565b600080600080600060a08688031215611d4857600080fd5b8535611d5381611725565b94506020860135611d6381611725565b9350604086013592506060860135915060808601356001600160401b03811115611d8c57600080fd5b611ce288828901611850565b6020808252601f908201527f4e6f6e2d7369676e657220696e206f6e6c795369676e6572206d6574686f6400604082015260600190565b60005b83811015611dea578181015183820152602001611dd2565b50506000910152565b60008751611e05818460208c01611dcf565b6bffffffffffffffffffffffff19606098891b8116919093019081526014810196909652509290941b909116603483015260488201526068810191909152608801919050565b81835260006001600160fb1b03831115611e6457600080fd5b8260051b80836020870137939093016020019392505050565b6001600160a01b0384168152604060208201819052600090611ea29083018486611e4b565b95945050505050565b60008151808452611ec3816020860160208601611dcf565b601f01601f19169290920160200192915050565b60c081526000611eea60c083018a611eab565b6001600160a01b0389166020840152604083018890528281036060840152611f13818789611699565b6080840195909552505060a0015295945050505050565b6001600160a01b038881168252878116602083015260408201879052851660608201526080810184905260c060a08201819052600090611f6d9083018486611699565b9998505050505050505050565b8183823760009101908152919050565b634e487b7160e01b600052603260045260246000fd5b634e487b7160e01b600052601160045260246000fd5b600060018201611fc857611fc8611fa0565b5060010190565b8082018082111561049157610491611fa0565b60a081526000611ff560a083018a611eab565b8281036020848101919091528882528991810160005b8a81101561203957833561201e81611725565b6001600160a01b03168252928201929082019060010161200b565b50848103604086015261204d81898b611e4b565b6060860197909752505050506080015295945050505050565b600060ff821660ff810361207c5761207c611fa0565b60010192915050565b60008251612097818460208701611dcf565b9190910192915050565b6000602082840312156120b357600080fd5b815161171e81611b07565b60ff818116838216019081111561049157610491611fa056fea2646970667358221220161ff8808e8002b2203b9704230d6ec59d873d9f4a12654a3c0999cd4aad86bf64736f6c63430008140033","linkReferences":{}},"methodIdentifiers":{"activateSafeMode()":"fc0f392d","batchFlushERC1155ForwarderTokens(address,address,uint256[])":"34f94047","flushERC1155ForwarderTokens(address,address,uint256)":"e6bd0aa4","flushERC721ForwarderTokens(address,address,uint256)":"5a953d0a","flushForwarderTokens(address,address)":"2da03409","getNextSequenceId()":"a0b7967b","init(address[])":"c6044c46","initialized()":"158ef93e","onERC1155BatchReceived(address,address,uint256[],uint256[],bytes)":"bc197c81","onERC1155Received(address,address,uint256,uint256,bytes)":"f23a6e61","onERC721Received(address,address,uint256,bytes)":"150b7a02","safeMode()":"abe3219c","sendMultiSig(address,uint256,bytes,uint256,uint256,bytes)":"39125215","sendMultiSigBatch(address[],uint256[],uint256,uint256,bytes)":"ad3ad709","sendMultiSigToken(address,uint256,address,uint256,uint256,bytes)":"0dcd7a6c","setAutoFlush1155(address,bool)":"92467776","setAutoFlush721(address,bool)":"c1378784","signers(address)":"736c0d5b","supportsInterface(bytes4)":"01ffc9a7"},"id":16}