{"abi":[{"type":"receive","stateMutability":"payable"},{"type":"function","name":"batchFlushERC1155ForwarderTokens","inputs":[{"name":"forwarderAddress","type":"address","internalType":"address payable"},{"name":"tokenContractAddress","type":"address","internalType":"address"},{"name":"tokenIds","type":"uint256[]","internalType":"uint256[]"}],"outputs":[],"stateMutability":"nonpayable"},{"type":"function","name":"flushERC1155ForwarderTokens","inputs":[{"name":"forwarderAddress","type":"address","internalType":"address payable"},{"name":"tokenContractAddress","type":"address","internalType":"address"},{"name":"tokenId","type":"uint256","internalType":"uint256"}],"outputs":[],"stateMutability":"nonpayable"},{"type":"function","name":"flushERC721ForwarderTokens","inputs":[{"name":"forwarderAddress","type":"address","internalType":"address payable"},{"name":"tokenContractAddress","type":"address","internalType":"address"},{"name":"tokenId","type":"uint256","internalType":"uint256"}],"outputs":[],"stateMutability":"nonpayable"},{"type":"function","name":"flushForwarderTokens","inputs":[{"name":"forwarderAddress","type":"address","internalType":"address payable"},{"name":"tokenContractAddress","type":"address","internalType":"address"}],"outputs":[],"stateMutability":"nonpayable"},{"type":"function","name":"init","inputs":[{"name":"_signer","type":"address","internalType":"address"}],"outputs":[],"stateMutability":"nonpayable"},{"type":"function","name":"initialized","inputs":[],"outputs":[{"name":"","type":"bool","internalType":"bool"}],"stateMutability":"view"},{"type":"function","name":"onERC1155BatchReceived","inputs":[{"name":"_operator","type":"address","internalType":"address"},{"name":"_from","type":"address","internalType":"address"},{"name":"ids","type":"uint256[]","internalType":"uint256[]"},{"name":"values","type":"uint256[]","internalType":"uint256[]"},{"name":"data","type":"bytes","internalType":"bytes"}],"outputs":[{"name":"","type":"bytes4","internalType":"bytes4"}],"stateMutability":"nonpayable"},{"type":"function","name":"onERC1155Received","inputs":[{"name":"_operator","type":"address","internalType":"address"},{"name":"_from","type":"address","internalType":"address"},{"name":"id","type":"uint256","internalType":"uint256"},{"name":"value","type":"uint256","internalType":"uint256"},{"name":"data","type":"bytes","internalType":"bytes"}],"outputs":[{"name":"","type":"bytes4","internalType":"bytes4"}],"stateMutability":"nonpayable"},{"type":"function","name":"onERC721Received","inputs":[{"name":"_operator","type":"address","internalType":"address"},{"name":"_from","type":"address","internalType":"address"},{"name":"_tokenId","type":"uint256","internalType":"uint256"},{"name":"_data","type":"bytes","internalType":"bytes"}],"outputs":[{"name":"","type":"bytes4","internalType":"bytes4"}],"stateMutability":"nonpayable"},{"type":"function","name":"sendFunds","inputs":[{"name":"toAddress","type":"address","internalType":"address"},{"name":"value","type":"uint256","internalType":"uint256"},{"name":"data","type":"bytes","internalType":"bytes"}],"outputs":[],"stateMutability":"nonpayable"},{"type":"function","name":"setAutoFlush1155","inputs":[{"name":"forwarderAddress","type":"address","internalType":"address"},{"name":"autoFlush","type":"bool","internalType":"bool"}],"outputs":[],"stateMutability":"nonpayable"},{"type":"function","name":"setAutoFlush721","inputs":[{"name":"forwarderAddress","type":"address","internalType":"address"},{"name":"autoFlush","type":"bool","internalType":"bool"}],"outputs":[],"stateMutability":"nonpayable"},{"type":"function","name":"signer","inputs":[],"outputs":[{"name":"","type":"address","internalType":"address"}],"stateMutability":"view"},{"type":"function","name":"supportsInterface","inputs":[{"name":"interfaceId","type":"bytes4","internalType":"bytes4"}],"outputs":[{"name":"","type":"bool","internalType":"bool"}],"stateMutability":"view"}],"bytecode":{"object":"0x60806040526000805460ff60a01b1916905534801561001d57600080fd5b50610c798061002d6000396000f3fe6080604052600436106100e15760003560e01c806334f940471161007f578063bc197c8111610059578063bc197c8114610281578063c1378784146102ad578063e6bd0aa4146102cd578063f23a6e61146102ed57600080fd5b806334f94047146102215780635a953d0a14610241578063924677761461026157600080fd5b806319ab453c116100bb57806319ab453c14610187578063238ac933146101a95780632da03409146101e15780632e7e33df1461020157600080fd5b806301ffc9a7146100ed578063150b7a0214610122578063158ef93e1461016657600080fd5b366100e857005b600080fd5b3480156100f957600080fd5b5061010d6101083660046106d6565b610319565b60405190151581526020015b60405180910390f35b34801561012e57600080fd5b5061014d61013d3660046107d6565b630a85bd0160e11b949350505050565b6040516001600160e01b03199091168152602001610119565b34801561017257600080fd5b5060005461010d90600160a01b900460ff1681565b34801561019357600080fd5b506101a76101a2366004610842565b610350565b005b3480156101b557600080fd5b506000546101c9906001600160a01b031681565b6040516001600160a01b039091168152602001610119565b3480156101ed57600080fd5b506101a76101fc36600461085f565b6103d6565b34801561020d57600080fd5b506101a761021c366004610898565b61043a565b34801561022d57600080fd5b506101a761023c366004610921565b610513565b34801561024d57600080fd5b506101a761025c3660046109a7565b61057e565b34801561026d57600080fd5b506101a761027c3660046109e8565b6105ea565b34801561028d57600080fd5b5061014d61029c366004610a9b565b63bc197c8160e01b95945050505050565b3480156102b957600080fd5b506101a76102c83660046109e8565b610644565b3480156102d957600080fd5b506101a76102e83660046109a7565b61069e565b3480156102f957600080fd5b5061014d610308366004610b49565b63f23a6e6160e01b95945050505050565b60006001600160e01b03198216630271189760e51b148061034a57506301ffc9a760e01b6001600160e01b03198316145b92915050565b600054600160a01b900460ff16156103af5760405162461bcd60e51b815260206004820152601c60248201527f436f6e747261637420616c726561647920696e697469616c697a65640000000060448201526064015b60405180910390fd5b600080546001600160a81b0319166001600160a01b0390921691909117600160a01b179055565b604051633ef1336760e01b81526001600160a01b038281166004830152839190821690633ef13367906024015b600060405180830381600087803b15801561041d57600080fd5b505af1158015610431573d6000803e3d6000fd5b50505050505050565b6000546001600160a01b031633146104645760405162461bcd60e51b81526004016103a690610bb2565b6000846001600160a01b0316848484604051610481929190610be9565b60006040518083038185875af1925050503d80600081146104be576040519150601f19603f3d011682016040523d82523d6000602084013e6104c3565b606091505b505090508061050c5760405162461bcd60e51b815260206004820152601560248201527410d85b1b08195e1958dd5d1a5bdb8819985a5b1959605a1b60448201526064016103a6565b5050505050565b6040516331a8b74960e21b815284906001600160a01b0382169063c6a2dd249061054590879087908790600401610bf9565b600060405180830381600087803b15801561055f57600080fd5b505af1158015610573573d6000803e3d6000fd5b505050505050505050565b60405163159e44d760e01b81526001600160a01b0383811660048301526024820183905284919082169063159e44d7906044015b600060405180830381600087803b1580156105cc57600080fd5b505af11580156105e0573d6000803e3d6000fd5b5050505050505050565b6000546001600160a01b031633146106145760405162461bcd60e51b81526004016103a690610bb2565b60405163456600df60e11b8152811515600482015282906001600160a01b03821690638acc01be90602401610403565b6000546001600160a01b0316331461066e5760405162461bcd60e51b81526004016103a690610bb2565b60405163c59f9f1960e01b8152811515600482015282906001600160a01b0382169063c59f9f1990602401610403565b60405163225cb05f60e21b81526001600160a01b03838116600483015260248201839052849190821690638972c17c906044016105b2565b6000602082840312156106e857600080fd5b81356001600160e01b03198116811461070057600080fd5b9392505050565b6001600160a01b038116811461071c57600080fd5b50565b634e487b7160e01b600052604160045260246000fd5b604051601f8201601f1916810167ffffffffffffffff8111828210171561075e5761075e61071f565b604052919050565b600082601f83011261077757600080fd5b813567ffffffffffffffff8111156107915761079161071f565b6107a4601f8201601f1916602001610735565b8181528460208386010111156107b957600080fd5b816020850160208301376000918101602001919091529392505050565b600080600080608085870312156107ec57600080fd5b84356107f781610707565b9350602085013561080781610707565b925060408501359150606085013567ffffffffffffffff81111561082a57600080fd5b61083687828801610766565b91505092959194509250565b60006020828403121561085457600080fd5b813561070081610707565b6000806040838503121561087257600080fd5b823561087d81610707565b9150602083013561088d81610707565b809150509250929050565b600080600080606085870312156108ae57600080fd5b84356108b981610707565b935060208501359250604085013567ffffffffffffffff808211156108dd57600080fd5b818701915087601f8301126108f157600080fd5b81358181111561090057600080fd5b88602082850101111561091257600080fd5b95989497505060200194505050565b6000806000806060858703121561093757600080fd5b843561094281610707565b9350602085013561095281610707565b9250604085013567ffffffffffffffff8082111561096f57600080fd5b818701915087601f83011261098357600080fd5b81358181111561099257600080fd5b8860208260051b850101111561091257600080fd5b6000806000606084860312156109bc57600080fd5b83356109c781610707565b925060208401356109d781610707565b929592945050506040919091013590565b600080604083850312156109fb57600080fd5b8235610a0681610707565b91506020830135801515811461088d57600080fd5b600082601f830112610a2c57600080fd5b8135602067ffffffffffffffff821115610a4857610a4861071f565b8160051b610a57828201610735565b9283528481018201928281019087851115610a7157600080fd5b83870192505b84831015610a9057823582529183019190830190610a77565b979650505050505050565b600080600080600060a08688031215610ab357600080fd5b8535610abe81610707565b94506020860135610ace81610707565b9350604086013567ffffffffffffffff80821115610aeb57600080fd5b610af789838a01610a1b565b94506060880135915080821115610b0d57600080fd5b610b1989838a01610a1b565b93506080880135915080821115610b2f57600080fd5b50610b3c88828901610766565b9150509295509295909350565b600080600080600060a08688031215610b6157600080fd5b8535610b6c81610707565b94506020860135610b7c81610707565b93506040860135925060608601359150608086013567ffffffffffffffff811115610ba657600080fd5b610b3c88828901610766565b6020808252601f908201527f4e6f6e2d7369676e657220696e206f6e6c795369676e6572206d6574686f6400604082015260600190565b8183823760009101908152919050565b6001600160a01b0384168152604060208201819052810182905260006001600160fb1b03831115610c2957600080fd5b8260051b808560608501379190910160600194935050505056fea264697066735822122034c244e2779cb5a29fb719362c91a70932ca58e9f22f824f0e49ffa903154af264736f6c63430008140033","linkReferences":{}},"methodIdentifiers":{"batchFlushERC1155ForwarderTokens(address,address,uint256[])":"34f94047","flushERC1155ForwarderTokens(address,address,uint256)":"e6bd0aa4","flushERC721ForwarderTokens(address,address,uint256)":"5a953d0a","flushForwarderTokens(address,address)":"2da03409","init(address)":"19ab453c","initialized()":"158ef93e","onERC1155BatchReceived(address,address,uint256[],uint256[],bytes)":"bc197c81","onERC1155Received(address,address,uint256,uint256,bytes)":"f23a6e61","onERC721Received(address,address,uint256,bytes)":"150b7a02","sendFunds(address,uint256,bytes)":"2e7e33df","setAutoFlush1155(address,bool)":"92467776","setAutoFlush721(address,bool)":"c1378784","signer()":"238ac933","supportsInterface(bytes4)":"01ffc9a7"},"id":3}