{"abi":[{"type":"constructor","inputs":[{"name":"_implementationAddress","type":"address","internalType":"address"}],"stateMutability":"nonpayable"},{"type":"function","name":"createForwarder","inputs":[{"name":"parent","type":"address","internalType":"address"},{"name":"salt","type":"bytes32","internalType":"bytes32"},{"name":"shouldAutoFlushERC721","type":"bool","internalType":"bool"},{"name":"shouldAutoFlushERC1155","type":"bool","internalType":"bool"}],"outputs":[],"stateMutability":"nonpayable"},{"type":"function","name":"createForwarder","inputs":[{"name":"parent","type":"address","internalType":"address"},{"name":"salt","type":"bytes32","internalType":"bytes32"}],"outputs":[],"stateMutability":"nonpayable"},{"type":"function","name":"implementationAddress","inputs":[],"outputs":[{"name":"","type":"address","internalType":"address"}],"stateMutability":"view"},{"type":"event","name":"ForwarderCreated","inputs":[{"name":"newForwarderAddress","type":"address","indexed":false,"internalType":"address"},{"name":"parentAddress","type":"address","indexed":false,"internalType":"address"},{"name":"shouldAutoFlushERC721","type":"bool","indexed":false,"internalType":"bool"},{"name":"shouldAutoFlushERC1155","type":"bool","indexed":false,"internalType":"bool"}],"anonymous":false}],"bytecode":{"object":"0x60a060405234801561001057600080fd5b5060405161041738038061041783398101604081905261002f91610040565b6001600160a01b0316608052610070565b60006020828403121561005257600080fd5b81516001600160a01b038116811461006957600080fd5b9392505050565b608051610387610090600039600081816060015260f901526103876000f3fe608060405234801561001057600080fd5b50600436106100415760003560e01c806353d1d15b14610046578063b97a23191461005b578063fb90b3201461009e575b600080fd5b6100596100543660046102da565b6100b1565b005b6100827f000000000000000000000000000000000000000000000000000000000000000081565b6040516001600160a01b03909116815260200160405180910390f35b6100596100ac366004610327565b6101e8565b6040516bffffffffffffffffffffffff19606086901b16602082015260348101849052600090605401604051602081830303815290604052805190602001209050600061011e7f00000000000000000000000000000000000000000000000000000000000000008361025a565b604080516001600160a01b0383811682528916602082015286151581830152851515606082015290519192507f578127cafa5519b683652dd5cc5e510630a5c262d8c6e180716105e39dc039fb919081900360800190a1604051635f71f33b60e11b81526001600160a01b0387811660048301528515156024830152841515604483015282169063bee3e67690606401600060405180830381600087803b1580156101c857600080fd5b505af11580156101dc573d6000803e3d6000fd5b50505050505050505050565b6040516353d1d15b60e01b81526001600160a01b038316600482015260248101829052600160448201819052606482015230906353d1d15b90608401600060405180830381600087803b15801561023e57600080fd5b505af1158015610252573d6000803e3d6000fd5b505050505050565b6000808360601b9050604051733d602d80600a3d3981f3363d3d373d3d3d363d7360601b81528160148201526e5af43d82803e903d91602b57fd5bf360881b6028820152836037826000f595945050505050565b80356001600160a01b03811681146102c557600080fd5b919050565b803580151581146102c557600080fd5b600080600080608085870312156102f057600080fd5b6102f9856102ae565b93506020850135925061030e604086016102ca565b915061031c606086016102ca565b905092959194509250565b6000806040838503121561033a57600080fd5b610343836102ae565b94602093909301359350505056fea26469706673582212200622efe5b533cd2a33e7e0df1c75477a1aee788cbd1c2d4aa96993ee718a9b0364736f6c63430008140033","linkReferences":{}},"methodIdentifiers":{"createForwarder(address,bytes32)":"fb90b320","createForwarder(address,bytes32,bool,bool)":"53d1d15b","implementationAddress()":"b97a2319"},"id":4}