{"abi":[{"type":"constructor","inputs":[{"name":"name_","type":"string","internalType":"string"},{"name":"symbol_","type":"string","internalType":"string"}],"stateMutability":"nonpayable"},{"type":"function","name":"approve","inputs":[{"name":"to","type":"address","internalType":"address"},{"name":"tokenId","type":"uint256","internalType":"uint256"}],"outputs":[],"stateMutability":"nonpayable"},{"type":"function","name":"balanceOf","inputs":[{"name":"owner","type":"address","internalType":"address"}],"outputs":[{"name":"","type":"uint256","internalType":"uint256"}],"stateMutability":"view"},{"type":"function","name":"getApproved","inputs":[{"name":"tokenId","type":"uint256","internalType":"uint256"}],"outputs":[{"name":"","type":"address","internalType":"address"}],"stateMutability":"view"},{"type":"function","name":"isApprovedForAll","inputs":[{"name":"owner","type":"address","internalType":"address"},{"name":"operator","type":"address","internalType":"address"}],"outputs":[{"name":"","type":"bool","internalType":"bool"}],"stateMutability":"view"},{"type":"function","name":"mint","inputs":[{"name":"_to","type":"address","internalType":"address"},{"name":"_tokenId","type":"uint256","internalType":"uint256"}],"outputs":[],"stateMutability":"nonpayable"},{"type":"function","name":"name","inputs":[],"outputs":[{"name":"","type":"string","internalType":"string"}],"stateMutability":"view"},{"type":"function","name":"ownerOf","inputs":[{"name":"tokenId","type":"uint256","internalType":"uint256"}],"outputs":[{"name":"","type":"address","internalType":"address"}],"stateMutability":"view"},{"type":"function","name":"safeTransferFrom","inputs":[{"name":"from","type":"address","internalType":"address"},{"name":"to","type":"address","internalType":"address"},{"name":"tokenId","type":"uint256","internalType":"uint256"}],"outputs":[],"stateMutability":"nonpayable"},{"type":"function","name":"safeTransferFrom","inputs":[{"name":"from","type":"address","internalType":"address"},{"name":"to","type":"address","internalType":"address"},{"name":"tokenId","type":"uint256","internalType":"uint256"},{"name":"data","type":"bytes","internalType":"bytes"}],"outputs":[],"stateMutability":"nonpayable"},{"type":"function","name":"setApprovalForAll","inputs":[{"name":"operator","type":"address","internalType":"address"},{"name":"approved","type":"bool","internalType":"bool"}],"outputs":[],"stateMutability":"nonpayable"},{"type":"function","name":"supportsInterface","inputs":[{"name":"interfaceId","type":"bytes4","internalType":"bytes4"}],"outputs":[{"name":"","type":"bool","internalType":"bool"}],"stateMutability":"view"},{"type":"function","name":"symbol","inputs":[],"outputs":[{"name":"","type":"string","internalType":"string"}],"stateMutability":"view"},{"type":"function","name":"tokenURI","inputs":[{"name":"tokenId","type":"uint256","internalType":"uint256"}],"outputs":[{"name":"","type":"string","internalType":"string"}],"stateMutability":"view"},{"type":"function","name":"transferFrom","inputs":[{"name":"from","type":"address","internalType":"address"},{"name":"to","type":"address","internalType":"address"},{"name":"tokenId","type":"uint256","internalType":"uint256"}],"outputs":[],"stateMutability":"nonpayable"},{"type":"event","name":"Approval","inputs":[{"name":"owner","type":"address","indexed":true,"internalType":"address"},{"name":"approved","type":"address","indexed":true,"internalType":"address"},{"name":"tokenId","type":"uint256","indexed":true,"internalType":"uint256"}],"anonymous":false},{"type":"event","name":"ApprovalForAll","inputs":[{"name":"owner","type":"address","indexed":true,"internalType":"address"},{"name":"operator","type":"address","indexed":true,"internalType":"address"},{"name":"approved","type":"bool","indexed":false,"internalType":"bool"}],"anonymous":false},{"type":"event","name":"Transfer","inputs":[{"name":"from","type":"address","indexed":true,"internalType":"address"},{"name":"to","type":"address","indexed":true,"internalType":"address"},{"name":"tokenId","type":"uint256","indexed":true,"internalType":"uint256"}],"anonymous":false},{"type":"error","name":"ERC721IncorrectOwner","inputs":[{"name":"sender","type":"address","internalType":"address"},{"name":"tokenId","type":"uint256","internalType":"uint256"},{"name":"owner","type":"address","internalType":"address"}]},{"type":"error","name":"ERC721InsufficientApproval","inputs":[{"name":"operator","type":"address","internalType":"address"},{"name":"tokenId","type":"uint256","internalType":"uint256"}]},{"type":"error","name":"ERC721InvalidApprover","inputs":[{"name":"approver","type":"address","internalType":"address"}]},{"type":"error","name":"ERC721InvalidOperator","inputs":[{"name":"operator","type":"address","internalType":"address"}]},{"type":"error","name":"ERC721InvalidOwner","inputs":[{"name":"owner","type":"address","internalType":"address"}]},{"type":"error","name":"ERC721InvalidReceiver","inputs":[{"name":"receiver","type":"address","internalType":"address"}]},{"type":"error","name":"ERC721InvalidSender","inputs":[{"name":"sender","type":"address","internalType":"address"}]},{"type":"error","name":"ERC721NonexistentToken","inputs":[{"name":"tokenId","type":"uint256","internalType":"uint256"}]}],"bytecode":{"object":"0x60806040523480156200001157600080fd5b50604051620012a3380380620012a3833981016040819052620000349162000123565b818160006200004483826200021c565b5060016200005382826200021c565b5050505050620002e8565b634e487b7160e01b600052604160045260246000fd5b600082601f8301126200008657600080fd5b81516001600160401b0380821115620000a357620000a36200005e565b604051601f8301601f19908116603f01168101908282118183101715620000ce57620000ce6200005e565b81604052838152602092508683858801011115620000eb57600080fd5b600091505b838210156200010f5785820183015181830184015290820190620000f0565b600093810190920192909252949350505050565b600080604083850312156200013757600080fd5b82516001600160401b03808211156200014f57600080fd5b6200015d8683870162000074565b935060208501519150808211156200017457600080fd5b50620001838582860162000074565b9150509250929050565b600181811c90821680620001a257607f821691505b602082108103620001c357634e487b7160e01b600052602260045260246000fd5b50919050565b601f8211156200021757600081815260208120601f850160051c81016020861015620001f25750805b601f850160051c820191505b818110156200021357828155600101620001fe565b5050505b505050565b81516001600160401b038111156200023857620002386200005e565b62000250816200024984546200018d565b84620001c9565b602080601f8311600181146200028857600084156200026f5750858301515b600019600386901b1c1916600185901b17855562000213565b600085815260208120601f198616915b82811015620002b95788860151825594840194600190910190840162000298565b5085821015620002d85787850151600019600388901b60f8161c191681555b5050505050600190811b01905550565b610fab80620002f86000396000f3fe608060405234801561001057600080fd5b50600436106100ea5760003560e01c80636352211e1161008c578063a22cb46511610066578063a22cb465146101e1578063b88d4fde146101f4578063c87b56dd14610207578063e985e9c51461021a57600080fd5b80636352211e146101a557806370a08231146101b857806395d89b41146101d957600080fd5b8063095ea7b3116100c8578063095ea7b31461015757806323b872dd1461016c57806340c10f191461017f57806342842e0e1461019257600080fd5b806301ffc9a7146100ef57806306fdde0314610117578063081812fc1461012c575b600080fd5b6101026100fd366004610c1b565b61022d565b60405190151581526020015b60405180910390f35b61011f61027f565b60405161010e9190610c88565b61013f61013a366004610c9b565b610311565b6040516001600160a01b03909116815260200161010e565b61016a610165366004610cd0565b61033a565b005b61016a61017a366004610cfa565b610349565b61016a61018d366004610cd0565b6103d9565b61016a6101a0366004610cfa565b6103e3565b61013f6101b3366004610c9b565b610403565b6101cb6101c6366004610d36565b61040e565b60405190815260200161010e565b61011f610456565b61016a6101ef366004610d51565b610465565b61016a610202366004610da3565b610470565b61011f610215366004610c9b565b610487565b610102610228366004610e7f565b6104fc565b60006001600160e01b031982166380ac58cd60e01b148061025e57506001600160e01b03198216635b5e139f60e01b145b8061027957506301ffc9a760e01b6001600160e01b03198316145b92915050565b60606000805461028e90610eb2565b80601f01602080910402602001604051908101604052809291908181526020018280546102ba90610eb2565b80156103075780601f106102dc57610100808354040283529160200191610307565b820191906000526020600020905b8154815290600101906020018083116102ea57829003601f168201915b5050505050905090565b600061031c8261052a565b506000828152600460205260409020546001600160a01b0316610279565b610345828233610563565b5050565b6001600160a01b03821661037857604051633250574960e11b8152600060048201526024015b60405180910390fd5b6000610385838333610570565b9050836001600160a01b0316816001600160a01b0316146103d3576040516364283d7b60e01b81526001600160a01b038086166004830152602482018490528216604482015260640161036f565b50505050565b6103458282610669565b6103fe83838360405180602001604052806000815250610470565b505050565b60006102798261052a565b60006001600160a01b03821661043a576040516322718ad960e21b81526000600482015260240161036f565b506001600160a01b031660009081526003602052604090205490565b60606001805461028e90610eb2565b610345338383610683565b61047b848484610349565b6103d384848484610722565b60606104928261052a565b5060006104aa60408051602081019091526000815290565b905060008151116104ca57604051806020016040528060008152506104f5565b806104d48461084b565b6040516020016104e5929190610eec565b6040516020818303038152906040525b9392505050565b6001600160a01b03918216600090815260056020908152604080832093909416825291909152205460ff1690565b6000818152600260205260408120546001600160a01b03168061027957604051637e27328960e01b81526004810184905260240161036f565b6103fe83838360016108de565b6000828152600260205260408120546001600160a01b039081169083161561059d5761059d8184866109e4565b6001600160a01b038116156105db576105ba6000856000806108de565b6001600160a01b038116600090815260036020526040902080546000190190555b6001600160a01b0385161561060a576001600160a01b0385166000908152600360205260409020805460010190555b60008481526002602052604080822080546001600160a01b0319166001600160a01b0389811691821790925591518793918516917fddf252ad1be2c89b69c2b068fc378daa952ba7f163c4a11628f55a4df523b3ef91a4949350505050565b610345828260405180602001604052806000815250610a48565b6001600160a01b0382166106b557604051630b61174360e31b81526001600160a01b038316600482015260240161036f565b6001600160a01b03838116600081815260056020908152604080832094871680845294825291829020805460ff191686151590811790915591519182527f17307eab39ab6107e8899845ad3d59bd9653f200f220920489ca2b5937696c31910160405180910390a3505050565b6001600160a01b0383163b156103d357604051630a85bd0160e11b81526001600160a01b0384169063150b7a0290610764903390889087908790600401610f1b565b6020604051808303816000875af192505050801561079f575060408051601f3d908101601f1916820190925261079c91810190610f58565b60015b610808573d8080156107cd576040519150601f19603f3d011682016040523d82523d6000602084013e6107d2565b606091505b50805160000361080057604051633250574960e11b81526001600160a01b038516600482015260240161036f565b805181602001fd5b6001600160e01b03198116630a85bd0160e11b1461084457604051633250574960e11b81526001600160a01b038516600482015260240161036f565b5050505050565b6060600061085883610a5f565b600101905060008167ffffffffffffffff81111561087857610878610d8d565b6040519080825280601f01601f1916602001820160405280156108a2576020820181803683370190505b5090508181016020015b600019016f181899199a1a9b1b9c1cb0b131b232b360811b600a86061a8153600a85049450846108ac57509392505050565b80806108f257506001600160a01b03821615155b156109b45760006109028461052a565b90506001600160a01b0383161580159061092e5750826001600160a01b0316816001600160a01b031614155b8015610941575061093f81846104fc565b155b1561096a5760405163a9fbf51f60e01b81526001600160a01b038416600482015260240161036f565b81156109b25783856001600160a01b0316826001600160a01b03167f8c5be1e5ebec7d5bd14f71427d1e84f3dd0314c0f7b2291e5b200ac8c7c3b92560405160405180910390a45b505b5050600090815260046020526040902080546001600160a01b0319166001600160a01b0392909216919091179055565b6109ef838383610b37565b6103fe576001600160a01b038316610a1d57604051637e27328960e01b81526004810182905260240161036f565b60405163177e802f60e01b81526001600160a01b03831660048201526024810182905260440161036f565b610a528383610b9d565b6103fe6000848484610722565b60008072184f03e93ff9f4daa797ed6e38ed64bf6a1f0160401b8310610a9e5772184f03e93ff9f4daa797ed6e38ed64bf6a1f0160401b830492506040015b6d04ee2d6d415b85acef81000000008310610aca576d04ee2d6d415b85acef8100000000830492506020015b662386f26fc100008310610ae857662386f26fc10000830492506010015b6305f5e1008310610b00576305f5e100830492506008015b6127108310610b1457612710830492506004015b60648310610b26576064830492506002015b600a83106102795760010192915050565b60006001600160a01b03831615801590610b955750826001600160a01b0316846001600160a01b03161480610b715750610b7184846104fc565b80610b9557506000828152600460205260409020546001600160a01b038481169116145b949350505050565b6001600160a01b038216610bc757604051633250574960e11b81526000600482015260240161036f565b6000610bd583836000610570565b90506001600160a01b038116156103fe576040516339e3563760e11b81526000600482015260240161036f565b6001600160e01b031981168114610c1857600080fd5b50565b600060208284031215610c2d57600080fd5b81356104f581610c02565b60005b83811015610c53578181015183820152602001610c3b565b50506000910152565b60008151808452610c74816020860160208601610c38565b601f01601f19169290920160200192915050565b6020815260006104f56020830184610c5c565b600060208284031215610cad57600080fd5b5035919050565b80356001600160a01b0381168114610ccb57600080fd5b919050565b60008060408385031215610ce357600080fd5b610cec83610cb4565b946020939093013593505050565b600080600060608486031215610d0f57600080fd5b610d1884610cb4565b9250610d2660208501610cb4565b9150604084013590509250925092565b600060208284031215610d4857600080fd5b6104f582610cb4565b60008060408385031215610d6457600080fd5b610d6d83610cb4565b915060208301358015158114610d8257600080fd5b809150509250929050565b634e487b7160e01b600052604160045260246000fd5b60008060008060808587031215610db957600080fd5b610dc285610cb4565b9350610dd060208601610cb4565b925060408501359150606085013567ffffffffffffffff80821115610df457600080fd5b818701915087601f830112610e0857600080fd5b813581811115610e1a57610e1a610d8d565b604051601f8201601f19908116603f01168101908382118183101715610e4257610e42610d8d565b816040528281528a6020848701011115610e5b57600080fd5b82602086016020830137600060208483010152809550505050505092959194509250565b60008060408385031215610e9257600080fd5b610e9b83610cb4565b9150610ea960208401610cb4565b90509250929050565b600181811c90821680610ec657607f821691505b602082108103610ee657634e487b7160e01b600052602260045260246000fd5b50919050565b60008351610efe818460208801610c38565b835190830190610f12818360208801610c38565b01949350505050565b6001600160a01b0385811682528416602082015260408101839052608060608201819052600090610f4e90830184610c5c565b9695505050505050565b600060208284031215610f6a57600080fd5b81516104f581610c0256fea2646970667358221220917b9bfac3a0a52e314afe95512c2bd1aa45e4948e6da2c9e5fc36fa61d808e164736f6c63430008140033","linkReferences":{}},"methodIdentifiers":{"approve(address,uint256)":"095ea7b3","balanceOf(address)":"70a08231","getApproved(uint256)":"081812fc","isApprovedForAll(address,address)":"e985e9c5","mint(address,uint256)":"40c10f19","name()":"06fdde03","ownerOf(uint256)":"6352211e","safeTransferFrom(address,address,uint256)":"42842e0e","safeTransferFrom(address,address,uint256,bytes)":"b88d4fde","setApprovalForAll(address,bool)":"a22cb465","supportsInterface(bytes4)":"01ffc9a7","symbol()":"95d89b41","tokenURI(uint256)":"c87b56dd","transferFrom(address,address,uint256)":"23b872dd"},"id":17}