{"abi":[{"type":"constructor","inputs":[],"stateMutability":"nonpayable"},{"type":"function","name":"balanceOf","inputs":[{"name":"account","type":"address","internalType":"address"},{"name":"id","type":"uint256","internalType":"uint256"}],"outputs":[{"name":"","type":"uint256","internalType":"uint256"}],"stateMutability":"view"},{"type":"function","name":"balanceOfBatch","inputs":[{"name":"accounts","type":"address[]","internalType":"address[]"},{"name":"ids","type":"uint256[]","internalType":"uint256[]"}],"outputs":[{"name":"","type":"uint256[]","internalType":"uint256[]"}],"stateMutability":"view"},{"type":"function","name":"isApprovedForAll","inputs":[{"name":"account","type":"address","internalType":"address"},{"name":"operator","type":"address","internalType":"address"}],"outputs":[{"name":"","type":"bool","internalType":"bool"}],"stateMutability":"view"},{"type":"function","name":"mint","inputs":[{"name":"account","type":"address","internalType":"address"},{"name":"id","type":"uint256","internalType":"uint256"},{"name":"amount","type":"uint256","internalType":"uint256"},{"name":"data","type":"bytes","internalType":"bytes"}],"outputs":[],"stateMutability":"nonpayable"},{"type":"function","name":"mintBatch","inputs":[{"name":"to","type":"address","internalType":"address"},{"name":"ids","type":"uint256[]","internalType":"uint256[]"},{"name":"amounts","type":"uint256[]","internalType":"uint256[]"},{"name":"data","type":"bytes","internalType":"bytes"}],"outputs":[],"stateMutability":"nonpayable"},{"type":"function","name":"owner","inputs":[],"outputs":[{"name":"","type":"address","internalType":"address"}],"stateMutability":"view"},{"type":"function","name":"renounceOwnership","inputs":[],"outputs":[],"stateMutability":"nonpayable"},{"type":"function","name":"safeBatchTransferFrom","inputs":[{"name":"from","type":"address","internalType":"address"},{"name":"to","type":"address","internalType":"address"},{"name":"ids","type":"uint256[]","internalType":"uint256[]"},{"name":"values","type":"uint256[]","internalType":"uint256[]"},{"name":"data","type":"bytes","internalType":"bytes"}],"outputs":[],"stateMutability":"nonpayable"},{"type":"function","name":"safeTransferFrom","inputs":[{"name":"from","type":"address","internalType":"address"},{"name":"to","type":"address","internalType":"address"},{"name":"id","type":"uint256","internalType":"uint256"},{"name":"value","type":"uint256","internalType":"uint256"},{"name":"data","type":"bytes","internalType":"bytes"}],"outputs":[],"stateMutability":"nonpayable"},{"type":"function","name":"setApprovalForAll","inputs":[{"name":"operator","type":"address","internalType":"address"},{"name":"approved","type":"bool","internalType":"bool"}],"outputs":[],"stateMutability":"nonpayable"},{"type":"function","name":"setURI","inputs":[{"name":"newuri","type":"string","internalType":"string"}],"outputs":[],"stateMutability":"nonpayable"},{"type":"function","name":"supportsInterface","inputs":[{"name":"interfaceId","type":"bytes4","internalType":"bytes4"}],"outputs":[{"name":"","type":"bool","internalType":"bool"}],"stateMutability":"view"},{"type":"function","name":"transferOwnership","inputs":[{"name":"newOwner","type":"address","internalType":"address"}],"outputs":[],"stateMutability":"nonpayable"},{"type":"function","name":"uri","inputs":[{"name":"","type":"uint256","internalType":"uint256"}],"outputs":[{"name":"","type":"string","internalType":"string"}],"stateMutability":"view"},{"type":"event","name":"ApprovalForAll","inputs":[{"name":"account","type":"address","indexed":true,"internalType":"address"},{"name":"operator","type":"address","indexed":true,"internalType":"address"},{"name":"approved","type":"bool","indexed":false,"internalType":"bool"}],"anonymous":false},{"type":"event","name":"OwnershipTransferred","inputs":[{"name":"previousOwner","type":"address","indexed":true,"internalType":"address"},{"name":"newOwner","type":"address","indexed":true,"internalType":"address"}],"anonymous":false},{"type":"event","name":"TransferBatch","inputs":[{"name":"operator","type":"address","indexed":true,"internalType":"address"},{"name":"from","type":"address","indexed":true,"internalType":"address"},{"name":"to","type":"address","indexed":true,"internalType":"address"},{"name":"ids","type":"uint256[]","indexed":false,"internalType":"uint256[]"},{"name":"values","type":"uint256[]","indexed":false,"internalType":"uint256[]"}],"anonymous":false},{"type":"event","name":"TransferSingle","inputs":[{"name":"operator","type":"address","indexed":true,"internalType":"address"},{"name":"from","type":"address","indexed":true,"internalType":"address"},{"name":"to","type":"address","indexed":true,"internalType":"address"},{"name":"id","type":"uint256","indexed":false,"internalType":"uint256"},{"name":"value","type":"uint256","indexed":false,"internalType":"uint256"}],"anonymous":false},{"type":"event","name":"URI","inputs":[{"name":"value","type":"string","indexed":false,"internalType":"string"},{"name":"id","type":"uint256","indexed":true,"internalType":"uint256"}],"anonymous":false},{"type":"error","name":"ERC1155InsufficientBalance","inputs":[{"name":"sender","type":"address","internalType":"address"},{"name":"balance","type":"uint256","internalType":"uint256"},{"name":"needed","type":"uint256","internalType":"uint256"},{"name":"tokenId","type":"uint256","internalType":"uint256"}]},{"type":"error","name":"ERC1155InvalidApprover","inputs":[{"name":"approver","type":"address","internalType":"address"}]},{"type":"error","name":"ERC1155InvalidArrayLength","inputs":[{"name":"idsLength","type":"uint256","internalType":"uint256"},{"name":"valuesLength","type":"uint256","internalType":"uint256"}]},{"type":"error","name":"ERC1155InvalidOperator","inputs":[{"name":"operator","type":"address","internalType":"address"}]},{"type":"error","name":"ERC1155InvalidReceiver","inputs":[{"name":"receiver","type":"address","internalType":"address"}]},{"type":"error","name":"ERC1155InvalidSender","inputs":[{"name":"sender","type":"address","internalType":"address"}]},{"type":"error","name":"ERC1155MissingApprovalForAll","inputs":[{"name":"operator","type":"address","internalType":"address"},{"name":"owner","type":"address","internalType":"address"}]},{"type":"error","name":"OwnableInvalidOwner","inputs":[{"name":"owner","type":"address","internalType":"address"}]},{"type":"error","name":"OwnableUnauthorizedAccount","inputs":[{"name":"account","type":"address","internalType":"address"}]}],"bytecode":{"object":"0x60806040523480156200001157600080fd5b5060408051808201909152601b81527f68747470733a2f2f6170702e626974676f2d746573742e636f6d2f000000000060208201523390620000538162000095565b506001600160a01b0381166200008357604051631e4fbdf760e01b81526000600482015260240160405180910390fd5b6200008e81620000a7565b506200026a565b6002620000a382826200019e565b5050565b600380546001600160a01b038381166001600160a01b0319831681179093556040519116919082907f8be0079c531659141344cd1fd0a4f28419497f9722a3daafe3b4186f6b6457e090600090a35050565b634e487b7160e01b600052604160045260246000fd5b600181811c908216806200012457607f821691505b6020821081036200014557634e487b7160e01b600052602260045260246000fd5b50919050565b601f8211156200019957600081815260208120601f850160051c81016020861015620001745750805b601f850160051c820191505b81811015620001955782815560010162000180565b5050505b505050565b81516001600160401b03811115620001ba57620001ba620000f9565b620001d281620001cb84546200010f565b846200014b565b602080601f8311600181146200020a5760008415620001f15750858301515b600019600386901b1c1916600185901b17855562000195565b600085815260208120601f198616915b828110156200023b578886015182559484019460019091019084016200021a565b50858210156200025a5787850151600019600388901b60f8161c191681555b5050505050600190811b01905550565b6115bd806200027a6000396000f3fe608060405234801561001057600080fd5b50600436106100e95760003560e01c8063715018a61161008c578063a22cb46511610066578063a22cb465146101e8578063e985e9c5146101fb578063f242432a1461020e578063f2fde38b1461022157600080fd5b8063715018a6146101b2578063731133e9146101ba5780638da5cb5b146101cd57600080fd5b80630e89341c116100c85780630e89341c1461014c5780631f7fdffa1461016c5780632eb2c2d61461017f5780634e1273f41461019257600080fd5b8062fdd58e146100ee57806301ffc9a71461011457806302fe530514610137575b600080fd5b6101016100fc366004610cf2565b610234565b6040519081526020015b60405180910390f35b610127610122366004610d32565b61025c565b604051901515815260200161010b565b61014a610145366004610df5565b6102ac565b005b61015f61015a366004610e46565b6102c0565b60405161010b9190610ea5565b61014a61017a366004610f67565b610354565b61014a61018d366004611000565b61036e565b6101a56101a03660046110aa565b6103da565b60405161010b91906111a5565b61014a6104af565b61014a6101c83660046111b8565b6104c3565b6003546040516001600160a01b03909116815260200161010b565b61014a6101f636600461120d565b6104d7565b610127610209366004611249565b6104e6565b61014a61021c36600461127c565b610514565b61014a61022f3660046112e1565b610573565b6000818152602081815260408083206001600160a01b03861684529091529020545b92915050565b60006001600160e01b03198216636cdb3d1360e11b148061028d57506001600160e01b031982166303a24d0760e21b145b8061025657506301ffc9a760e01b6001600160e01b0319831614610256565b6102b46105ae565b6102bd816105db565b50565b6060600280546102cf906112fc565b80601f01602080910402602001604051908101604052809291908181526020018280546102fb906112fc565b80156103485780601f1061031d57610100808354040283529160200191610348565b820191906000526020600020905b81548152906001019060200180831161032b57829003601f168201915b50505050509050919050565b61035c6105ae565b610368848484846105e7565b50505050565b336001600160a01b038616811480159061038f575061038d86826104e6565b155b156103c55760405163711bec9160e11b81526001600160a01b038083166004830152871660248201526044015b60405180910390fd5b6103d2868686868661061f565b505050505050565b6060815183511461040b5781518351604051635b05999160e01b8152600481019290925260248201526044016103bc565b6000835167ffffffffffffffff81111561042757610427610d56565b604051908082528060200260200182016040528015610450578160200160208202803683370190505b50905060005b84518110156104a75760208082028601015161047a90602080840287010151610234565b82828151811061048c5761048c611336565b60209081029190910101526104a081611362565b9050610456565b509392505050565b6104b76105ae565b6104c16000610686565b565b6104cb6105ae565b610368848484846106d8565b6104e2338383610735565b5050565b6001600160a01b03918216600090815260016020908152604080832093909416825291909152205460ff1690565b336001600160a01b0386168114801590610535575061053386826104e6565b155b156105665760405163711bec9160e11b81526001600160a01b038083166004830152871660248201526044016103bc565b6103d286868686866107cb565b61057b6105ae565b6001600160a01b0381166105a557604051631e4fbdf760e01b8152600060048201526024016103bc565b6102bd81610686565b6003546001600160a01b031633146104c15760405163118cdaa760e01b81523360048201526024016103bc565b60026104e282826113c6565b6001600160a01b03841661061157604051632bfa23e760e11b8152600060048201526024016103bc565b610368600085858585610859565b6001600160a01b03841661064957604051632bfa23e760e11b8152600060048201526024016103bc565b6001600160a01b03851661067257604051626a0d4560e21b8152600060048201526024016103bc565b61067f8585858585610859565b5050505050565b600380546001600160a01b038381166001600160a01b0319831681179093556040519116919082907f8be0079c531659141344cd1fd0a4f28419497f9722a3daafe3b4186f6b6457e090600090a35050565b6001600160a01b03841661070257604051632bfa23e760e11b8152600060048201526024016103bc565b604080516001808252602082018690528183019081526060820185905260808201909252906103d2600087848487610859565b6001600160a01b03821661075e5760405162ced3e160e81b8152600060048201526024016103bc565b6001600160a01b03838116600081815260016020908152604080832094871680845294825291829020805460ff191686151590811790915591519182527f17307eab39ab6107e8899845ad3d59bd9653f200f220920489ca2b5937696c31910160405180910390a3505050565b6001600160a01b0384166107f557604051632bfa23e760e11b8152600060048201526024016103bc565b6001600160a01b03851661081e57604051626a0d4560e21b8152600060048201526024016103bc565b604080516001808252602082018690528183019081526060820185905260808201909252906108508787848487610859565b50505050505050565b610865858585856108ac565b6001600160a01b0384161561067f578251339060010361089e5760208481015190840151610897838989858589610ac9565b50506103d2565b6103d2818787878787610bed565b80518251146108db5781518151604051635b05999160e01b8152600481019290925260248201526044016103bc565b3360005b83518110156109ea576020818102858101820151908501909101516001600160a01b03881615610992576000828152602081815260408083206001600160a01b038c1684529091529020548181101561096b576040516303dee4c560e01b81526001600160a01b038a1660048201526024810182905260448101839052606481018490526084016103bc565b6000838152602081815260408083206001600160a01b038d16845290915290209082900390555b6001600160a01b038716156109d7576000828152602081815260408083206001600160a01b038b168452909152812080548392906109d1908490611486565b90915550505b5050806109e390611362565b90506108df565b508251600103610a6b5760208301516000906020840151909150856001600160a01b0316876001600160a01b0316846001600160a01b03167fc3d58168c5ae7397731d063d5bbf3d657854427343f4c083240f7aacaa2d0f628585604051610a5c929190918252602082015260400190565b60405180910390a4505061067f565b836001600160a01b0316856001600160a01b0316826001600160a01b03167f4a39dc06d4c0dbc64b70af90fd698a233a518aa5d07e595d983b8c0526c8f7fb8686604051610aba929190611499565b60405180910390a45050505050565b6001600160a01b0384163b156103d25760405163f23a6e6160e01b81526001600160a01b0385169063f23a6e6190610b0d90899089908890889088906004016114c7565b6020604051808303816000875af1925050508015610b48575060408051601f3d908101601f19168201909252610b459181019061150c565b60015b610bb1573d808015610b76576040519150601f19603f3d011682016040523d82523d6000602084013e610b7b565b606091505b508051600003610ba957604051632bfa23e760e11b81526001600160a01b03861660048201526024016103bc565b805181602001fd5b6001600160e01b0319811663f23a6e6160e01b1461085057604051632bfa23e760e11b81526001600160a01b03861660048201526024016103bc565b6001600160a01b0384163b156103d25760405163bc197c8160e01b81526001600160a01b0385169063bc197c8190610c319089908990889088908890600401611529565b6020604051808303816000875af1925050508015610c6c575060408051601f3d908101601f19168201909252610c699181019061150c565b60015b610c9a573d808015610b76576040519150601f19603f3d011682016040523d82523d6000602084013e610b7b565b6001600160e01b0319811663bc197c8160e01b1461085057604051632bfa23e760e11b81526001600160a01b03861660048201526024016103bc565b80356001600160a01b0381168114610ced57600080fd5b919050565b60008060408385031215610d0557600080fd5b610d0e83610cd6565b946020939093013593505050565b6001600160e01b0319811681146102bd57600080fd5b600060208284031215610d4457600080fd5b8135610d4f81610d1c565b9392505050565b634e487b7160e01b600052604160045260246000fd5b604051601f8201601f1916810167ffffffffffffffff81118282101715610d9557610d95610d56565b604052919050565b600067ffffffffffffffff831115610db757610db7610d56565b610dca601f8401601f1916602001610d6c565b9050828152838383011115610dde57600080fd5b828260208301376000602084830101529392505050565b600060208284031215610e0757600080fd5b813567ffffffffffffffff811115610e1e57600080fd5b8201601f81018413610e2f57600080fd5b610e3e84823560208401610d9d565b949350505050565b600060208284031215610e5857600080fd5b5035919050565b6000815180845260005b81811015610e8557602081850181015186830182015201610e69565b506000602082860101526020601f19601f83011685010191505092915050565b602081526000610d4f6020830184610e5f565b600067ffffffffffffffff821115610ed257610ed2610d56565b5060051b60200190565b600082601f830112610eed57600080fd5b81356020610f02610efd83610eb8565b610d6c565b82815260059290921b84018101918181019086841115610f2157600080fd5b8286015b84811015610f3c5780358352918301918301610f25565b509695505050505050565b600082601f830112610f5857600080fd5b610d4f83833560208501610d9d565b60008060008060808587031215610f7d57600080fd5b610f8685610cd6565b9350602085013567ffffffffffffffff80821115610fa357600080fd5b610faf88838901610edc565b94506040870135915080821115610fc557600080fd5b610fd188838901610edc565b93506060870135915080821115610fe757600080fd5b50610ff487828801610f47565b91505092959194509250565b600080600080600060a0868803121561101857600080fd5b61102186610cd6565b945061102f60208701610cd6565b9350604086013567ffffffffffffffff8082111561104c57600080fd5b61105889838a01610edc565b9450606088013591508082111561106e57600080fd5b61107a89838a01610edc565b9350608088013591508082111561109057600080fd5b5061109d88828901610f47565b9150509295509295909350565b600080604083850312156110bd57600080fd5b823567ffffffffffffffff808211156110d557600080fd5b818501915085601f8301126110e957600080fd5b813560206110f9610efd83610eb8565b82815260059290921b8401810191818101908984111561111857600080fd5b948201945b8386101561113d5761112e86610cd6565b8252948201949082019061111d565b9650508601359250508082111561115357600080fd5b5061116085828601610edc565b9150509250929050565b600081518084526020808501945080840160005b8381101561119a5781518752958201959082019060010161117e565b509495945050505050565b602081526000610d4f602083018461116a565b600080600080608085870312156111ce57600080fd5b6111d785610cd6565b93506020850135925060408501359150606085013567ffffffffffffffff81111561120157600080fd5b610ff487828801610f47565b6000806040838503121561122057600080fd5b61122983610cd6565b91506020830135801515811461123e57600080fd5b809150509250929050565b6000806040838503121561125c57600080fd5b61126583610cd6565b915061127360208401610cd6565b90509250929050565b600080600080600060a0868803121561129457600080fd5b61129d86610cd6565b94506112ab60208701610cd6565b93506040860135925060608601359150608086013567ffffffffffffffff8111156112d557600080fd5b61109d88828901610f47565b6000602082840312156112f357600080fd5b610d4f82610cd6565b600181811c9082168061131057607f821691505b60208210810361133057634e487b7160e01b600052602260045260246000fd5b50919050565b634e487b7160e01b600052603260045260246000fd5b634e487b7160e01b600052601160045260246000fd5b6000600182016113745761137461134c565b5060010190565b601f8211156113c157600081815260208120601f850160051c810160208610156113a25750805b601f850160051c820191505b818110156103d2578281556001016113ae565b505050565b815167ffffffffffffffff8111156113e0576113e0610d56565b6113f4816113ee84546112fc565b8461137b565b602080601f83116001811461142957600084156114115750858301515b600019600386901b1c1916600185901b1785556103d2565b600085815260208120601f198616915b8281101561145857888601518255948401946001909101908401611439565b50858210156114765787850151600019600388901b60f8161c191681555b5050505050600190811b01905550565b808201808211156102565761025661134c565b6040815260006114ac604083018561116a565b82810360208401526114be818561116a565b95945050505050565b6001600160a01b03868116825285166020820152604081018490526060810183905260a06080820181905260009061150190830184610e5f565b979650505050505050565b60006020828403121561151e57600080fd5b8151610d4f81610d1c565b6001600160a01b0386811682528516602082015260a0604082018190526000906115559083018661116a565b8281036060840152611567818661116a565b9050828103608084015261157b8185610e5f565b9897505050505050505056fea26469706673582212207082eb88fe9b00585be8c56a971b733b355bb1360617952b94d88eed9b7af28e64736f6c63430008140033","linkReferences":{}},"methodIdentifiers":{"balanceOf(address,uint256)":"00fdd58e","balanceOfBatch(address[],uint256[])":"4e1273f4","isApprovedForAll(address,address)":"e985e9c5","mint(address,uint256,uint256,bytes)":"731133e9","mintBatch(address,uint256[],uint256[],bytes)":"1f7fdffa","owner()":"8da5cb5b","renounceOwnership()":"715018a6","safeBatchTransferFrom(address,address,uint256[],uint256[],bytes)":"2eb2c2d6","safeTransferFrom(address,address,uint256,uint256,bytes)":"f242432a","setApprovalForAll(address,bool)":"a22cb465","setURI(string)":"02fe5305","supportsInterface(bytes4)":"01ffc9a7","transferOwnership(address)":"f2fde38b","uri(uint256)":"0e89341c"},"id":16}