{"abi":[{"type":"fallback","stateMutability":"payable"},{"type":"receive","stateMutability":"payable"},{"type":"function","name":"autoFlush1155","inputs":[],"outputs":[{"name":"","type":"bool","internalType":"bool"}],"stateMutability":"view"},{"type":"function","name":"autoFlush721","inputs":[],"outputs":[{"name":"","type":"bool","internalType":"bool"}],"stateMutability":"view"},{"type":"function","name":"batchFlushERC1155Tokens","inputs":[{"name":"tokenContractAddress","type":"address","internalType":"address"},{"name":"tokenIds","type":"uint256[]","internalType":"uint256[]"}],"outputs":[],"stateMutability":"nonpayable"},{"type":"function","name":"callFromParent","inputs":[{"name":"target","type":"address","internalType":"address"},{"name":"value","type":"uint256","internalType":"uint256"},{"name":"data","type":"bytes","internalType":"bytes"}],"outputs":[{"name":"","type":"bytes","internalType":"bytes"}],"stateMutability":"nonpayable"},{"type":"function","name":"flush","inputs":[],"outputs":[],"stateMutability":"nonpayable"},{"type":"function","name":"flushERC1155Tokens","inputs":[{"name":"tokenContractAddress","type":"address","internalType":"address"},{"name":"tokenId","type":"uint256","internalType":"uint256"}],"outputs":[],"stateMutability":"nonpayable"},{"type":"function","name":"flushERC721Token","inputs":[{"name":"tokenContractAddress","type":"address","internalType":"address"},{"name":"tokenId","type":"uint256","internalType":"uint256"}],"outputs":[],"stateMutability":"nonpayable"},{"type":"function","name":"flushTokens","inputs":[{"name":"tokenContractAddress","type":"address","internalType":"address"}],"outputs":[],"stateMutability":"nonpayable"},{"type":"function","name":"init","inputs":[{"name":"_parentAddress","type":"address","internalType":"address"},{"name":"_autoFlush721","type":"bool","internalType":"bool"},{"name":"_autoFlush1155","type":"bool","internalType":"bool"}],"outputs":[],"stateMutability":"nonpayable"},{"type":"function","name":"onERC1155BatchReceived","inputs":[{"name":"_operator","type":"address","internalType":"address"},{"name":"_from","type":"address","internalType":"address"},{"name":"ids","type":"uint256[]","internalType":"uint256[]"},{"name":"values","type":"uint256[]","internalType":"uint256[]"},{"name":"data","type":"bytes","internalType":"bytes"}],"outputs":[{"name":"","type":"bytes4","internalType":"bytes4"}],"stateMutability":"nonpayable"},{"type":"function","name":"onERC1155Received","inputs":[{"name":"_operator","type":"address","internalType":"address"},{"name":"_from","type":"address","internalType":"address"},{"name":"id","type":"uint256","internalType":"uint256"},{"name":"value","type":"uint256","internalType":"uint256"},{"name":"data","type":"bytes","internalType":"bytes"}],"outputs":[{"name":"","type":"bytes4","internalType":"bytes4"}],"stateMutability":"nonpayable"},{"type":"function","name":"onERC721Received","inputs":[{"name":"_operator","type":"address","internalType":"address"},{"name":"_from","type":"address","internalType":"address"},{"name":"_tokenId","type":"uint256","internalType":"uint256"},{"name":"data","type":"bytes","internalType":"bytes"}],"outputs":[{"name":"","type":"bytes4","internalType":"bytes4"}],"stateMutability":"nonpayable"},{"type":"function","name":"parentAddress","inputs":[],"outputs":[{"name":"","type":"address","internalType":"address"}],"stateMutability":"view"},{"type":"function","name":"setAutoFlush1155","inputs":[{"name":"autoFlush","type":"bool","internalType":"bool"}],"outputs":[],"stateMutability":"nonpayable"},{"type":"function","name":"setAutoFlush721","inputs":[{"name":"autoFlush","type":"bool","internalType":"bool"}],"outputs":[],"stateMutability":"nonpayable"},{"type":"function","name":"supportsInterface","inputs":[{"name":"interfaceId","type":"bytes4","internalType":"bytes4"}],"outputs":[{"name":"","type":"bool","internalType":"bool"}],"stateMutability":"view"},{"type":"event","name":"ForwarderDeposited","inputs":[{"name":"from","type":"address","indexed":false,"internalType":"address"},{"name":"value","type":"uint256","indexed":false,"internalType":"uint256"},{"name":"data","type":"bytes","indexed":false,"internalType":"bytes"}],"anonymous":false}],"bytecode":{"object":"0x60806040526000805461ffff60a01b191661010160a01b17905534801561002557600080fd5b50611b76806100356000396000f3fe6080604052600436106100f65760003560e01c80638acc01be1161008a578063c59f9f1911610059578063c59f9f19146102ca578063c6a2dd24146102ea578063f23a6e611461030a578063f684e1ed1461032a57610105565b80638acc01be14610249578063bad23ab914610269578063bc197c811461028a578063bee3e676146102aa57610105565b80633ef13367116100c65780633ef13367146101c75780636b9f96ea146101e757806377e60b35146101fc5780638972c17c1461022957610105565b8062821de31461010d57806301ffc9a71461014a578063150b7a021461017a578063159e44d7146101a757610105565b366101055761010361034b565b005b61010361034b565b34801561011957600080fd5b5060005461012d906001600160a01b031681565b6040516001600160a01b0390911681526020015b60405180910390f35b34801561015657600080fd5b5061016a6101653660046112fb565b610431565b6040519015158152602001610141565b34801561018657600080fd5b5061019a6101953660046113f8565b61045c565b6040516101419190611464565b3480156101b357600080fd5b506101036101c2366004611479565b6105bc565b3480156101d357600080fd5b506101036101e23660046114a5565b6107b0565b3480156101f357600080fd5b5061010361034b565b34801561020857600080fd5b5061021c6102173660046114c2565b610878565b604051610141919061159b565b34801561023557600080fd5b50610103610244366004611479565b610961565b34801561025557600080fd5b506101036102643660046115bc565b610b1f565b34801561027557600080fd5b5060005461016a90600160a81b900460ff1681565b34801561029657600080fd5b5061019a6102a5366004611659565b610b67565b3480156102b657600080fd5b506101036102c5366004611707565b610c83565b3480156102d657600080fd5b506101036102e53660046115bc565b610df0565b3480156102f657600080fd5b50610103610305366004611752565b610e38565b34801561031657600080fd5b5061019a6103253660046117da565b611080565b34801561033657600080fd5b5060005461016a90600160a01b900460ff1681565b4760008190036103585750565b7f69b31548dea9b3b707b4dff357d326e3e9348b24e7a6080a218a6edeeec48f9b338260003660405161038e9493929190611843565b60405180910390a1600080546040516001600160a01b039091169083908381818185875af1925050503d80600081146103e3576040519150601f19603f3d011682016040523d82523d6000602084013e6103e8565b606091505b505090508061042d5760405162461bcd60e51b815260206004820152600c60248201526b119b1d5cda0819985a5b195960a21b60448201526064015b60405180910390fd5b5050565b60006001600160e01b03198216632becf54f60e01b148061045657506104568261119c565b92915050565b60008054600160a01b900460ff16156105ab576040516301ffc9a760e01b8152339081906301ffc9a79061049b906380ac58cd60e01b90600401611464565b602060405180830381865afa1580156104b8573d6000803e3d6000fd5b505050506040513d601f19601f820116820180604052508101906104dc919061188b565b6105415760405162461bcd60e51b815260206004820152603060248201527f5468652063616c6c657220646f6573206e6f7420737570706f7274207468652060448201526f45524337323120696e7465726661636560801b6064820152608401610424565b600054604051635c46a7ef60e11b81526001600160a01b038084169263b88d4fde926105779230921690899089906004016118a8565b600060405180830381600087803b15801561059157600080fd5b505af11580156105a5573d6000803e3d6000fd5b50505050505b50630a85bd0160e11b949350505050565b6000546001600160a01b031633146105e65760405162461bcd60e51b8152600401610424906118db565b6040516301ffc9a760e01b815282906001600160a01b038216906301ffc9a79061061b906380ac58cd60e01b90600401611464565b602060405180830381865afa158015610638573d6000803e3d6000fd5b505050506040513d601f19601f8201168201806040525081019061065c919061188b565b6106ce5760405162461bcd60e51b815260206004820152603e60248201527f54686520746f6b656e436f6e74726163744164647265737320646f6573206e6f60448201527f7420737570706f7274207468652045524337323120696e7465726661636500006064820152608401610424565b6040516331a9108f60e11b8152600481018390526000906001600160a01b03831690636352211e90602401602060405180830381865afa158015610716573d6000803e3d6000fd5b505050506040513d601f19601f8201168201806040525081019061073a9190611900565b6000546040516323b872dd60e01b81526001600160a01b0380841660048301529182166024820152604481018690529192508316906323b872dd90606401600060405180830381600087803b15801561079257600080fd5b505af11580156107a6573d6000803e3d6000fd5b5050505050505050565b6000546001600160a01b031633146107da5760405162461bcd60e51b8152600401610424906118db565b6040516370a0823160e01b8152306004820181905282916000906001600160a01b038416906370a0823190602401602060405180830381865afa158015610825573d6000803e3d6000fd5b505050506040513d601f19601f82011682018060405250810190610849919061191d565b9050806000036108595750505050565b6000546108719085906001600160a01b0316836111d1565b5050505b50565b6000546060906001600160a01b031633146108a55760405162461bcd60e51b8152600401610424906118db565b600080866001600160a01b03168686866040516108c3929190611936565b60006040518083038185875af1925050503d8060008114610900576040519150601f19603f3d011682016040523d82523d6000602084013e610905565b606091505b5091509150816109575760405162461bcd60e51b815260206004820152601c60248201527f506172656e742063616c6c20657865637574696f6e206661696c6564000000006044820152606401610424565b9695505050505050565b6000546001600160a01b0316331461098b5760405162461bcd60e51b8152600401610424906118db565b6040516301ffc9a760e01b815282906001600160a01b038216906301ffc9a7906109c090636cdb3d1360e11b90600401611464565b602060405180830381865afa1580156109dd573d6000803e3d6000fd5b505050506040513d601f19601f82011682018060405250810190610a01919061188b565b610a1d5760405162461bcd60e51b815260040161042490611946565b604051627eeac760e11b8152306004820181905260248201849052906000906001600160a01b0384169062fdd58e90604401602060405180830381865afa158015610a6c573d6000803e3d6000fd5b505050506040513d601f19601f82011682018060405250810190610a90919061191d565b60008054604051637921219560e11b81526001600160a01b0386811660048301529182166024820152604481018890526064810184905260a0608482015260a48101929092529192509084169063f242432a9060c401600060405180830381600087803b158015610b0057600080fd5b505af1158015610b14573d6000803e3d6000fd5b505050505050505050565b6000546001600160a01b03163314610b495760405162461bcd60e51b8152600401610424906118db565b60008054911515600160a81b0260ff60a81b19909216919091179055565b6040516301ffc9a760e01b8152600090339081906301ffc9a790610b9690636cdb3d1360e11b90600401611464565b602060405180830381865afa158015610bb3573d6000803e3d6000fd5b505050506040513d601f19601f82011682018060405250810190610bd7919061188b565b610bf35760405162461bcd60e51b815260040161042490611946565b600054600160a81b900460ff1615610c7057600054604051631759616b60e11b81526001600160a01b0380841692632eb2c2d692610c3d92309216908a908a908a906004016119d3565b600060405180830381600087803b158015610c5757600080fd5b505af1158015610c6b573d6000803e3d6000fd5b505050505b5063bc197c8160e01b9695505050505050565b6000546001600160a01b031615610cd25760405162461bcd60e51b8152602060048201526013602482015272105b1c9958591e481a5b9a5d1a585b1a5e9959606a1b6044820152606401610424565b600080546001600160a01b0385166001600160a81b031990911617600160a01b841515021760ff60a81b1916600160a81b831515021781554790819003610d195750505050565b7f69b31548dea9b3b707b4dff357d326e3e9348b24e7a6080a218a6edeeec48f9b3082600036604051610d4f9493929190611843565b60405180910390a1600080546040516001600160a01b039091169083908381818185875af1925050503d8060008114610da4576040519150601f19603f3d011682016040523d82523d6000602084013e610da9565b606091505b5050905080610de95760405162461bcd60e51b815260206004820152600c60248201526b119b1d5cda0819985a5b195960a21b6044820152606401610424565b5050505050565b6000546001600160a01b03163314610e1a5760405162461bcd60e51b8152600401610424906118db565b60008054911515600160a01b0260ff60a01b19909216919091179055565b6000546001600160a01b03163314610e625760405162461bcd60e51b8152600401610424906118db565b6040516301ffc9a760e01b815283906001600160a01b038216906301ffc9a790610e9790636cdb3d1360e11b90600401611464565b602060405180830381865afa158015610eb4573d6000803e3d6000fd5b505050506040513d601f19601f82011682018060405250810190610ed8919061188b565b610ef45760405162461bcd60e51b815260040161042490611946565b3060008367ffffffffffffffff811115610f1057610f10611341565b604051908082528060200260200182016040528015610f39578160200160208202803683370190505b50905060005b8481101561100d57836001600160a01b031662fdd58e84888885818110610f6857610f68611a31565b6040516001600160e01b031960e087901b1681526001600160a01b0390941660048501526020029190910135602483015250604401602060405180830381865afa158015610fba573d6000803e3d6000fd5b505050506040513d601f19601f82011682018060405250810190610fde919061191d565b828281518110610ff057610ff0611a31565b60209081029190910101528061100581611a47565b915050610f3f565b50600054604051631759616b60e11b81526001600160a01b0380861692632eb2c2d69261104692879216908a908a908890600401611a6e565b600060405180830381600087803b15801561106057600080fd5b505af1158015611074573d6000803e3d6000fd5b50505050505050505050565b6040516301ffc9a760e01b8152600090339081906301ffc9a7906110af90636cdb3d1360e11b90600401611464565b602060405180830381865afa1580156110cc573d6000803e3d6000fd5b505050506040513d601f19601f820116820180604052508101906110f0919061188b565b61110c5760405162461bcd60e51b815260040161042490611946565b600054600160a81b900460ff161561118957600054604051637921219560e11b81526001600160a01b038084169263f242432a9261115692309216908a908a908a90600401611aea565b600060405180830381600087803b15801561117057600080fd5b505af1158015611184573d6000803e3d6000fd5b505050505b5063f23a6e6160e01b9695505050505050565b60006001600160e01b03198216630271189760e51b148061045657506301ffc9a760e01b6001600160e01b0319831614610456565b604080516001600160a01b038481166024830152604480830185905283518084039091018152606490920183526020820180516001600160e01b031663a9059cbb60e01b179052915160009283929087169161122d9190611b24565b6000604051808303816000865af19150503d806000811461126a576040519150601f19603f3d011682016040523d82523d6000602084013e61126f565b606091505b5091509150818015611299575080511580611299575080806020019051810190611299919061188b565b610de95760405162461bcd60e51b815260206004820152602d60248201527f5472616e7366657248656c7065723a3a736166655472616e736665723a20747260448201526c185b9cd9995c8819985a5b1959609a1b6064820152608401610424565b60006020828403121561130d57600080fd5b81356001600160e01b03198116811461132557600080fd5b9392505050565b6001600160a01b038116811461087557600080fd5b634e487b7160e01b600052604160045260246000fd5b604051601f8201601f1916810167ffffffffffffffff8111828210171561138057611380611341565b604052919050565b600082601f83011261139957600080fd5b813567ffffffffffffffff8111156113b3576113b3611341565b6113c6601f8201601f1916602001611357565b8181528460208386010111156113db57600080fd5b816020850160208301376000918101602001919091529392505050565b6000806000806080858703121561140e57600080fd5b84356114198161132c565b935060208501356114298161132c565b925060408501359150606085013567ffffffffffffffff81111561144c57600080fd5b61145887828801611388565b91505092959194509250565b6001600160e01b031991909116815260200190565b6000806040838503121561148c57600080fd5b82356114978161132c565b946020939093013593505050565b6000602082840312156114b757600080fd5b81356113258161132c565b600080600080606085870312156114d857600080fd5b84356114e38161132c565b935060208501359250604085013567ffffffffffffffff8082111561150757600080fd5b818701915087601f83011261151b57600080fd5b81358181111561152a57600080fd5b88602082850101111561153c57600080fd5b95989497505060200194505050565b60005b8381101561156657818101518382015260200161154e565b50506000910152565b6000815180845261158781602086016020860161154b565b601f01601f19169290920160200192915050565b602081526000611325602083018461156f565b801515811461087557600080fd5b6000602082840312156115ce57600080fd5b8135611325816115ae565b600082601f8301126115ea57600080fd5b8135602067ffffffffffffffff82111561160657611606611341565b8160051b611615828201611357565b928352848101820192828101908785111561162f57600080fd5b83870192505b8483101561164e57823582529183019190830190611635565b979650505050505050565b600080600080600060a0868803121561167157600080fd5b853561167c8161132c565b9450602086013561168c8161132c565b9350604086013567ffffffffffffffff808211156116a957600080fd5b6116b589838a016115d9565b945060608801359150808211156116cb57600080fd5b6116d789838a016115d9565b935060808801359150808211156116ed57600080fd5b506116fa88828901611388565b9150509295509295909350565b60008060006060848603121561171c57600080fd5b83356117278161132c565b92506020840135611737816115ae565b91506040840135611747816115ae565b809150509250925092565b60008060006040848603121561176757600080fd5b83356117728161132c565b9250602084013567ffffffffffffffff8082111561178f57600080fd5b818601915086601f8301126117a357600080fd5b8135818111156117b257600080fd5b8760208260051b85010111156117c757600080fd5b6020830194508093505050509250925092565b600080600080600060a086880312156117f257600080fd5b85356117fd8161132c565b9450602086013561180d8161132c565b93506040860135925060608601359150608086013567ffffffffffffffff81111561183757600080fd5b6116fa88828901611388565b6001600160a01b0385168152602081018490526060604082018190528101829052818360808301376000818301608090810191909152601f909201601f191601019392505050565b60006020828403121561189d57600080fd5b8151611325816115ae565b6001600160a01b03858116825284166020820152604081018390526080606082018190526000906109579083018461156f565b6020808252600b908201526a13db9b1e4814185c995b9d60aa1b604082015260600190565b60006020828403121561191257600080fd5b81516113258161132c565b60006020828403121561192f57600080fd5b5051919050565b8183823760009101908152919050565b60208082526032908201527f5468652063616c6c657220646f6573206e6f7420737570706f72742074686520604082015271494552433131353520696e7465726661636560701b606082015260800190565b600081518084526020808501945080840160005b838110156119c8578151875295820195908201906001016119ac565b509495945050505050565b6001600160a01b0386811682528516602082015260a0604082018190526000906119ff90830186611998565b8281036060840152611a118186611998565b90508281036080840152611a25818561156f565b98975050505050505050565b634e487b7160e01b600052603260045260246000fd5b600060018201611a6757634e487b7160e01b600052601160045260246000fd5b5060010190565b6001600160a01b0386811682528516602082015260a060408201819052810183905260006001600160fb1b03841115611aa657600080fd5b8360051b808660c0850137820182810360c09081016060850152611acc90820185611998565b83810360809094019390935250506000815260200195945050505050565b6001600160a01b03868116825285166020820152604081018490526060810183905260a06080820181905260009061164e9083018461156f565b60008251611b3681846020870161154b565b919091019291505056fea2646970667358221220b82663baa29a654a98d621622c325c7dea0a7d14dfbc63047dffdfa0a4a6ffd364736f6c63430008140033","linkReferences":{}},"methodIdentifiers":{"autoFlush1155()":"bad23ab9","autoFlush721()":"f684e1ed","batchFlushERC1155Tokens(address,uint256[])":"c6a2dd24","callFromParent(address,uint256,bytes)":"77e60b35","flush()":"6b9f96ea","flushERC1155Tokens(address,uint256)":"8972c17c","flushERC721Token(address,uint256)":"159e44d7","flushTokens(address)":"3ef13367","init(address,bool,bool)":"bee3e676","onERC1155BatchReceived(address,address,uint256[],uint256[],bytes)":"bc197c81","onERC1155Received(address,address,uint256,uint256,bytes)":"f23a6e61","onERC721Received(address,address,uint256,bytes)":"150b7a02","parentAddress()":"00821de3","setAutoFlush1155(bool)":"8acc01be","setAutoFlush721(bool)":"c59f9f19","supportsInterface(bytes4)":"01ffc9a7"},"id":3}