{"abi":[{"type":"fallback","stateMutability":"payable"},{"type":"receive","stateMutability":"payable"},{"type":"function","name":"autoFlush1155","inputs":[],"outputs":[{"name":"","type":"bool","internalType":"bool"}],"stateMutability":"view"},{"type":"function","name":"autoFlush721","inputs":[],"outputs":[{"name":"","type":"bool","internalType":"bool"}],"stateMutability":"view"},{"type":"function","name":"batchFlushERC1155Tokens","inputs":[{"name":"tokenContractAddress","type":"address","internalType":"address"},{"name":"tokenIds","type":"uint256[]","internalType":"uint256[]"}],"outputs":[],"stateMutability":"nonpayable"},{"type":"function","name":"batchFlushERC20Tokens","inputs":[{"name":"tokenContractAddresses","type":"address[]","internalType":"address[]"}],"outputs":[],"stateMutability":"nonpayable"},{"type":"function","name":"callFromParent","inputs":[{"name":"target","type":"address","internalType":"address"},{"name":"value","type":"uint256","internalType":"uint256"},{"name":"data","type":"bytes","internalType":"bytes"}],"outputs":[{"name":"","type":"bytes","internalType":"bytes"}],"stateMutability":"nonpayable"},{"type":"function","name":"feeAddress","inputs":[],"outputs":[{"name":"","type":"address","internalType":"address"}],"stateMutability":"view"},{"type":"function","name":"flush","inputs":[],"outputs":[],"stateMutability":"nonpayable"},{"type":"function","name":"flushERC1155Tokens","inputs":[{"name":"tokenContractAddress","type":"address","internalType":"address"},{"name":"tokenId","type":"uint256","internalType":"uint256"}],"outputs":[],"stateMutability":"nonpayable"},{"type":"function","name":"flushERC721Token","inputs":[{"name":"tokenContractAddress","type":"address","internalType":"address"},{"name":"tokenId","type":"uint256","internalType":"uint256"}],"outputs":[],"stateMutability":"nonpayable"},{"type":"function","name":"flushTokens","inputs":[{"name":"tokenContractAddress","type":"address","internalType":"address"}],"outputs":[],"stateMutability":"nonpayable"},{"type":"function","name":"init","inputs":[{"name":"_parentAddress","type":"address","internalType":"address"},{"name":"_feeAddress","type":"address","internalType":"address"},{"name":"_autoFlush721","type":"bool","internalType":"bool"},{"name":"_autoFlush1155","type":"bool","internalType":"bool"}],"outputs":[],"stateMutability":"nonpayable"},{"type":"function","name":"onERC1155BatchReceived","inputs":[{"name":"_operator","type":"address","internalType":"address"},{"name":"_from","type":"address","internalType":"address"},{"name":"ids","type":"uint256[]","internalType":"uint256[]"},{"name":"values","type":"uint256[]","internalType":"uint256[]"},{"name":"data","type":"bytes","internalType":"bytes"}],"outputs":[{"name":"","type":"bytes4","internalType":"bytes4"}],"stateMutability":"nonpayable"},{"type":"function","name":"onERC1155Received","inputs":[{"name":"_operator","type":"address","internalType":"address"},{"name":"_from","type":"address","internalType":"address"},{"name":"id","type":"uint256","internalType":"uint256"},{"name":"value","type":"uint256","internalType":"uint256"},{"name":"data","type":"bytes","internalType":"bytes"}],"outputs":[{"name":"","type":"bytes4","internalType":"bytes4"}],"stateMutability":"nonpayable"},{"type":"function","name":"onERC721Received","inputs":[{"name":"_operator","type":"address","internalType":"address"},{"name":"_from","type":"address","internalType":"address"},{"name":"_tokenId","type":"uint256","internalType":"uint256"},{"name":"data","type":"bytes","internalType":"bytes"}],"outputs":[{"name":"","type":"bytes4","internalType":"bytes4"}],"stateMutability":"nonpayable"},{"type":"function","name":"parentAddress","inputs":[],"outputs":[{"name":"","type":"address","internalType":"address"}],"stateMutability":"view"},{"type":"function","name":"setAutoFlush1155","inputs":[{"name":"autoFlush","type":"bool","internalType":"bool"}],"outputs":[],"stateMutability":"nonpayable"},{"type":"function","name":"setAutoFlush721","inputs":[{"name":"autoFlush","type":"bool","internalType":"bool"}],"outputs":[],"stateMutability":"nonpayable"},{"type":"function","name":"supportsInterface","inputs":[{"name":"interfaceId","type":"bytes4","internalType":"bytes4"}],"outputs":[{"name":"","type":"bool","internalType":"bool"}],"stateMutability":"view"},{"type":"event","name":"ForwarderDeposited","inputs":[{"name":"from","type":"address","indexed":false,"internalType":"address"},{"name":"value","type":"uint256","indexed":false,"internalType":"uint256"},{"name":"data","type":"bytes","indexed":false,"internalType":"bytes"}],"anonymous":false}],"bytecode":{"object":"0x60806040526001805461ffff60a01b191661010160a01b17905534801561002557600080fd5b50611ee3806100356000396000f3fe60806040526004361061010c5760003560e01c806377e60b3511610095578063bc197c8111610064578063bc197c8114610300578063c59f9f1914610320578063c6a2dd2414610340578063f23a6e6114610360578063f684e1ed146103805761011b565b806377e60b35146102725780638972c17c1461029f5780638acc01be146102bf578063bad23ab9146102df5761011b565b80632f738284116100dc5780632f738284146101dd5780633ef13367146101fd578063412753581461021d5780636b9f96ea1461023d57806371350aa1146102525761011b565b8062821de31461012357806301ffc9a714610160578063150b7a0214610190578063159e44d7146101bd5761011b565b3661011b576101196103a1565b005b6101196103a1565b34801561012f57600080fd5b50600054610143906001600160a01b031681565b6040516001600160a01b0390911681526020015b60405180910390f35b34801561016c57600080fd5b5061018061017b3660046115f1565b610487565b6040519015158152602001610157565b34801561019c57600080fd5b506101b06101ab3660046116ee565b6104b2565b604051610157919061175a565b3480156101c957600080fd5b506101196101d836600461176f565b610614565b3480156101e957600080fd5b506101196101f83660046117a9565b61081d565b34801561020957600080fd5b50610119610218366004611805565b610a40565b34801561022957600080fd5b50600154610143906001600160a01b031681565b34801561024957600080fd5b506101196103a1565b34801561025e57600080fd5b5061011961026d36600461186e565b610b19565b34801561027e57600080fd5b5061029261028d3660046118b0565b610c67565b6040516101579190611989565b3480156102ab57600080fd5b506101196102ba36600461176f565b610d6e565b3480156102cb57600080fd5b506101196102da36600461199c565b610f41565b3480156102eb57600080fd5b5060015461018090600160a81b900460ff1681565b34801561030c57600080fd5b506101b061031b366004611a39565b610f9e565b34801561032c57600080fd5b5061011961033b36600461199c565b6110ba565b34801561034c57600080fd5b5061011961035b366004611ae7565b611117565b34801561036c57600080fd5b506101b061037b366004611b3c565b611376565b34801561038c57600080fd5b5060015461018090600160a01b900460ff1681565b4760008190036103ae5750565b7f69b31548dea9b3b707b4dff357d326e3e9348b24e7a6080a218a6edeeec48f9b33826000366040516103e49493929190611ba5565b60405180910390a1600080546040516001600160a01b039091169083908381818185875af1925050503d8060008114610439576040519150601f19603f3d011682016040523d82523d6000602084013e61043e565b606091505b50509050806104835760405162461bcd60e51b815260206004820152600c60248201526b119b1d5cda0819985a5b195960a21b60448201526064015b60405180910390fd5b5050565b60006001600160e01b03198216632d6cfff760e11b14806104ac57506104ac82611492565b92915050565b600154600090600160a01b900460ff1615610603576040516301ffc9a760e01b8152339081906301ffc9a7906104f3906380ac58cd60e01b9060040161175a565b602060405180830381865afa158015610510573d6000803e3d6000fd5b505050506040513d601f19601f820116820180604052508101906105349190611bed565b6105995760405162461bcd60e51b815260206004820152603060248201527f5468652063616c6c657220646f6573206e6f7420737570706f7274207468652060448201526f45524337323120696e7465726661636560801b606482015260840161047a565b600054604051635c46a7ef60e11b81526001600160a01b038084169263b88d4fde926105cf923092169089908990600401611c0a565b600060405180830381600087803b1580156105e957600080fd5b505af11580156105fd573d6000803e3d6000fd5b50505050505b50630a85bd0160e11b949350505050565b6000546001600160a01b031633148061063757506001546001600160a01b031633145b6106535760405162461bcd60e51b815260040161047a90611c3d565b6040516301ffc9a760e01b815282906001600160a01b038216906301ffc9a790610688906380ac58cd60e01b9060040161175a565b602060405180830381865afa1580156106a5573d6000803e3d6000fd5b505050506040513d601f19601f820116820180604052508101906106c99190611bed565b61073b5760405162461bcd60e51b815260206004820152603e60248201527f54686520746f6b656e436f6e74726163744164647265737320646f6573206e6f60448201527f7420737570706f7274207468652045524337323120696e746572666163650000606482015260840161047a565b6040516331a9108f60e11b8152600481018390526000906001600160a01b03831690636352211e90602401602060405180830381865afa158015610783573d6000803e3d6000fd5b505050506040513d601f19601f820116820180604052508101906107a79190611c6d565b6000546040516323b872dd60e01b81526001600160a01b0380841660048301529182166024820152604481018690529192508316906323b872dd90606401600060405180830381600087803b1580156107ff57600080fd5b505af1158015610813573d6000803e3d6000fd5b5050505050505050565b6000546001600160a01b03161561086c5760405162461bcd60e51b8152602060048201526013602482015272105b1c9958591e481a5b9a5d1a585b1a5e9959606a1b604482015260640161047a565b6001600160a01b0384166108bb5760405162461bcd60e51b8152602060048201526016602482015275496e76616c696420706172656e74206164647265737360501b604482015260640161047a565b600080546001600160a01b0319166001600160a01b0386811691909117909155831661091f5760405162461bcd60e51b8152602060048201526013602482015272496e76616c696420666565206164647265737360681b604482015260640161047a565b600180546001600160a01b0385166001600160a81b031990911617600160a01b841515021760ff60a81b1916600160a81b831515021790554760008190036109675750610a3a565b7f69b31548dea9b3b707b4dff357d326e3e9348b24e7a6080a218a6edeeec48f9b308260003660405161099d9493929190611ba5565b60405180910390a1600080546040516001600160a01b039091169083908381818185875af1925050503d80600081146109f2576040519150601f19603f3d011682016040523d82523d6000602084013e6109f7565b606091505b5050905080610a375760405162461bcd60e51b815260206004820152600c60248201526b119b1d5cda0819985a5b195960a21b604482015260640161047a565b50505b50505050565b6000546001600160a01b0316331480610a6357506001546001600160a01b031633145b610a7f5760405162461bcd60e51b815260040161047a90611c3d565b6040516370a0823160e01b8152306004820181905282916000906001600160a01b038416906370a0823190602401602060405180830381865afa158015610aca573d6000803e3d6000fd5b505050506040513d601f19601f82011682018060405250810190610aee9190611c8a565b905080600003610afe5750505050565b600054610a3a9085906001600160a01b0316836114c7565b50565b6000546001600160a01b0316331480610b3c57506001546001600160a01b031633145b610b585760405162461bcd60e51b815260040161047a90611c3d565b308160005b81811015610c60576000858583818110610b7957610b79611ca3565b9050602002016020810190610b8e9190611805565b6040516370a0823160e01b81526001600160a01b0386811660048301529192506000918316906370a0823190602401602060405180830381865afa158015610bda573d6000803e3d6000fd5b505050506040513d601f19601f82011682018060405250810190610bfe9190611c8a565b905080600003610c0f575050610c4e565b610c4b878785818110610c2457610c24611ca3565b9050602002016020810190610c399190611805565b6000546001600160a01b0316836114c7565b50505b80610c5881611cb9565b915050610b5d565b5050505050565b6000546060906001600160a01b03163314610cb25760405162461bcd60e51b815260206004820152600b60248201526a13db9b1e4814185c995b9d60aa1b604482015260640161047a565b600080866001600160a01b0316868686604051610cd0929190611ce0565b60006040518083038185875af1925050503d8060008114610d0d576040519150601f19603f3d011682016040523d82523d6000602084013e610d12565b606091505b509150915081610d645760405162461bcd60e51b815260206004820152601c60248201527f506172656e742063616c6c20657865637574696f6e206661696c656400000000604482015260640161047a565b9695505050505050565b6000546001600160a01b0316331480610d9157506001546001600160a01b031633145b610dad5760405162461bcd60e51b815260040161047a90611c3d565b6040516301ffc9a760e01b815282906001600160a01b038216906301ffc9a790610de290636cdb3d1360e11b9060040161175a565b602060405180830381865afa158015610dff573d6000803e3d6000fd5b505050506040513d601f19601f82011682018060405250810190610e239190611bed565b610e3f5760405162461bcd60e51b815260040161047a90611cf0565b604051627eeac760e11b8152306004820181905260248201849052906000906001600160a01b0384169062fdd58e90604401602060405180830381865afa158015610e8e573d6000803e3d6000fd5b505050506040513d601f19601f82011682018060405250810190610eb29190611c8a565b60008054604051637921219560e11b81526001600160a01b0386811660048301529182166024820152604481018890526064810184905260a0608482015260a48101929092529192509084169063f242432a9060c401600060405180830381600087803b158015610f2257600080fd5b505af1158015610f36573d6000803e3d6000fd5b505050505050505050565b6000546001600160a01b0316331480610f6457506001546001600160a01b031633145b610f805760405162461bcd60e51b815260040161047a90611c3d565b60018054911515600160a81b0260ff60a81b19909216919091179055565b6040516301ffc9a760e01b8152600090339081906301ffc9a790610fcd90636cdb3d1360e11b9060040161175a565b602060405180830381865afa158015610fea573d6000803e3d6000fd5b505050506040513d601f19601f8201168201806040525081019061100e9190611bed565b61102a5760405162461bcd60e51b815260040161047a90611cf0565b600154600160a81b900460ff16156110a757600054604051631759616b60e11b81526001600160a01b0380841692632eb2c2d69261107492309216908a908a908a90600401611d7d565b600060405180830381600087803b15801561108e57600080fd5b505af11580156110a2573d6000803e3d6000fd5b505050505b5063bc197c8160e01b9695505050505050565b6000546001600160a01b03163314806110dd57506001546001600160a01b031633145b6110f95760405162461bcd60e51b815260040161047a90611c3d565b60018054911515600160a01b0260ff60a01b19909216919091179055565b6000546001600160a01b031633148061113a57506001546001600160a01b031633145b6111565760405162461bcd60e51b815260040161047a90611c3d565b6040516301ffc9a760e01b815283906001600160a01b038216906301ffc9a79061118b90636cdb3d1360e11b9060040161175a565b602060405180830381865afa1580156111a8573d6000803e3d6000fd5b505050506040513d601f19601f820116820180604052508101906111cc9190611bed565b6111e85760405162461bcd60e51b815260040161047a90611cf0565b308260008167ffffffffffffffff81111561120557611205611637565b60405190808252806020026020018201604052801561122e578160200160208202803683370190505b50905060005b8281101561130257846001600160a01b031662fdd58e8589898581811061125d5761125d611ca3565b6040516001600160e01b031960e087901b1681526001600160a01b0390941660048501526020029190910135602483015250604401602060405180830381865afa1580156112af573d6000803e3d6000fd5b505050506040513d601f19601f820116820180604052508101906112d39190611c8a565b8282815181106112e5576112e5611ca3565b6020908102919091010152806112fa81611cb9565b915050611234565b50600054604051631759616b60e11b81526001600160a01b0380871692632eb2c2d69261133b92889216908b908b908890600401611ddb565b600060405180830381600087803b15801561135557600080fd5b505af1158015611369573d6000803e3d6000fd5b5050505050505050505050565b6040516301ffc9a760e01b8152600090339081906301ffc9a7906113a590636cdb3d1360e11b9060040161175a565b602060405180830381865afa1580156113c2573d6000803e3d6000fd5b505050506040513d601f19601f820116820180604052508101906113e69190611bed565b6114025760405162461bcd60e51b815260040161047a90611cf0565b600154600160a81b900460ff161561147f57600054604051637921219560e11b81526001600160a01b038084169263f242432a9261144c92309216908a908a908a90600401611e57565b600060405180830381600087803b15801561146657600080fd5b505af115801561147a573d6000803e3d6000fd5b505050505b5063f23a6e6160e01b9695505050505050565b60006001600160e01b03198216630271189760e51b14806104ac57506301ffc9a760e01b6001600160e01b03198316146104ac565b604080516001600160a01b038481166024830152604480830185905283518084039091018152606490920183526020820180516001600160e01b031663a9059cbb60e01b17905291516000928392908716916115239190611e91565b6000604051808303816000865af19150503d8060008114611560576040519150601f19603f3d011682016040523d82523d6000602084013e611565565b606091505b509150915081801561158f57508051158061158f57508080602001905181019061158f9190611bed565b610c605760405162461bcd60e51b815260206004820152602d60248201527f5472616e7366657248656c7065723a3a736166655472616e736665723a20747260448201526c185b9cd9995c8819985a5b1959609a1b606482015260840161047a565b60006020828403121561160357600080fd5b81356001600160e01b03198116811461161b57600080fd5b9392505050565b6001600160a01b0381168114610b1657600080fd5b634e487b7160e01b600052604160045260246000fd5b604051601f8201601f1916810167ffffffffffffffff8111828210171561167657611676611637565b604052919050565b600082601f83011261168f57600080fd5b813567ffffffffffffffff8111156116a9576116a9611637565b6116bc601f8201601f191660200161164d565b8181528460208386010111156116d157600080fd5b816020850160208301376000918101602001919091529392505050565b6000806000806080858703121561170457600080fd5b843561170f81611622565b9350602085013561171f81611622565b925060408501359150606085013567ffffffffffffffff81111561174257600080fd5b61174e8782880161167e565b91505092959194509250565b6001600160e01b031991909116815260200190565b6000806040838503121561178257600080fd5b823561178d81611622565b946020939093013593505050565b8015158114610b1657600080fd5b600080600080608085870312156117bf57600080fd5b84356117ca81611622565b935060208501356117da81611622565b925060408501356117ea8161179b565b915060608501356117fa8161179b565b939692955090935050565b60006020828403121561181757600080fd5b813561161b81611622565b60008083601f84011261183457600080fd5b50813567ffffffffffffffff81111561184c57600080fd5b6020830191508360208260051b850101111561186757600080fd5b9250929050565b6000806020838503121561188157600080fd5b823567ffffffffffffffff81111561189857600080fd5b6118a485828601611822565b90969095509350505050565b600080600080606085870312156118c657600080fd5b84356118d181611622565b935060208501359250604085013567ffffffffffffffff808211156118f557600080fd5b818701915087601f83011261190957600080fd5b81358181111561191857600080fd5b88602082850101111561192a57600080fd5b95989497505060200194505050565b60005b8381101561195457818101518382015260200161193c565b50506000910152565b60008151808452611975816020860160208601611939565b601f01601f19169290920160200192915050565b60208152600061161b602083018461195d565b6000602082840312156119ae57600080fd5b813561161b8161179b565b600082601f8301126119ca57600080fd5b8135602067ffffffffffffffff8211156119e6576119e6611637565b8160051b6119f582820161164d565b9283528481018201928281019087851115611a0f57600080fd5b83870192505b84831015611a2e57823582529183019190830190611a15565b979650505050505050565b600080600080600060a08688031215611a5157600080fd5b8535611a5c81611622565b94506020860135611a6c81611622565b9350604086013567ffffffffffffffff80821115611a8957600080fd5b611a9589838a016119b9565b94506060880135915080821115611aab57600080fd5b611ab789838a016119b9565b93506080880135915080821115611acd57600080fd5b50611ada8882890161167e565b9150509295509295909350565b600080600060408486031215611afc57600080fd5b8335611b0781611622565b9250602084013567ffffffffffffffff811115611b2357600080fd5b611b2f86828701611822565b9497909650939450505050565b600080600080600060a08688031215611b5457600080fd5b8535611b5f81611622565b94506020860135611b6f81611622565b93506040860135925060608601359150608086013567ffffffffffffffff811115611b9957600080fd5b611ada8882890161167e565b6001600160a01b0385168152602081018490526060604082018190528101829052818360808301376000818301608090810191909152601f909201601f191601019392505050565b600060208284031215611bff57600080fd5b815161161b8161179b565b6001600160a01b0385811682528416602082015260408101839052608060608201819052600090610d649083018461195d565b6020808252601690820152751059191c995cdcc81a5cc81b9bdd08185b1b1bddd95960521b604082015260600190565b600060208284031215611c7f57600080fd5b815161161b81611622565b600060208284031215611c9c57600080fd5b5051919050565b634e487b7160e01b600052603260045260246000fd5b600060018201611cd957634e487b7160e01b600052601160045260246000fd5b5060010190565b8183823760009101908152919050565b60208082526032908201527f5468652063616c6c657220646f6573206e6f7420737570706f72742074686520604082015271494552433131353520696e7465726661636560701b606082015260800190565b600081518084526020808501945080840160005b83811015611d7257815187529582019590820190600101611d56565b509495945050505050565b6001600160a01b0386811682528516602082015260a060408201819052600090611da990830186611d42565b8281036060840152611dbb8186611d42565b90508281036080840152611dcf818561195d565b98975050505050505050565b6001600160a01b0386811682528516602082015260a060408201819052810183905260006001600160fb1b03841115611e1357600080fd5b8360051b808660c0850137820182810360c09081016060850152611e3990820185611d42565b83810360809094019390935250506000815260200195945050505050565b6001600160a01b03868116825285166020820152604081018490526060810183905260a060808201819052600090611a2e9083018461195d565b60008251611ea3818460208701611939565b919091019291505056fea2646970667358221220a8937af282f936161a655871e3ddfc28173e8a98167ec41654d743065fd7fbbd64736f6c63430008140033","linkReferences":{}},"methodIdentifiers":{"autoFlush1155()":"bad23ab9","autoFlush721()":"f684e1ed","batchFlushERC1155Tokens(address,uint256[])":"c6a2dd24","batchFlushERC20Tokens(address[])":"71350aa1","callFromParent(address,uint256,bytes)":"77e60b35","feeAddress()":"41275358","flush()":"6b9f96ea","flushERC1155Tokens(address,uint256)":"8972c17c","flushERC721Token(address,uint256)":"159e44d7","flushTokens(address)":"3ef13367","init(address,address,bool,bool)":"2f738284","onERC1155BatchReceived(address,address,uint256[],uint256[],bytes)":"bc197c81","onERC1155Received(address,address,uint256,uint256,bytes)":"f23a6e61","onERC721Received(address,address,uint256,bytes)":"150b7a02","parentAddress()":"00821de3","setAutoFlush1155(bool)":"8acc01be","setAutoFlush721(bool)":"c59f9f19","supportsInterface(bytes4)":"01ffc9a7"},"id":6}