{"abi":[{"type":"constructor","inputs":[{"name":"_implementationAddress","type":"address","internalType":"address"}],"stateMutability":"nonpayable"},{"type":"function","name":"createWallet","inputs":[{"name":"allowedSigners","type":"address[]","internalType":"address[]"},{"name":"salt","type":"bytes32","internalType":"bytes32"}],"outputs":[],"stateMutability":"nonpayable"},{"type":"function","name":"implementationAddress","inputs":[],"outputs":[{"name":"","type":"address","internalType":"address"}],"stateMutability":"view"}],"bytecode":{"object":"0x60a060405234801561001057600080fd5b506040516103b53803806103b583398101604081905261002f91610040565b6001600160a01b0316608052610070565b60006020828403121561005257600080fd5b81516001600160a01b038116811461006957600080fd5b9392505050565b608051610325610090600039600081816055015260c901526103256000f3fe608060405234801561001057600080fd5b50600436106100365760003560e01c80637117f3fa1461003b578063b97a231914610050575b600080fd5b61004e6100493660046101db565b610093565b005b6100777f000000000000000000000000000000000000000000000000000000000000000081565b6040516001600160a01b03909116815260200160405180910390f35b60008383836040516020016100aa93929190610272565b60405160208183030381529060405280519060200120905060006100ee7f000000000000000000000000000000000000000000000000000000000000000083610187565b9050806001600160a01b03166319ab453c86866002818110610112576101126102b7565b905060200201602081019061012791906102cd565b6040516001600160e01b031960e084901b1681526001600160a01b039091166004820152602401600060405180830381600087803b15801561016857600080fd5b505af115801561017c573d6000803e3d6000fd5b505050505050505050565b6000808360601b9050604051733d602d80600a3d3981f3363d3d373d3d3d363d7360601b81528160148201526e5af43d82803e903d91602b57fd5bf360881b6028820152836037826000f595945050505050565b6000806000604084860312156101f057600080fd5b833567ffffffffffffffff8082111561020857600080fd5b818601915086601f83011261021c57600080fd5b81358181111561022b57600080fd5b8760208260051b850101111561024057600080fd5b6020928301989097509590910135949350505050565b80356001600160a01b038116811461026d57600080fd5b919050565b60008185825b868110156102a7576001600160a01b0361029183610256565b1683526020928301929190910190600101610278565b5050928352505060200192915050565b634e487b7160e01b600052603260045260246000fd5b6000602082840312156102df57600080fd5b6102e882610256565b939250505056fea26469706673582212207932d2ca9c1520af05fc3b15429b2e2d95f8bb476fe9c815cbb3dcd693c9507864736f6c63430008140033","linkReferences":{}},"methodIdentifiers":{"createWallet(address[],bytes32)":"7117f3fa","implementationAddress()":"b97a2319"},"id":19}