{"abi":[{"type":"function","name":"callFromParent","inputs":[{"name":"target","type":"address","internalType":"address"},{"name":"value","type":"uint256","internalType":"uint256"},{"name":"data","type":"bytes","internalType":"bytes"}],"outputs":[],"stateMutability":"nonpayable"},{"type":"function","name":"dataCall","inputs":[{"name":"target","type":"address","internalType":"address"},{"name":"value","type":"uint256","internalType":"uint256"},{"name":"data","type":"bytes","internalType":"bytes"}],"outputs":[],"stateMutability":"nonpayable"},{"type":"function","name":"onERC1155BatchReceived","inputs":[{"name":"_operator","type":"address","internalType":"address"},{"name":"_from","type":"address","internalType":"address"},{"name":"ids","type":"uint256[]","internalType":"uint256[]"},{"name":"values","type":"uint256[]","internalType":"uint256[]"},{"name":"data","type":"bytes","internalType":"bytes"}],"outputs":[{"name":"","type":"bytes4","internalType":"bytes4"}],"stateMutability":"nonpayable"},{"type":"function","name":"onERC1155Received","inputs":[{"name":"_operator","type":"address","internalType":"address"},{"name":"_from","type":"address","internalType":"address"},{"name":"id","type":"uint256","internalType":"uint256"},{"name":"value","type":"uint256","internalType":"uint256"},{"name":"data","type":"bytes","internalType":"bytes"}],"outputs":[{"name":"","type":"bytes4","internalType":"bytes4"}],"stateMutability":"nonpayable"},{"type":"function","name":"onERC721Received","inputs":[{"name":"_operator","type":"address","internalType":"address"},{"name":"_from","type":"address","internalType":"address"},{"name":"_tokenId","type":"uint256","internalType":"uint256"},{"name":"_data","type":"bytes","internalType":"bytes"}],"outputs":[{"name":"","type":"bytes4","internalType":"bytes4"}],"stateMutability":"nonpayable"},{"type":"function","name":"setForwarder","inputs":[{"name":"_forwarder","type":"address","internalType":"address"}],"outputs":[],"stateMutability":"nonpayable"},{"type":"function","name":"setReentry","inputs":[{"name":"_reentry","type":"bool","internalType":"bool"}],"outputs":[],"stateMutability":"nonpayable"}],"bytecode":{"object":"0x60806040526000805460ff1916905534801561001a57600080fd5b50610c5c8061002a6000396000f3fe608060405234801561001057600080fd5b506004361061007d5760003560e01c8063b9998a241161005b578063b9998a24146100e8578063bc197c811461011e578063e9291e2e14610131578063f23a6e611461014457600080fd5b8063150b7a021461008257806377e60b35146100b25780639310fbf0146100c7575b600080fd5b6100956100903660046107a0565b610157565b6040516001600160e01b0319909116815260200160405180910390f35b6100c56100c0366004610808565b610285565b005b6100c56100d536600461088f565b6000805460ff1916911515919091179055565b6100c56100f63660046108b8565b600080546001600160a01b0390921661010002610100600160a81b0319909216919091179055565b61009561012c366004610953565b61037b565b6100c561013f366004610808565b6104ad565b6100956101523660046109fd565b6105a0565b6000805460ff161561027457600080546040516101009091046001600160a01b03169061018e908890889088908890602401610ab2565b60408051601f198184030181529181526020820180516001600160e01b0316630a85bd0160e11b179052516101c39190610aef565b6000604051808303816000865af19150503d8060008114610200576040519150601f19603f3d011682016040523d82523d6000602084013e610205565b606091505b50509050806102725760405162461bcd60e51b815260206004820152602e60248201527f5265656e747279466f727761726465723a206f6e45524337323152656365697660448201526d19590819985a5b19590818d85b1b60921b60648201526084015b60405180910390fd5b505b50630a85bd0160e11b949350505050565b60005460ff161561037557600080546040516101009091046001600160a01b0316906102bb908790879087908790602401610b0b565b60408051601f198184030181529181526020820180516001600160e01b03166377e60b3560e01b179052516102f09190610aef565b6000604051808303816000865af19150503d806000811461032d576040519150601f19603f3d011682016040523d82523d6000602084013e610332565b606091505b50509050806103735760405162461bcd60e51b815260206004820152600d60248201526c105d1d1858dac819985a5b1959609a1b6044820152606401610269565b505b50505050565b6000805460ff161561049b57600080546040516101009091046001600160a01b0316906103b49089908990899089908990602401610b8e565b60408051601f198184030181529181526020820180516001600160e01b031663bc197c8160e01b179052516103e99190610aef565b6000604051808303816000865af19150503d8060008114610426576040519150601f19603f3d011682016040523d82523d6000602084013e61042b565b606091505b50509050806104995760405162461bcd60e51b815260206004820152603460248201527f5265656e747279466f727761726465723a206f6e455243313135354261746368604482015273149958d95a5d99590819985a5b19590818d85b1b60621b6064820152608401610269565b505b5063bc197c8160e01b95945050505050565b600080546040516101009091046001600160a01b0316906104d8908790879087908790602401610b0b565b60408051601f198184030181529181526020820180516001600160e01b03166377e60b3560e01b1790525161050d9190610aef565b6000604051808303816000865af19150503d806000811461054a576040519150601f19603f3d011682016040523d82523d6000602084013e61054f565b606091505b50509050806103735760405162461bcd60e51b815260206004820152601960248201527f6461746143616c6c20657865637574696f6e206661696c6564000000000000006044820152606401610269565b6000805460ff16156106bb57600080546040516101009091046001600160a01b0316906105d99089908990899089908990602401610bec565b60408051601f198184030181529181526020820180516001600160e01b031663f23a6e6160e01b1790525161060e9190610aef565b6000604051808303816000865af19150503d806000811461064b576040519150601f19603f3d011682016040523d82523d6000602084013e610650565b606091505b50509050806106b95760405162461bcd60e51b815260206004820152602f60248201527f5265656e747279466f727761726465723a206f6e45524331313535526563656960448201526e1d99590819985a5b19590818d85b1b608a1b6064820152608401610269565b505b5063f23a6e6160e01b95945050505050565b80356001600160a01b03811681146106e457600080fd5b919050565b634e487b7160e01b600052604160045260246000fd5b604051601f8201601f1916810167ffffffffffffffff81118282101715610728576107286106e9565b604052919050565b600082601f83011261074157600080fd5b813567ffffffffffffffff81111561075b5761075b6106e9565b61076e601f8201601f19166020016106ff565b81815284602083860101111561078357600080fd5b816020850160208301376000918101602001919091529392505050565b600080600080608085870312156107b657600080fd5b6107bf856106cd565b93506107cd602086016106cd565b925060408501359150606085013567ffffffffffffffff8111156107f057600080fd5b6107fc87828801610730565b91505092959194509250565b6000806000806060858703121561081e57600080fd5b610827856106cd565b935060208501359250604085013567ffffffffffffffff8082111561084b57600080fd5b818701915087601f83011261085f57600080fd5b81358181111561086e57600080fd5b88602082850101111561088057600080fd5b95989497505060200194505050565b6000602082840312156108a157600080fd5b813580151581146108b157600080fd5b9392505050565b6000602082840312156108ca57600080fd5b6108b1826106cd565b600082601f8301126108e457600080fd5b8135602067ffffffffffffffff821115610900576109006106e9565b8160051b61090f8282016106ff565b928352848101820192828101908785111561092957600080fd5b83870192505b848310156109485782358252918301919083019061092f565b979650505050505050565b600080600080600060a0868803121561096b57600080fd5b610974866106cd565b9450610982602087016106cd565b9350604086013567ffffffffffffffff8082111561099f57600080fd5b6109ab89838a016108d3565b945060608801359150808211156109c157600080fd5b6109cd89838a016108d3565b935060808801359150808211156109e357600080fd5b506109f088828901610730565b9150509295509295909350565b600080600080600060a08688031215610a1557600080fd5b610a1e866106cd565b9450610a2c602087016106cd565b93506040860135925060608601359150608086013567ffffffffffffffff811115610a5657600080fd5b6109f088828901610730565b60005b83811015610a7d578181015183820152602001610a65565b50506000910152565b60008151808452610a9e816020860160208601610a62565b601f01601f19169290920160200192915050565b6001600160a01b0385811682528416602082015260408101839052608060608201819052600090610ae590830184610a86565b9695505050505050565b60008251610b01818460208701610a62565b9190910192915050565b6001600160a01b0385168152602081018490526060604082018190528101829052818360808301376000818301608090810191909152601f909201601f191601019392505050565b600081518084526020808501945080840160005b83811015610b8357815187529582019590820190600101610b67565b509495945050505050565b6001600160a01b0386811682528516602082015260a060408201819052600090610bba90830186610b53565b8281036060840152610bcc8186610b53565b90508281036080840152610be08185610a86565b98975050505050505050565b6001600160a01b03868116825285166020820152604081018490526060810183905260a06080820181905260009061094890830184610a8656fea2646970667358221220391e822c86f2f61fa9447648e37623e5bb36ee9d96daae135803bc9d2fa8904a64736f6c63430008140033","linkReferences":{}},"methodIdentifiers":{"callFromParent(address,uint256,bytes)":"77e60b35","dataCall(address,uint256,bytes)":"e9291e2e","onERC1155BatchReceived(address,address,uint256[],uint256[],bytes)":"bc197c81","onERC1155Received(address,address,uint256,uint256,bytes)":"f23a6e61","onERC721Received(address,address,uint256,bytes)":"150b7a02","setForwarder(address)":"b9998a24","setReentry(bool)":"9310fbf0"},"id":30}