{"abi":[{"type":"fallback","stateMutability":"payable"},{"type":"receive","stateMutability":"payable"},{"type":"function","name":"x","inputs":[],"outputs":[{"name":"","type":"uint256","internalType":"uint256"}],"stateMutability":"view"}],"bytecode":{"object":"0x6080604052600160005534801561001557600080fd5b50610110806100256000396000f3fe608060405260043610601f5760003560e01c80630c55699c14607457604c565b36604c575b60008054908060318360b0565b909155505060008054908060438360c6565b91905055506024565b60008054908060598360b0565b9091555050600080549080606b8360c6565b9190505550604c565b348015607f57600080fd5b50608860005481565b60405190815260200160405180910390f35b634e487b7160e01b600052601160045260246000fd5b60006001820160bf5760bf609a565b5060010190565b60008160d25760d2609a565b50600019019056fea2646970667358221220fada3a56f11f0504d40b545aa4d4ee3f06beb3310331ed6b588a6506f7fe379c64736f6c63430008140033","linkReferences":{}},"methodIdentifiers":{"x()":"0c55699c"},"id":14}