{"abi":[{"type":"constructor","inputs":[{"name":"_initialSupply","type":"uint256","internalType":"uint256"},{"name":"_name","type":"string","internalType":"string"},{"name":"_symbol","type":"string","internalType":"string"},{"name":"_decimals","type":"uint256","internalType":"uint256"}],"stateMutability":"nonpayable"},{"type":"function","name":"MAX_UINT","inputs":[],"outputs":[{"name":"","type":"uint256","internalType":"uint256"}],"stateMutability":"view"},{"type":"function","name":"_totalSupply","inputs":[],"outputs":[{"name":"","type":"uint256","internalType":"uint256"}],"stateMutability":"view"},{"type":"function","name":"addBlackList","inputs":[{"name":"_evilUser","type":"address","internalType":"address"}],"outputs":[],"stateMutability":"nonpayable"},{"type":"function","name":"allowance","inputs":[{"name":"_owner","type":"address","internalType":"address"},{"name":"_spender","type":"address","internalType":"address"}],"outputs":[{"name":"remaining","type":"uint256","internalType":"uint256"}],"stateMutability":"nonpayable"},{"type":"function","name":"allowed","inputs":[{"name":"","type":"address","internalType":"address"},{"name":"","type":"address","internalType":"address"}],"outputs":[{"name":"","type":"uint256","internalType":"uint256"}],"stateMutability":"view"},{"type":"function","name":"approve","inputs":[{"name":"_spender","type":"address","internalType":"address"},{"name":"_value","type":"uint256","internalType":"uint256"}],"outputs":[],"stateMutability":"nonpayable"},{"type":"function","name":"balanceOf","inputs":[{"name":"who","type":"address","internalType":"address"}],"outputs":[{"name":"","type":"uint256","internalType":"uint256"}],"stateMutability":"nonpayable"},{"type":"function","name":"balances","inputs":[{"name":"","type":"address","internalType":"address"}],"outputs":[{"name":"","type":"uint256","internalType":"uint256"}],"stateMutability":"view"},{"type":"function","name":"basisPointsRate","inputs":[],"outputs":[{"name":"","type":"uint256","internalType":"uint256"}],"stateMutability":"view"},{"type":"function","name":"decimals","inputs":[],"outputs":[{"name":"","type":"uint256","internalType":"uint256"}],"stateMutability":"view"},{"type":"function","name":"deprecate","inputs":[{"name":"_upgradedAddress","type":"address","internalType":"address"}],"outputs":[],"stateMutability":"nonpayable"},{"type":"function","name":"deprecated","inputs":[],"outputs":[{"name":"","type":"bool","internalType":"bool"}],"stateMutability":"view"},{"type":"function","name":"destroyBlackFunds","inputs":[{"name":"_blackListedUser","type":"address","internalType":"address"}],"outputs":[],"stateMutability":"nonpayable"},{"type":"function","name":"getBlackListStatus","inputs":[{"name":"_maker","type":"address","internalType":"address"}],"outputs":[{"name":"","type":"bool","internalType":"bool"}],"stateMutability":"nonpayable"},{"type":"function","name":"getOwner","inputs":[],"outputs":[{"name":"","type":"address","internalType":"address"}],"stateMutability":"nonpayable"},{"type":"function","name":"isBlackListed","inputs":[{"name":"","type":"address","internalType":"address"}],"outputs":[{"name":"","type":"bool","internalType":"bool"}],"stateMutability":"view"},{"type":"function","name":"issue","inputs":[{"name":"amount","type":"uint256","internalType":"uint256"}],"outputs":[],"stateMutability":"nonpayable"},{"type":"function","name":"maximumFee","inputs":[],"outputs":[{"name":"","type":"uint256","internalType":"uint256"}],"stateMutability":"view"},{"type":"function","name":"name","inputs":[],"outputs":[{"name":"","type":"string","internalType":"string"}],"stateMutability":"view"},{"type":"function","name":"owner","inputs":[],"outputs":[{"name":"","type":"address","internalType":"address"}],"stateMutability":"view"},{"type":"function","name":"pause","inputs":[],"outputs":[],"stateMutability":"nonpayable"},{"type":"function","name":"paused","inputs":[],"outputs":[{"name":"","type":"bool","internalType":"bool"}],"stateMutability":"view"},{"type":"function","name":"redeem","inputs":[{"name":"amount","type":"uint256","internalType":"uint256"}],"outputs":[],"stateMutability":"nonpayable"},{"type":"function","name":"removeBlackList","inputs":[{"name":"_clearedUser","type":"address","internalType":"address"}],"outputs":[],"stateMutability":"nonpayable"},{"type":"function","name":"setParams","inputs":[{"name":"newBasisPoints","type":"uint256","internalType":"uint256"},{"name":"newMaxFee","type":"uint256","internalType":"uint256"}],"outputs":[],"stateMutability":"nonpayable"},{"type":"function","name":"symbol","inputs":[],"outputs":[{"name":"","type":"string","internalType":"string"}],"stateMutability":"view"},{"type":"function","name":"totalSupply","inputs":[],"outputs":[{"name":"","type":"uint256","internalType":"uint256"}],"stateMutability":"nonpayable"},{"type":"function","name":"transfer","inputs":[{"name":"_to","type":"address","internalType":"address"},{"name":"_value","type":"uint256","internalType":"uint256"}],"outputs":[],"stateMutability":"nonpayable"},{"type":"function","name":"transferFrom","inputs":[{"name":"_from","type":"address","internalType":"address"},{"name":"_to","type":"address","internalType":"address"},{"name":"_value","type":"uint256","internalType":"uint256"}],"outputs":[],"stateMutability":"nonpayable"},{"type":"function","name":"transferOwnership","inputs":[{"name":"newOwner","type":"address","internalType":"address"}],"outputs":[],"stateMutability":"nonpayable"},{"type":"function","name":"unpause","inputs":[],"outputs":[],"stateMutability":"nonpayable"},{"type":"function","name":"upgradedAddress","inputs":[],"outputs":[{"name":"","type":"address","internalType":"address"}],"stateMutability":"view"},{"type":"event","name":"AddedBlackList","inputs":[{"name":"_user","type":"address","indexed":false,"internalType":"address"}],"anonymous":false},{"type":"event","name":"Approval","inputs":[{"name":"owner","type":"address","indexed":true,"internalType":"address"},{"name":"spender","type":"address","indexed":true,"internalType":"address"},{"name":"value","type":"uint256","indexed":false,"internalType":"uint256"}],"anonymous":false},{"type":"event","name":"Deprecate","inputs":[{"name":"newAddress","type":"address","indexed":false,"internalType":"address"}],"anonymous":false},{"type":"event","name":"DestroyedBlackFunds","inputs":[{"name":"_blackListedUser","type":"address","indexed":false,"internalType":"address"},{"name":"_balance","type":"uint256","indexed":false,"internalType":"uint256"}],"anonymous":false},{"type":"event","name":"Issue","inputs":[{"name":"amount","type":"uint256","indexed":false,"internalType":"uint256"}],"anonymous":false},{"type":"event","name":"Params","inputs":[{"name":"feeBasisPoints","type":"uint256","indexed":false,"internalType":"uint256"},{"name":"maxFee","type":"uint256","indexed":false,"internalType":"uint256"}],"anonymous":false},{"type":"event","name":"Pause","inputs":[],"anonymous":false},{"type":"event","name":"Redeem","inputs":[{"name":"amount","type":"uint256","indexed":false,"internalType":"uint256"}],"anonymous":false},{"type":"event","name":"RemovedBlackList","inputs":[{"name":"_user","type":"address","indexed":false,"internalType":"address"}],"anonymous":false},{"type":"event","name":"Transfer","inputs":[{"name":"from","type":"address","indexed":true,"internalType":"address"},{"name":"to","type":"address","indexed":true,"internalType":"address"},{"name":"value","type":"uint256","indexed":false,"internalType":"uint256"}],"anonymous":false},{"type":"event","name":"Unpause","inputs":[],"anonymous":false}],"bytecode":{"object":"0x60806040526000805460ff60a01b1916815560038190556004556000196006553480156200002c57600080fd5b50604051620019c6380380620019c68339810160408190526200004f916200017a565b600080546001600160a01b031916331790556001849055600862000074848262000285565b50600962000083838262000285565b50600a555050600080546001600160a01b0316815260026020526040902055600b805460ff60a01b1916905562000351565b634e487b7160e01b600052604160045260246000fd5b600082601f830112620000dd57600080fd5b81516001600160401b0380821115620000fa57620000fa620000b5565b604051601f8301601f19908116603f01168101908282118183101715620001255762000125620000b5565b816040528381526020925086838588010111156200014257600080fd5b600091505b8382101562000166578582018301518183018401529082019062000147565b600093810190920192909252949350505050565b600080600080608085870312156200019157600080fd5b845160208601519094506001600160401b0380821115620001b157600080fd5b620001bf88838901620000cb565b94506040870151915080821115620001d657600080fd5b50620001e587828801620000cb565b606096909601519497939650505050565b600181811c908216806200020b57607f821691505b6020821081036200022c57634e487b7160e01b600052602260045260246000fd5b50919050565b601f8211156200028057600081815260208120601f850160051c810160208610156200025b5750805b601f850160051c820191505b818110156200027c5782815560010162000267565b5050505b505050565b81516001600160401b03811115620002a157620002a1620000b5565b620002b981620002b28454620001f6565b8462000232565b602080601f831160018114620002f15760008415620002d85750858301515b600019600386901b1c1916600185901b1785556200027c565b600085815260208120601f198616915b82811015620003225788860151825594840194600190910190840162000301565b5085821015620003415787850151600019600388901b60f8161c191681555b5050505050600190811b01905550565b61166580620003616000396000f3fe608060405234801561001057600080fd5b50600436106101f05760003560e01c806370a082311161010f578063db006a75116100a2578063e4997dc511610071578063e4997dc514610446578063e5b5019a14610459578063f2fde38b14610462578063f3bdc2281461047557600080fd5b8063db006a75146103f4578063dd62ed3e14610407578063dd644f721461041a578063e47d60601461042357600080fd5b806395d89b41116100de57806395d89b41146103b3578063a9059cbb146103bb578063c0324c77146103ce578063cc872b66146103e157600080fd5b806370a08231146103745780638456cb5914610387578063893d20e81461038f5780638da5cb5b146103a057600080fd5b806327e235e3116101875780633f4ba83a116101565780633f4ba83a1461030157806359bf1abe146103095780635c658165146103355780635c975abb1461036057600080fd5b806327e235e3146102c6578063313ce567146102e657806335390714146102ef5780633eaaf86b146102f857600080fd5b80630ecb93c0116101c35780630ecb93c01461025f57806318160ddd1461027257806323b872dd1461028857806326976e3f1461029b57600080fd5b806306fdde03146101f55780630753c30c14610213578063095ea7b3146102285780630e136b191461023b575b600080fd5b6101fd610488565b60405161020a91906112ed565b60405180910390f35b610226610221366004611352565b610516565b005b61022661023636600461136d565b610589565b600b5461024f90600160a01b900460ff1681565b604051901515815260200161020a565b61022661026d366004611352565b610635565b61027a6106a0565b60405190815260200161020a565b610226610296366004611397565b61073a565b600b546102ae906001600160a01b031681565b6040516001600160a01b03909116815260200161020a565b61027a6102d4366004611352565b60026020526000908152604090205481565b61027a600a5481565b61027a60045481565b61027a60015481565b6102266107db565b61024f610317366004611352565b6001600160a01b031660009081526007602052604090205460ff1690565b61027a6103433660046113d3565b600560209081526000928352604080842090915290825290205481565b60005461024f90600160a01b900460ff1681565b61027a610382366004611352565b61083e565b6102266108ec565b6000546001600160a01b03166102ae565b6000546102ae906001600160a01b031681565b6101fd610956565b6102266103c936600461136d565b610963565b6102266103dc366004611406565b610a27565b6102266103ef366004611428565b610ac0565b610226610402366004611428565b610b91565b61027a6104153660046113d3565b610c50565b61027a60035481565b61024f610431366004611352565b60076020526000908152604090205460ff1681565b610226610454366004611352565b610d0f565b61027a60065481565b610226610470366004611352565b610d77565b610226610483366004611352565b610dbc565b6008805461049590611441565b80601f01602080910402602001604051908101604052809291908181526020018280546104c190611441565b801561050e5780601f106104e35761010080835404028352916020019161050e565b820191906000526020600020905b8154815290600101906020018083116104f157829003601f168201915b505050505081565b6000546001600160a01b0316331461052d57600080fd5b600b80546001600160a01b0383166001600160a81b03199091168117600160a01b179091556040519081527fcc358699805e9a8b7f77b522628c7cb9abd07d9efb86b6fb616af1609036a99e906020015b60405180910390a150565b6040610596816004611491565b3610156105a257600080fd5b600b54600160a01b900460ff161561062657600b5460405163aee92d3360e01b81523360048201526001600160a01b038581166024830152604482018590529091169063aee92d33906064015b600060405180830381600087803b15801561060957600080fd5b505af115801561061d573d6000803e3d6000fd5b50505050505050565b6106308383610e79565b505050565b6000546001600160a01b0316331461064c57600080fd5b6001600160a01b038116600081815260076020908152604091829020805460ff1916600117905590519182527f42e160154868087d6bfdc0ca23d96a1c1cfa32f1b72ba9ba27b69b98a0d819dc910161057e565b600b54600090600160a01b900460ff161561073357600b60009054906101000a90046001600160a01b03166001600160a01b03166318160ddd6040518163ffffffff1660e01b81526004016020604051808303816000875af115801561070a573d6000803e3d6000fd5b505050506040513d601f19601f8201168201806040525081019061072e91906114a4565b905090565b5060015490565b600054600160a01b900460ff161561075157600080fd5b6001600160a01b03831660009081526007602052604090205460ff161561077757600080fd5b600b54600160a01b900460ff16156107d057600b54604051638b477adb60e01b81523360048201526001600160a01b03858116602483015284811660448301526064820184905290911690638b477adb906084016105ef565b610630838383610f2d565b6000546001600160a01b031633146107f257600080fd5b600054600160a01b900460ff1661080857600080fd5b6000805460ff60a01b191681556040517f7805862f689e2f13df9f062ff482ad3ad112aca9e0847911ed832e158c525b339190a1565b600b54600090600160a01b900460ff16156108c957600b546040516370a0823160e01b81526001600160a01b038481166004830152909116906370a08231906024016020604051808303816000875af115801561089f573d6000803e3d6000fd5b505050506040513d601f19601f820116820180604052508101906108c391906114a4565b92915050565b6001600160a01b0382166000908152600260205260409020546108c3565b919050565b6000546001600160a01b0316331461090357600080fd5b600054600160a01b900460ff161561091a57600080fd5b6000805460ff60a01b1916600160a01b1781556040517f6985a02210a168e66602d3235cb6db0e70f92b3ba4d376a33c0f3d9434bff6259190a1565b6009805461049590611441565b600054600160a01b900460ff161561097a57600080fd5b3360009081526007602052604090205460ff161561099757600080fd5b600b54600160a01b900460ff1615610a1957600b5460405163370c4c0560e11b81523360048201526001600160a01b0384811660248301526044820184905290911690636e18980a90606401600060405180830381600087803b1580156109fd57600080fd5b505af1158015610a11573d6000803e3d6000fd5b505050505050565b610a238282611104565b5050565b6000546001600160a01b03163314610a3e57600080fd5b60148210610a4b57600080fd5b60328110610a5857600080fd5b6003829055600a8054610a7691610a6f91906115a1565b829061125e565b60048190556003546040517fb044a1e409eac5c48e5af22d4af52670dd1a99059537a78b31b48c6500a6354e92610ab4928252602082015260400190565b60405180910390a15050565b6000546001600160a01b03163314610ad757600080fd5b600154610ae48282611491565b11610aee57600080fd5b600080546001600160a01b0316815260026020526040902054610b118282611491565b11610b1b57600080fd5b600080546001600160a01b031681526002602052604081208054839290610b43908490611491565b925050819055508060016000828254610b5c9190611491565b90915550506040518181527fcb8241adb0c3fdb35b70c24ce35c5eb0c17af7431c99f827d44a445ca624176a9060200161057e565b6000546001600160a01b03163314610ba857600080fd5b806001541015610bb757600080fd5b600080546001600160a01b0316815260026020526040902054811115610bdc57600080fd5b8060016000828254610bee91906115ad565b9091555050600080546001600160a01b031681526002602052604081208054839290610c1b9084906115ad565b90915550506040518181527f702d5967f45f6513a38ffc42d6ba9bf230bd40e8f53b16363c7eb4fd2deb9a449060200161057e565b600b54600090600160a01b900460ff1615610ce457600b54604051636eb1769f60e11b81526001600160a01b03858116600483015284811660248301529091169063dd62ed3e906044016020604051808303816000875af1158015610cb9573d6000803e3d6000fd5b505050506040513d601f19601f82011682018060405250810190610cdd91906114a4565b90506108c3565b6001600160a01b03808416600090815260056020908152604080832093861683529290522054610cdd565b6000546001600160a01b03163314610d2657600080fd5b6001600160a01b038116600081815260076020908152604091829020805460ff1916905590519182527fd7e9ec6e6ecd65492dce6bf513cd6867560d49544421d0783ddf06e76c24470c910161057e565b6000546001600160a01b03163314610d8e57600080fd5b6001600160a01b03811615610db957600080546001600160a01b0319166001600160a01b0383161790555b50565b6000546001600160a01b03163314610dd357600080fd5b6001600160a01b03811660009081526007602052604090205460ff16610df857600080fd5b6000610e038261083e565b6001600160a01b0383166000908152600260205260408120819055600180549293508392909190610e359084906115ad565b9091555050604080516001600160a01b0384168152602081018390527f61e6e66b0d6339b2980aecc6ccc0039736791f0ccde9ed512e789a7fbdd698c69101610ab4565b6040610e86816004611491565b361015610e9257600080fd5b8115801590610ec357503360009081526005602090815260408083206001600160a01b038716845290915290205415155b15610ecd57600080fd5b3360008181526005602090815260408083206001600160a01b03881680855290835292819020869055518581529192917f8c5be1e5ebec7d5bd14f71427d1e84f3dd0314c0f7b2291e5b200ac8c7c3b925910160405180910390a3505050565b6060610f3a816004611491565b361015610f4657600080fd5b6001600160a01b0384166000908152600560209081526040808320338452909152812054600354909190610f899061271090610f8390879061125e565b9061129d565b9050600454811115610f9a57506004545b600654821015610fd357610fae82856112b2565b6001600160a01b03871660009081526005602090815260408083203384529091529020555b6000610fdf85836112b2565b6001600160a01b03881660009081526002602052604090205490915061100590866112b2565b6001600160a01b03808916600090815260026020526040808220939093559088168152205461103490826112ce565b6001600160a01b03871660009081526002602052604090205581156110c057600080546001600160a01b031681526002602052604090205461107690836112ce565b600080546001600160a01b039081168252600260209081526040808420949094559154925185815292811692908a1691600080516020611610833981519152910160405180910390a35b856001600160a01b0316876001600160a01b0316600080516020611610833981519152836040516110f391815260200190565b60405180910390a350505050505050565b6040611111816004611491565b36101561111d57600080fd5b600061113a612710610f836003548661125e90919063ffffffff16565b905060045481111561114b57506004545b600061115784836112b2565b3360009081526002602052604090205490915061117490856112b2565b33600090815260026020526040808220929092556001600160a01b038716815220546111a090826112ce565b6001600160a01b038616600090815260026020526040902055811561122957600080546001600160a01b03168152600260205260409020546111e290836112ce565b600080546001600160a01b03908116825260026020908152604080842094909455915492518581529216913391600080516020611610833981519152910160405180910390a35b6040518181526001600160a01b0386169033906000805160206116108339815191529060200160405180910390a35050505050565b600082600003611270575060006108c3565b600061127c83856115c0565b90508261128985836115d7565b14611296576112966115f9565b9392505050565b6000806112aa83856115d7565b949350505050565b6000828211156112c4576112c46115f9565b61129682846115ad565b6000806112db8385611491565b905083811015611296576112966115f9565b600060208083528351808285015260005b8181101561131a578581018301518582016040015282016112fe565b506000604082860101526040601f19601f8301168501019250505092915050565b80356001600160a01b03811681146108e757600080fd5b60006020828403121561136457600080fd5b6112968261133b565b6000806040838503121561138057600080fd5b6113898361133b565b946020939093013593505050565b6000806000606084860312156113ac57600080fd5b6113b58461133b565b92506113c36020850161133b565b9150604084013590509250925092565b600080604083850312156113e657600080fd5b6113ef8361133b565b91506113fd6020840161133b565b90509250929050565b6000806040838503121561141957600080fd5b50508035926020909101359150565b60006020828403121561143a57600080fd5b5035919050565b600181811c9082168061145557607f821691505b60208210810361147557634e487b7160e01b600052602260045260246000fd5b50919050565b634e487b7160e01b600052601160045260246000fd5b808201808211156108c3576108c361147b565b6000602082840312156114b657600080fd5b5051919050565b600181815b808511156114f85781600019048211156114de576114de61147b565b808516156114eb57918102915b93841c93908002906114c2565b509250929050565b60008261150f575060016108c3565b8161151c575060006108c3565b8160018114611532576002811461153c57611558565b60019150506108c3565b60ff84111561154d5761154d61147b565b50506001821b6108c3565b5060208310610133831016604e8410600b841016171561157b575081810a6108c3565b61158583836114bd565b80600019048211156115995761159961147b565b029392505050565b60006112968383611500565b818103818111156108c3576108c361147b565b80820281158282048414176108c3576108c361147b565b6000826115f457634e487b7160e01b600052601260045260246000fd5b500490565b634e487b7160e01b600052600160045260246000fdfeddf252ad1be2c89b69c2b068fc378daa952ba7f163c4a11628f55a4df523b3efa26469706673582212200b650ccc631ba14bcab29849333d650b56c1e64cc55f7f56dd5f6391eb5ea3c264736f6c63430008140033","linkReferences":{}},"methodIdentifiers":{"MAX_UINT()":"e5b5019a","_totalSupply()":"3eaaf86b","addBlackList(address)":"0ecb93c0","allowance(address,address)":"dd62ed3e","allowed(address,address)":"5c658165","approve(address,uint256)":"095ea7b3","balanceOf(address)":"70a08231","balances(address)":"27e235e3","basisPointsRate()":"dd644f72","decimals()":"313ce567","deprecate(address)":"0753c30c","deprecated()":"0e136b19","destroyBlackFunds(address)":"f3bdc228","getBlackListStatus(address)":"59bf1abe","getOwner()":"893d20e8","isBlackListed(address)":"e47d6060","issue(uint256)":"cc872b66","maximumFee()":"35390714","name()":"06fdde03","owner()":"8da5cb5b","pause()":"8456cb59","paused()":"5c975abb","redeem(uint256)":"db006a75","removeBlackList(address)":"e4997dc5","setParams(uint256,uint256)":"c0324c77","symbol()":"95d89b41","totalSupply()":"18160ddd","transfer(address,uint256)":"a9059cbb","transferFrom(address,address,uint256)":"23b872dd","transferOwnership(address)":"f2fde38b","unpause()":"3f4ba83a","upgradedAddress()":"26976e3f"},"id":21}