{"abi":[{"type":"constructor","inputs":[{"name":"delegateContract","type":"address","internalType":"address"}],"stateMutability":"nonpayable"},{"type":"function","name":"onERC721Received","inputs":[{"name":"operator","type":"address","internalType":"address"},{"name":"from","type":"address","internalType":"address"},{"name":"tokenId","type":"uint256","internalType":"uint256"},{"name":"data","type":"bytes","internalType":"bytes"}],"outputs":[{"name":"","type":"bytes4","internalType":"bytes4"}],"stateMutability":"nonpayable"},{"type":"function","name":"supportsInterface","inputs":[{"name":"interfaceId","type":"bytes4","internalType":"bytes4"}],"outputs":[{"name":"","type":"bool","internalType":"bool"}],"stateMutability":"view"}],"bytecode":{"object":"0x608060405234801561001057600080fd5b506040516104cf3803806104cf83398101604081905261002f91610054565b600080546001600160a01b0319166001600160a01b0392909216919091179055610084565b60006020828403121561006657600080fd5b81516001600160a01b038116811461007d57600080fd5b9392505050565b61043c806100936000396000f3fe608060405234801561001057600080fd5b50600436106100365760003560e01c806301ffc9a71461003b578063150b7a0214610064575b600080fd5b61004f610049366004610224565b50600090565b60405190151581526020015b60405180910390f35b61007761007236600461027a565b610090565b6040516001600160e01b0319909116815260200161005b565b600080546040516301ffc9a760e01b8152630a85bd0160e11b60048201526001600160a01b03909116906301ffc9a790602401602060405180830381865afa1580156100e0573d6000803e3d6000fd5b505050506040513d601f19601f820116820180604052508101906101049190610356565b6101865760405162461bcd60e51b815260206004820152604360248201527f5468652064656c656761746520636f6e747261637420646f6573206e6f74207360448201527f7570706f72742074686520455243373231526563656976657220696e7465726660648201526261636560e81b608482015260a40160405180910390fd5b600054604051630a85bd0160e11b81526001600160a01b0390911690819063150b7a02906101be908990899089908990600401610378565b6020604051808303816000875af11580156101dd573d6000803e3d6000fd5b505050506040513d601f19601f8201168201806040525081019061020191906103e9565b9695505050505050565b6001600160e01b03198116811461022157600080fd5b50565b60006020828403121561023657600080fd5b81356102418161020b565b9392505050565b80356001600160a01b038116811461025f57600080fd5b919050565b634e487b7160e01b600052604160045260246000fd5b6000806000806080858703121561029057600080fd5b61029985610248565b93506102a760208601610248565b925060408501359150606085013567ffffffffffffffff808211156102cb57600080fd5b818701915087601f8301126102df57600080fd5b8135818111156102f1576102f1610264565b604051601f8201601f19908116603f0116810190838211818310171561031957610319610264565b816040528281528a602084870101111561033257600080fd5b82602086016020830137600060208483010152809550505050505092959194509250565b60006020828403121561036857600080fd5b8151801515811461024157600080fd5b600060018060a01b038087168352602081871681850152856040850152608060608501528451915081608085015260005b828110156103c55785810182015185820160a0015281016103a9565b5050600060a0828501015260a0601f19601f83011684010191505095945050505050565b6000602082840312156103fb57600080fd5b81516102418161020b56fea26469706673582212200399cf9443f3a59277fac5b4b02419c7f7a78c29f632d3d42e307bde366708ef64736f6c63430008140033","linkReferences":{}},"methodIdentifiers":{"onERC721Received(address,address,uint256,bytes)":"150b7a02","supportsInterface(bytes4)":"01ffc9a7"},"id":10}