{"abi":[{"type":"constructor","inputs":[{"name":"_batcherAddr","type":"address","internalType":"address payable"},{"name":"_doSelfFail","type":"bool","internalType":"bool"},{"name":"_doSelfReentry","type":"bool","internalType":"bool"}],"stateMutability":"nonpayable"},{"type":"fallback","stateMutability":"payable"},{"type":"receive","stateMutability":"payable"},{"type":"function","name":"doSelfFail","inputs":[],"outputs":[{"name":"","type":"bool","internalType":"bool"}],"stateMutability":"view"},{"type":"function","name":"doSelfReentry","inputs":[],"outputs":[{"name":"","type":"bool","internalType":"bool"}],"stateMutability":"view"},{"type":"function","name":"driveTest","inputs":[{"name":"recipients","type":"address[]","internalType":"address[]"},{"name":"values","type":"uint256[]","internalType":"uint256[]"}],"outputs":[],"stateMutability":"payable"},{"type":"function","name":"selfReentryAddress","inputs":[{"name":"","type":"uint256","internalType":"uint256"}],"outputs":[{"name":"","type":"address","internalType":"address"}],"stateMutability":"view"},{"type":"function","name":"selfReentryValue","inputs":[{"name":"","type":"uint256","internalType":"uint256"}],"outputs":[{"name":"","type":"uint256","internalType":"uint256"}],"stateMutability":"view"}],"bytecode":{"object":"0x608060405234801561001057600080fd5b5060405161073738038061073783398101604081905261002f916100f9565b60008054911515600160a81b0260ff60a81b19931515600160a01b026001600160a81b03199093166001600160a01b039095169490941791909117919091169190911781556001805480820182557fb10e2d527612073b26eecdfd717e6a320cf44b4afac2b0732d9fcbe2b7fa0cf60180546001600160a01b0319163017905560028054808301825592527f405787fa12a823e0f2b7631cc41b3ba8828b3321ca811111fa75cd3aa3bb5ace9091015561014a565b805180151581146100f457600080fd5b919050565b60008060006060848603121561010e57600080fd5b83516001600160a01b038116811461012557600080fd5b9250610133602085016100e4565b9150610141604085016100e4565b90509250925092565b6105de806101596000396000f3fe60806040526004361061004e5760003560e01c80637bd5ef311461015f578063801bda8f14610195578063aa2648f8146101c3578063f175fdb3146101e4578063f1d399341461021c5761011c565b3661011c57600054600160a01b900460ff161561009f5760405162461bcd60e51b8152600401610096906020808252600490820152634f6f707360e01b604082015260600190565b60405180910390fd5b600054600160a81b900460ff161561011a57600054604051636006274f60e11b81526001600160a01b039091169063c00c4e9e9034906100e7906001906002906004016102e4565b6000604051808303818588803b15801561010057600080fd5b505af1158015610114573d6000803e3d6000fd5b50505050505b005b600054600160a01b900460ff161561009f5760405162461bcd60e51b8152600401610096906020808252600490820152634f6f707360e01b604082015260600190565b34801561016b57600080fd5b5060005461018090600160a01b900460ff1681565b60405190151581526020015b60405180910390f35b3480156101a157600080fd5b506101b56101b0366004610373565b61022f565b60405190815260200161018c565b3480156101cf57600080fd5b5060005461018090600160a81b900460ff1681565b3480156101f057600080fd5b506102046101ff366004610373565b610250565b6040516001600160a01b03909116815260200161018c565b61011a61022a366004610462565b61027a565b6002818154811061023f57600080fd5b600091825260209091200154905081565b6001818154811061026057600080fd5b6000918252602090912001546001600160a01b0316905081565b600054604051636006274f60e11b81526001600160a01b039091169063c00c4e9e9034906102ae9086908690600401610531565b6000604051808303818588803b1580156102c757600080fd5b505af11580156102db573d6000803e3d6000fd5b50505050505050565b60006040820160408352808554808352606085019150600092508683526020808420845b8381101561032d5781546001600160a01b031685529382019360019182019101610308565b505085830381870152865480845287855281852093820192505b8085101561036657835483526001948501949093019291810191610347565b5090979650505050505050565b60006020828403121561038557600080fd5b5035919050565b634e487b7160e01b600052604160045260246000fd5b604051601f8201601f1916810167ffffffffffffffff811182821017156103cb576103cb61038c565b604052919050565b600067ffffffffffffffff8211156103ed576103ed61038c565b5060051b60200190565b600082601f83011261040857600080fd5b8135602061041d610418836103d3565b6103a2565b82815260059290921b8401810191818101908684111561043c57600080fd5b8286015b848110156104575780358352918301918301610440565b509695505050505050565b6000806040838503121561047557600080fd5b823567ffffffffffffffff8082111561048d57600080fd5b818501915085601f8301126104a157600080fd5b813560206104b1610418836103d3565b82815260059290921b840181019181810190898411156104d057600080fd5b948201945b838610156105045785356001600160a01b03811681146104f55760008081fd5b825294820194908201906104d5565b9650508601359250508082111561051a57600080fd5b50610527858286016103f7565b9150509250929050565b604080825283519082018190526000906020906060840190828701845b828110156105735781516001600160a01b03168452928401929084019060010161054e565b5050508381038285015284518082528583019183019060005b818110156103665783518352928401929184019160010161058c56fea2646970667358221220d835b76050c6b4d96e624444355a8fb63b6cd468e552176e222f0484fcc7f94b64736f6c63430008140033","linkReferences":{}},"methodIdentifiers":{"doSelfFail()":"7bd5ef31","doSelfReentry()":"aa2648f8","driveTest(address[],uint256[])":"f1d39934","selfReentryAddress(uint256)":"f175fdb3","selfReentryValue(uint256)":"801bda8f"},"id":32}