{"abi":[{"type":"constructor","inputs":[{"name":"_batcherAddr","type":"address","internalType":"address payable"}],"stateMutability":"nonpayable"},{"type":"fallback","stateMutability":"payable"},{"type":"receive","stateMutability":"payable"},{"type":"function","name":"selfAddress","inputs":[{"name":"","type":"uint256","internalType":"uint256"}],"outputs":[{"name":"","type":"address","internalType":"address"}],"stateMutability":"view"},{"type":"function","name":"selfValue","inputs":[{"name":"","type":"uint256","internalType":"uint256"}],"outputs":[{"name":"","type":"uint256","internalType":"uint256"}],"stateMutability":"view"}],"bytecode":{"object":"0x608060405234801561001057600080fd5b5060405161037b38038061037b83398101604081905261002f916100b5565b600080546001600160a01b039092166001600160a01b03199283161781556001805480820182557fb10e2d527612073b26eecdfd717e6a320cf44b4afac2b0732d9fcbe2b7fa0cf6018054909316301790925560028054808401825591527f405787fa12a823e0f2b7631cc41b3ba8828b3321ca811111fa75cd3aa3bb5ace01556100e5565b6000602082840312156100c757600080fd5b81516001600160a01b03811681146100de57600080fd5b9392505050565b610287806100f46000396000f3fe60806040526004361061002d5760003560e01c80631b4bae38146100f35780636c5e457b14610130576100ad565b366100ad576000546001600160a01b031631156100ab57600054604051636006274f60e11b81526001600160a01b039091169063c00c4e9e90610078906001906002906004016101a9565b600060405180830381600087803b15801561009257600080fd5b505af11580156100a6573d6000803e3d6000fd5b505050505b005b6000546001600160a01b031631156100ab57600054604051636006274f60e11b81526001600160a01b039091169063c00c4e9e90610078906001906002906004016101a9565b3480156100ff57600080fd5b5061011361010e366004610238565b61015e565b6040516001600160a01b0390911681526020015b60405180910390f35b34801561013c57600080fd5b5061015061014b366004610238565b610188565b604051908152602001610127565b6001818154811061016e57600080fd5b6000918252602090912001546001600160a01b0316905081565b6002818154811061019857600080fd5b600091825260209091200154905081565b60006040820160408352808554808352606085019150600092508683526020808420845b838110156101f25781546001600160a01b0316855293820193600191820191016101cd565b505085830381870152865480845287855281852093820192505b8085101561022b5783548352600194850194909301929181019161020c565b5090979650505050505050565b60006020828403121561024a57600080fd5b503591905056fea26469706673582212206757a0a783dcb8a8f973ad5bae0ee156f26dd7bcf00c44a9c18e135a6519c56464736f6c63430008140033","linkReferences":{}},"methodIdentifiers":{"selfAddress(uint256)":"1b4bae38","selfValue(uint256)":"6c5e457b"},"id":18}