{"abi":[{"type":"constructor","inputs":[],"stateMutability":"nonpayable"},{"type":"function","name":"_totalSupply","inputs":[],"outputs":[{"name":"","type":"uint256","internalType":"uint256"}],"stateMutability":"view"},{"type":"function","name":"allowance","inputs":[{"name":"_owner","type":"address","internalType":"address"},{"name":"_spender","type":"address","internalType":"address"}],"outputs":[{"name":"remaining","type":"uint256","internalType":"uint256"}],"stateMutability":"view"},{"type":"function","name":"allowed","inputs":[{"name":"","type":"address","internalType":"address"},{"name":"","type":"address","internalType":"address"}],"outputs":[{"name":"","type":"uint256","internalType":"uint256"}],"stateMutability":"view"},{"type":"function","name":"approve","inputs":[{"name":"_spender","type":"address","internalType":"address"},{"name":"_amount","type":"uint256","internalType":"uint256"}],"outputs":[{"name":"success","type":"bool","internalType":"bool"}],"stateMutability":"nonpayable"},{"type":"function","name":"balanceOf","inputs":[{"name":"_owner","type":"address","internalType":"address"}],"outputs":[{"name":"balance","type":"uint256","internalType":"uint256"}],"stateMutability":"view"},{"type":"function","name":"balances","inputs":[{"name":"","type":"address","internalType":"address"}],"outputs":[{"name":"","type":"uint256","internalType":"uint256"}],"stateMutability":"view"},{"type":"function","name":"decimals","inputs":[],"outputs":[{"name":"","type":"uint8","internalType":"uint8"}],"stateMutability":"view"},{"type":"function","name":"name","inputs":[],"outputs":[{"name":"","type":"string","internalType":"string"}],"stateMutability":"view"},{"type":"function","name":"owner","inputs":[],"outputs":[{"name":"","type":"address","internalType":"address"}],"stateMutability":"view"},{"type":"function","name":"symbol","inputs":[],"outputs":[{"name":"","type":"string","internalType":"string"}],"stateMutability":"view"},{"type":"function","name":"totalSupply","inputs":[],"outputs":[{"name":"","type":"uint256","internalType":"uint256"}],"stateMutability":"pure"},{"type":"function","name":"transfer","inputs":[{"name":"_to","type":"address","internalType":"address"},{"name":"_amount","type":"uint256","internalType":"uint256"}],"outputs":[{"name":"success","type":"bool","internalType":"bool"}],"stateMutability":"nonpayable"},{"type":"function","name":"transferFrom","inputs":[{"name":"_from","type":"address","internalType":"address"},{"name":"_to","type":"address","internalType":"address"},{"name":"_amount","type":"uint256","internalType":"uint256"}],"outputs":[{"name":"success","type":"bool","internalType":"bool"}],"stateMutability":"nonpayable"},{"type":"event","name":"Approval","inputs":[{"name":"_owner","type":"address","indexed":true,"internalType":"address"},{"name":"_spender","type":"address","indexed":true,"internalType":"address"},{"name":"_value","type":"uint256","indexed":false,"internalType":"uint256"}],"anonymous":false},{"type":"event","name":"Transfer","inputs":[{"name":"_from","type":"address","indexed":true,"internalType":"address"},{"name":"_to","type":"address","indexed":true,"internalType":"address"},{"name":"_value","type":"uint256","indexed":false,"internalType":"uint256"}],"anonymous":false}],"bytecode":{"object":"0x608060405234801561001057600080fd5b50600080546001600160a01b0319163390811782558152600160205260409020620f4240905561070c806100456000396000f3fe608060405234801561001057600080fd5b50600436106100cf5760003560e01c80633eaaf86b1161008c5780638da5cb5b116100665780638da5cb5b1461020757806395d89b4114610232578063a9059cbb14610256578063dd62ed3e1461026957600080fd5b80633eaaf86b146101a95780635c658165146101b357806370a08231146101de57600080fd5b806306fdde03146100d4578063095ea7b31461012657806318160ddd1461014957806323b872dd1461015c57806327e235e31461016f578063313ce5671461018f575b600080fd5b6101106040518060400160405280601a81526020017f4578616d706c6520466978656420537570706c7920546f6b656e00000000000081525081565b60405161011d919061057c565b60405180910390f35b6101396101343660046105e6565b6102a2565b604051901515815260200161011d565b620f42405b60405190815260200161011d565b61013961016a366004610610565b61030f565b61014e61017d36600461064c565b60016020526000908152604090205481565b610197601281565b60405160ff909116815260200161011d565b61014e620f424081565b61014e6101c1366004610667565b600260209081526000928352604080842090915290825290205481565b61014e6101ec36600461064c565b6001600160a01b031660009081526001602052604090205490565b60005461021a906001600160a01b031681565b6040516001600160a01b03909116815260200161011d565b61011060405180604001604052806005815260200164119256115160da1b81525081565b6101396102643660046105e6565b61048b565b61014e610277366004610667565b6001600160a01b03918216600090815260026020908152604080832093909416825291909152205490565b3360008181526002602090815260408083206001600160a01b038716808552925280832085905551919290917f8c5be1e5ebec7d5bd14f71427d1e84f3dd0314c0f7b2291e5b200ac8c7c3b925906102fd9086815260200190565b60405180910390a35060015b92915050565b6001600160a01b038316600090815260016020526040812054821180159061035a57506001600160a01b03841660009081526002602090815260408083203384529091529020548211155b80156103665750600082115b801561039257506001600160a01b03831660009081526001602052604090205461039083826106b0565b115b15610480576001600160a01b038416600090815260016020526040812080548492906103bf9084906106c3565b90915550506001600160a01b0384166000908152600260209081526040808320338452909152812080548492906103f79084906106c3565b90915550506001600160a01b038316600090815260016020526040812080548492906104249084906106b0565b92505081905550826001600160a01b0316846001600160a01b03167fddf252ad1be2c89b69c2b068fc378daa952ba7f163c4a11628f55a4df523b3ef8460405161047091815260200190565b60405180910390a3506001610484565b5060005b9392505050565b3360009081526001602052604081205482118015906104aa5750600082115b80156104d657506001600160a01b0383166000908152600160205260409020546104d483826106b0565b115b156105745733600090815260016020526040812080548492906104fa9084906106c3565b90915550506001600160a01b038316600090815260016020526040812080548492906105279084906106b0565b90915550506040518281526001600160a01b0384169033907fddf252ad1be2c89b69c2b068fc378daa952ba7f163c4a11628f55a4df523b3ef9060200160405180910390a3506001610309565b506000610309565b600060208083528351808285015260005b818110156105a95785810183015185820160400152820161058d565b506000604082860101526040601f19601f8301168501019250505092915050565b80356001600160a01b03811681146105e157600080fd5b919050565b600080604083850312156105f957600080fd5b610602836105ca565b946020939093013593505050565b60008060006060848603121561062557600080fd5b61062e846105ca565b925061063c602085016105ca565b9150604084013590509250925092565b60006020828403121561065e57600080fd5b610484826105ca565b6000806040838503121561067a57600080fd5b610683836105ca565b9150610691602084016105ca565b90509250929050565b634e487b7160e01b600052601160045260246000fd5b808201808211156103095761030961069a565b818103818111156103095761030961069a56fea264697066735822122020dfd7124805dd356017acf0fa3a0153336149f0520a5d4e72fe7cb40b01810b64736f6c63430008140033","linkReferences":{}},"methodIdentifiers":{"_totalSupply()":"3eaaf86b","allowance(address,address)":"dd62ed3e","allowed(address,address)":"5c658165","approve(address,uint256)":"095ea7b3","balanceOf(address)":"70a08231","balances(address)":"27e235e3","decimals()":"313ce567","name()":"06fdde03","owner()":"8da5cb5b","symbol()":"95d89b41","totalSupply()":"18160ddd","transfer(address,uint256)":"a9059cbb","transferFrom(address,address,uint256)":"23b872dd"},"id":12}