{"abi":[{"type":"constructor","inputs":[{"name":"_implementationAddress","type":"address","internalType":"address"}],"stateMutability":"nonpayable"},{"type":"function","name":"createForwarder","inputs":[{"name":"parent","type":"address","internalType":"address"},{"name":"feeAddress","type":"address","internalType":"address"},{"name":"salt","type":"bytes32","internalType":"bytes32"}],"outputs":[],"stateMutability":"nonpayable"},{"type":"function","name":"createForwarder","inputs":[{"name":"parent","type":"address","internalType":"address"},{"name":"feeAddress","type":"address","internalType":"address"},{"name":"salt","type":"bytes32","internalType":"bytes32"},{"name":"shouldAutoFlushERC721","type":"bool","internalType":"bool"},{"name":"shouldAutoFlushERC1155","type":"bool","internalType":"bool"}],"outputs":[],"stateMutability":"nonpayable"},{"type":"function","name":"implementationAddress","inputs":[],"outputs":[{"name":"","type":"address","internalType":"address"}],"stateMutability":"view"},{"type":"event","name":"ForwarderCreated","inputs":[{"name":"newForwarderAddress","type":"address","indexed":false,"internalType":"address"},{"name":"parentAddress","type":"address","indexed":false,"internalType":"address"},{"name":"feeAddress","type":"address","indexed":false,"internalType":"address"},{"name":"shouldAutoFlushERC721","type":"bool","indexed":false,"internalType":"bool"},{"name":"shouldAutoFlushERC1155","type":"bool","indexed":false,"internalType":"bool"}],"anonymous":false}],"bytecode":{"object":"0x60a060405234801561001057600080fd5b5060405161045f38038061045f83398101604081905261002f91610040565b6001600160a01b0316608052610070565b60006020828403121561005257600080fd5b81516001600160a01b038116811461006957600080fd5b9392505050565b6080516103ce610091600039600081816073015261017e01526103ce6000f3fe608060405234801561001057600080fd5b50600436106100415760003560e01c806313b2f75c146100465780632f6f713e1461005b578063b97a23191461006e575b600080fd5b6100596100543660046102ee565b6100b1565b005b61005961006936600461033a565b61012c565b6100957f000000000000000000000000000000000000000000000000000000000000000081565b6040516001600160a01b03909116815260200160405180910390f35b6040516317b7b89f60e11b81526001600160a01b038085166004830152831660248201526044810182905260016064820181905260848201523090632f6f713e9060a401600060405180830381600087803b15801561010f57600080fd5b505af1158015610123573d6000803e3d6000fd5b50505050505050565b6040516bffffffffffffffffffffffff19606087811b8216602084015286901b1660348201526048810184905260009060680160405160208183030381529060405280519060200120905060006101a37f00000000000000000000000000000000000000000000000000000000000000008361027e565b604080516001600160a01b0383811682528a811660208301528916818301528615156060820152851515608082015290519192507f3eef94925729ba4ffb1c5336b51285d5e528fb2d6afdbaa4111a024fbe7c85ed919081900360a00190a1604051630bdce0a160e21b81526001600160a01b038881166004830152878116602483015285151560448301528415156064830152821690632f73828490608401600060405180830381600087803b15801561025d57600080fd5b505af1158015610271573d6000803e3d6000fd5b5050505050505050505050565b6000808360601b9050604051733d602d80600a3d3981f3363d3d373d3d3d363d7360601b81528160148201526e5af43d82803e903d91602b57fd5bf360881b6028820152836037826000f595945050505050565b80356001600160a01b03811681146102e957600080fd5b919050565b60008060006060848603121561030357600080fd5b61030c846102d2565b925061031a602085016102d2565b9150604084013590509250925092565b803580151581146102e957600080fd5b600080600080600060a0868803121561035257600080fd5b61035b866102d2565b9450610369602087016102d2565b93506040860135925061037e6060870161032a565b915061038c6080870161032a565b9050929550929590935056fea264697066735822122049b201c6f6c8126116548bfdc0b488ed5258962d70847e1854349a46ae1a8cf464736f6c63430008140033","linkReferences":{}},"methodIdentifiers":{"createForwarder(address,address,bytes32)":"13b2f75c","createForwarder(address,address,bytes32,bool,bool)":"2f6f713e","implementationAddress()":"b97a2319"},"id":5}