{"abi":[{"type":"constructor","inputs":[{"name":"_transferGasLimit","type":"uint256","internalType":"uint256"}],"stateMutability":"nonpayable"},{"type":"fallback","stateMutability":"payable"},{"type":"receive","stateMutability":"payable"},{"type":"function","name":"acceptOwnership","inputs":[],"outputs":[],"stateMutability":"nonpayable"},{"type":"function","name":"batch","inputs":[{"name":"recipients","type":"address[]","internalType":"address[]"},{"name":"values","type":"uint256[]","internalType":"uint256[]"}],"outputs":[],"stateMutability":"payable"},{"type":"function","name":"changeTransferGasLimit","inputs":[{"name":"newTransferGasLimit","type":"uint256","internalType":"uint256"}],"outputs":[],"stateMutability":"nonpayable"},{"type":"function","name":"lockCounter","inputs":[],"outputs":[{"name":"","type":"uint256","internalType":"uint256"}],"stateMutability":"view"},{"type":"function","name":"owner","inputs":[],"outputs":[{"name":"","type":"address","internalType":"address"}],"stateMutability":"view"},{"type":"function","name":"pendingOwner","inputs":[],"outputs":[{"name":"","type":"address","internalType":"address"}],"stateMutability":"view"},{"type":"function","name":"recover","inputs":[{"name":"to","type":"address","internalType":"address"},{"name":"value","type":"uint256","internalType":"uint256"},{"name":"data","type":"bytes","internalType":"bytes"}],"outputs":[{"name":"","type":"bytes","internalType":"bytes"}],"stateMutability":"nonpayable"},{"type":"function","name":"renounceOwnership","inputs":[],"outputs":[],"stateMutability":"nonpayable"},{"type":"function","name":"transferGasLimit","inputs":[],"outputs":[{"name":"","type":"uint256","internalType":"uint256"}],"stateMutability":"view"},{"type":"function","name":"transferOwnership","inputs":[{"name":"newOwner","type":"address","internalType":"address"}],"outputs":[],"stateMutability":"nonpayable"},{"type":"event","name":"BatchTransfer","inputs":[{"name":"sender","type":"address","indexed":false,"internalType":"address"},{"name":"recipient","type":"address","indexed":false,"internalType":"address"},{"name":"value","type":"uint256","indexed":false,"internalType":"uint256"}],"anonymous":false},{"type":"event","name":"OwnershipTransferStarted","inputs":[{"name":"previousOwner","type":"address","indexed":true,"internalType":"address"},{"name":"newOwner","type":"address","indexed":true,"internalType":"address"}],"anonymous":false},{"type":"event","name":"OwnershipTransferred","inputs":[{"name":"previousOwner","type":"address","indexed":true,"internalType":"address"},{"name":"newOwner","type":"address","indexed":true,"internalType":"address"}],"anonymous":false},{"type":"event","name":"TransferGasLimitChange","inputs":[{"name":"prevTransferGasLimit","type":"uint256","indexed":false,"internalType":"uint256"},{"name":"newTransferGasLimit","type":"uint256","indexed":false,"internalType":"uint256"}],"anonymous":false},{"type":"error","name":"OwnableInvalidOwner","inputs":[{"name":"owner","type":"address","internalType":"address"}]},{"type":"error","name":"OwnableUnauthorizedAccount","inputs":[{"name":"account","type":"address","internalType":"address"}]}],"bytecode":{"object":"0x608060405234801561001057600080fd5b50604051610cde380380610cde83398101604081905261002f91610115565b338061005557604051631e4fbdf760e01b81526000600482015260240160405180910390fd5b61005e816100a9565b50600160025560038190556040805160008152602081018390527f414dec50d30853f0eea607f090bdfee072c2e0583dc66f04a723f7a0b8314eac910160405180910390a15061012e565b600180546001600160a01b03191690556100c2816100c5565b50565b600080546001600160a01b038381166001600160a01b0319831681178455604051919092169283917f8be0079c531659141344cd1fd0a4f28419497f9722a3daafe3b4186f6b6457e09190a35050565b60006020828403121561012757600080fd5b5051919050565b610ba18061013d6000396000f3fe6080604052600436106100955760003560e01c80638f6b3311116100595780638f6b3311146101bb578063c00c4e9e146101e8578063e30c3978146101fb578063e8f67c3b14610219578063f2fde38b1461022f576100d9565b80632cd9f12d14610114578063715018a61461013657806379ba50971461014b5780638da5cb5b146101605780638db564c214610197576100d9565b366100d95760405162461bcd60e51b815260206004820152600f60248201526e496e76616c6964207265636569766560881b60448201526064015b60405180910390fd5b60405162461bcd60e51b815260206004820152601060248201526f496e76616c69642066616c6c6261636b60801b60448201526064016100d0565b34801561012057600080fd5b5061013461012f3660046108fa565b61024f565b005b34801561014257600080fd5b506101346102ea565b34801561015757600080fd5b506101346102fe565b34801561016c57600080fd5b506000546001600160a01b03165b6040516001600160a01b0390911681526020015b60405180910390f35b3480156101a357600080fd5b506101ad60025481565b60405190815260200161018e565b3480156101c757600080fd5b506101db6101d636600461092f565b610342565b60405161018e91906109b6565b6101346101f6366004610a50565b6103f9565b34801561020757600080fd5b506001546001600160a01b031661017a565b34801561022557600080fd5b506101ad60035481565b34801561023b57600080fd5b5061013461024a366004610abc565b6107f8565b610257610869565b6108fc8110156102a95760405162461bcd60e51b815260206004820152601a60248201527f5472616e7366657220676173206c696d697420746f6f206c6f7700000000000060448201526064016100d0565b60035460408051918252602082018390527f414dec50d30853f0eea607f090bdfee072c2e0583dc66f04a723f7a0b8314eac910160405180910390a1600355565b6102f2610869565b6102fc6000610896565b565b60015433906001600160a01b031681146103365760405163118cdaa760e01b81526001600160a01b03821660048201526024016100d0565b61033f81610896565b50565b606061034c610869565b600080866001600160a01b031686868660405161036a929190610ade565b60006040518083038185875af1925050503d80600081146103a7576040519150601f19603f3d011682016040523d82523d6000602084013e6103ac565b606091505b5091509150816103ef5760405162461bcd60e51b815260206004820152600e60248201526d149958dbdd995c8819985a5b195960921b60448201526064016100d0565b9695505050505050565b6002805490600061040983610b04565b909155505060025460008490036104625760405162461bcd60e51b815260206004820181905260248201527f4d7573742073656e6420746f206174206c65617374206f6e6520706572736f6e60448201526064016100d0565b8382146104b15760405162461bcd60e51b815260206004820152601d60248201527f556e657175616c20726563697069656e747320616e642076616c75657300000060448201526064016100d0565b61010084106104f85760405162461bcd60e51b8152602060048201526013602482015272546f6f206d616e7920726563697069656e747360681b60448201526064016100d0565b6000805b60ff811686111561073e576000878760ff841681811061051e5761051e610b1d565b90506020020160208101906105339190610abc565b6001600160a01b0316036105895760405162461bcd60e51b815260206004820152601960248201527f496e76616c696420726563697069656e7420616464726573730000000000000060448201526064016100d0565b7fc42fa155158786a1dd6ccc3a785f35845467353c3cc700e0e31a79f90e22227d3388888460ff168181106105c0576105c0610b1d565b90506020020160208101906105d59190610abc565b87878560ff168181106105ea576105ea610b1d565b9050602002013560405161061f939291906001600160a01b039384168152919092166020820152604081019190915260600190565b60405180910390a1600087878360ff1681811061063e5761063e610b1d565b90506020020160208101906106539190610abc565b6001600160a01b031686868460ff1681811061067157610671610b1d565b9050602002013560035490604051600060405180830381858888f193505050503d80600081146106bd576040519150601f19603f3d011682016040523d82523d6000602084013e6106c2565b606091505b50509050806107015760405162461bcd60e51b815260206004820152600b60248201526a14d95b990819985a5b195960aa1b60448201526064016100d0565b85858360ff1681811061071657610716610b1d565b90506020020135836107289190610b33565b925050808061073690610b4c565b9150506104fc565b5034811461079f5760405162461bcd60e51b815260206004820152602860248201527f546f74616c2073656e74206f7574206d75737420657175616c20746f74616c206044820152671c9958d95a5d995960c21b60648201526084016100d0565b5060025481146107f15760405162461bcd60e51b815260206004820152601b60248201527f5265656e7472616e637920617474656d7074206465746563746564000000000060448201526064016100d0565b5050505050565b610800610869565b600180546001600160a01b0383166001600160a01b031990911681179091556108316000546001600160a01b031690565b6001600160a01b03167f38d16b8cac22d99fc7c124b9cd0de2d3fa1faef420bfe791d8c362d765e2270060405160405180910390a350565b6000546001600160a01b031633146102fc5760405163118cdaa760e01b81523360048201526024016100d0565b600180546001600160a01b031916905561033f81600080546001600160a01b038381166001600160a01b0319831681178455604051919092169283917f8be0079c531659141344cd1fd0a4f28419497f9722a3daafe3b4186f6b6457e09190a35050565b60006020828403121561090c57600080fd5b5035919050565b80356001600160a01b038116811461092a57600080fd5b919050565b6000806000806060858703121561094557600080fd5b61094e85610913565b935060208501359250604085013567ffffffffffffffff8082111561097257600080fd5b818701915087601f83011261098657600080fd5b81358181111561099557600080fd5b8860208285010111156109a757600080fd5b95989497505060200194505050565b600060208083528351808285015260005b818110156109e3578581018301518582016040015282016109c7565b506000604082860101526040601f19601f8301168501019250505092915050565b60008083601f840112610a1657600080fd5b50813567ffffffffffffffff811115610a2e57600080fd5b6020830191508360208260051b8501011115610a4957600080fd5b9250929050565b60008060008060408587031215610a6657600080fd5b843567ffffffffffffffff80821115610a7e57600080fd5b610a8a88838901610a04565b90965094506020870135915080821115610aa357600080fd5b50610ab087828801610a04565b95989497509550505050565b600060208284031215610ace57600080fd5b610ad782610913565b9392505050565b8183823760009101908152919050565b634e487b7160e01b600052601160045260246000fd5b600060018201610b1657610b16610aee565b5060010190565b634e487b7160e01b600052603260045260246000fd5b80820180821115610b4657610b46610aee565b92915050565b600060ff821660ff8103610b6257610b62610aee565b6001019291505056fea26469706673582212207ed143e4406c8f458d07ecf7efc2b24d6660fcdb8eb439c9a687bbec08227bf564736f6c63430008140033","linkReferences":{}},"methodIdentifiers":{"acceptOwnership()":"79ba5097","batch(address[],uint256[])":"c00c4e9e","changeTransferGasLimit(uint256)":"2cd9f12d","lockCounter()":"8db564c2","owner()":"8da5cb5b","pendingOwner()":"e30c3978","recover(address,uint256,bytes)":"8f6b3311","renounceOwnership()":"715018a6","transferGasLimit()":"e8f67c3b","transferOwnership(address)":"f2fde38b"},"id":0}